:100000000C94600A0C9451440C9426440C94FB43C9
:100010000C94D0430C94A5430C947A430C944F4316
:100020000C9424430C94910A0C94910A0C94910A18
:100030000C94910A0C94910A0C94910A0C94910AD4
:100040000C94910A0C94910A0C94910A0C94910AC4
:100050000C94910A0C94910A0C94910A0C94DA4233
:100060000C94910A0C94B0420C9486420C94910A20
:100070000C94910A0C94910A0C94910A0C94910A94
:100080000C94910A0C94910A0C94910A0C94910A84
:100090000C94910A0C94910A0C94910A0C947C444F
:1000A0000C94910A0C94910A0C94910A0C94910A64
:1000B0000C94910A0C94910A0C94910A0C94910A54
:1000C0000C94910A0C94910A0C94910A0C945C4241
:1000D0000C9432420C94910A0C9408420C94DE4128
:1000E0000C94910A084AD73B3BCE016E84BCBFFDFD
:1000F000C12F3D6C74319ABD56833DDA3D00C77FF8
:1001000011BED9E4BB4C3E916BAAAABE0000008090
:100110003F072C7AA5BA6CC590DA3B9365FC8BBC83
:1001200053F810FD3C5692834DBD879D3AB63DCBAA
:10013000C9BF5BBE73DA0FC93F05A84CCDB2D44E20
:10014000B93836A9020C50B9918688083CA6AAAAEB
:100150002ABE000000803F000C94670C0C94710CC8
:100160000C94C2230C94A10D0C94EB0B0C9412155F
:100170000C9499370C94750F0C945C380C94B50D55
:100180000C94920C0C94F9340C94B6370C94053AF8
:100190000C94520C0C94BA0A0C94730D0C945A23C0
:1001A0000C94640C0C94E4380C948B0F0C94EE0EAD
:1001B0000C94120F0C94C2390C9436360C94890CA2
:1001C0000C94910D0C94ED0E0C94660D0C945F380C
:1001D0000C947D0B0C94600C0C94EC0D0C947D0D28
:1001E0000C94860E0C947F0C0C94A4370C94283439
:1001F0000C94EE390C9422380C945B240C94F00E81
:100200000C9469370C94310B0C94F3370C9408253B
:100210000C94B7380C94EF0E0C94990D0C945C0C64
:100220000C945A3E0C94DD220C94BF0D0C94F60DE8
:100230000C94970C0C94190F0C941C2E0C940F0B0F
:100240000C94930C0C946C3E0C94B8240C9489334D
:100250000C946D0C0C9495310C94FD230C94AB0D07
:100260000C942E240C94CE0D0C945E2F0C94230B26
:100270000C94770C0C94000B0C94870D0C94961531
:100280000C9437140C94DF360C94E0370C947B0CF0
:100290000C94F3340C948D0C0C94460F0C94FF0EBC
:1002A0000C94B72E0C94F24A0C94AD370C941B2A84
:1002B0000C94E20D0C94000E0C94580C0C94DB374B
:1002C0000C94D80D0C946E0D0C94850C0C94872313
:1002D0004E414E494E495459494E46CDCCCC3D0A2B
:1002E000D7233C17B7D13877CC2B329595E6241F0E
:1002F000B14F0A000020410000C84200401C4620C7
:10030000BCBE4CCA1B0E5AAEC59D7400407A10F399
:100310005A00A0724E18090010A5D4E80000E87633
:1003200048170000E40B54020000CA9A3B0000008A
:10033000E1F505000080969800000040420F0000A3
:1003400000A08601000000102700000000E8030064
:100350000000006400000000000A0000000000012E
:1003600000000000002C76D888DC674F0823DFC12E
:10037000DFAE59E1B1B796E5E3E453C63AE65199E9
:100380007696E8E6C28426EB898C9B62ED407C6F12
:10039000FCEFBC9C9F40F2BAA56FA5F490055A2AC9
:1003A000F75C936B6CF9676DC11BFCE0E40D47FED5
:1003B000F520E6B500D0ED902E03009435770500CA
:1003C00080841E080000204E0A000000C80C333351
:1003D00033330F986E12831141EF8D2114893BE660
:1003E0005516CFFEE6DB18D1844B381BF77C1D90E9
:1003F0001DA4BBE424203284725E228100C9F12452
:10040000ECA1E53D2741542B5253540D0A002B2BF0
:100410002B000D0A4553502D303120496E69746907
:10042000616C697A6174696F6E20636F6D706C6561
:100430007465000D0A4553502D30313A20466169EC
:100440006C65642041542B43495053544F3D373021
:1004500030300041542B43495053544F3D373030D6
:10046000300D0A000D0A4553502D30313A204661B7
:10047000696C65642041542B43495053455256459D
:10048000523D312C313039300041542B43495053C7
:1004900045525645523D312C313039300D0A000D50
:1004A0000A4553502D30313A204661696C6564200D
:1004B00041542B4349504D55583D310041542B4335
:1004C00049504D55583D310D0A000D0A4553502DE8
:1004D00030313A204661696C65642041542B4349B0
:1004E000504D4F44453D310041542B4349504D4FF1
:1004F00044453D300D0A000D0A4553502D30313A28
:10050000204661696C65642041542B43574448433D
:1005100050535F4445463D312C323830302C223127
:1005200039322E3136382E31302E30222C223139CC
:10053000322E3136382E31302E38220041542B43A2
:100540005744484350535F4445463D312C32383080
:10055000302C223139322E3136382E31302E3022A5
:100560002C223139322E3136382E31302E38220DB0
:100570000A000D0A4553502D30313A204661696C0E
:1005800065642041542B43495041505F4445463DEA
:10059000223139322E3136382E31302E39222C226A
:1005A0003139322E3136382E31302E392200415435
:1005B0002B43495041505F4445463D223139322E4C
:1005C0003136382E31302E39222C223139322E312B
:1005D00036382E31302E39220D0A000D0A4553507F
:1005E0002D30313A204661696C65642041542B43BB
:1005F00057444843505F4445463D302C31004154F8
:100600002B4357444843505F4445463D302C310D01
:100610000A00222C224E41222C352C300D0A000DCE
:100620000A4553502D30313A2041542B4357534102
:10063000505F4445463D224645542D00222C224E13
:1006400041222C352C300D0A0041542B4357534185
:10065000505F4445463D224645542D000D0A455302
:10066000502D30313A204661696C65642041542B2D
:1006700043574D4F44455F4445463D320041542B5E
:1006800043574D4F44455F4445463D320D0A000DEA
:100690000A4553502D30313A204661696C6564201B
:1006A00041542B5246504F5745523D38300041542B
:1006B0002B5246504F5745523D38300D0A000D0A17
:1006C0004553502D30313A204661696C65642041B4
:1006D00054453000415445300D0A000D0A45535031
:1006E0002D30312050726573656E74000D0A4553CC
:1006F000502D3031204E6F7420466F756E64000DA2
:100700000A496E697469616C697A696E672045533C
:10071000502D3031002044656C74613A00205368DC
:100720006F756C642062653A002049733A000D0AC7
:10073000436C6F636B20506173732E20436F756E33
:100740007465723A002044656C74613A0020536805
:100750006F756C642062653A002049733A000D0A97
:100760004661696C656420436C6F636B20546573EC
:10077000742E20436F756E7465723A000D0A4661DF
:10078000696C656420436C6F636B20546573742ED1
:1007900020436F756E74657220646964206E6F7497
:1007A0002073746F703A000D0A4661696C656420AD
:1007B000436C6F636B20546573742E2073656E7386
:1007C0006F725F7374617475733A000D0A466169E4
:1007D0006C656420436C6F636B20546573742E20CA
:1007E000436F756E74657220667265652072756EF2
:1007F0006E696E673A000D0A4379636C653A000DC5
:100800000A4661696C656420436C6F636B205465B4
:1008100073742E2053707572696F757320747269CA
:10082000676765723A000D0A504F535420636F7525
:100830006E74657273000D0A504F53545F32204638
:1008400061696C65640D0A000D0A5461626174612E
:100850002053746174653A200020206F6C645F4CF3
:1008600045445F70657263656E743A000D0A6E658B
:10087000775F4C45445F70657263656E743A002023
:10088000206F6C645F4C45445F70657263656E7485
:100890003A000D0A6E65775F4C45445F7065726380
:1008A000656E743A000D0A20494E20203C3C200021
:1008B0000D0A204F5554203E3E20000D0A002056C0
:1008C0006F6C7473000D0A565F5245463A20006DF6
:1008D0006D2F757300274320000D0A54656D7065F8
:1008E0007261747572653A20000D0A52554E2046A9
:1008F0006C6970466C6F703A203078000D0A44497C
:10090000503A203078000D0A4244205265763A0071
:1009100073000D0A54696D653A007D0D0A00225678
:10092000657273696F6E223A002C200022565F5266
:100930004546223A002C2000223A002200222C2098
:10094000002E007B2274696D6572223A20220022FB
:100950007D0D0A007B224F53434F5045223A200021
:100960007D002020000A7B5265663A000A0D446F24
:100970006E65000A0D537472696B65000D0A46615D
:10098000636520737472696B6520746573740020ED
:10099000446F6E650D0A000D0A52616D70696E67D5
:1009A00020746865204C4544000D0A446973706CDE
:1009B00061792053657269616C20506F72743A20BE
:1009C00048656C6C6F20576F726C640D0A000D0ADD
:1009D0004175782053657269616C20506F72743A6A
:1009E0002048656C6C6F20576F726C640D0A000DA7
:1009F0000A41726475696E6F2053657269616C207B
:100A0000506F72743A2048656C6C6F20576F726C2F
:100A1000640D0A000D0A50617373207468726F755B
:100A20006768206163746976652E20204379636C62
:100A30006520706F77657220746F20657869740D1A
:100A40000A000D0A53696E676C652043616C63751B
:100A50006C6174696F6E0D0A000D0A47726964203B
:100A600043616C63756C6174696F6E0D0A000D0AE9
:100A700053706972616C2043616C63756C61746959
:100A80006F6E0D0A000D0A446F6E65002073746569
:100A9000707300206D732020000D0A416476616E32
:100AA00063696E67206261636B6572207061706557
:100AB000722000204641494C0D0A002050415353FA
:100AC0000D0A000D0A546869732074657374206EF2
:100AD0006F7420737570706F72746564206F6E2010
:100AE00074686973206861726477617265207265E9
:100AF000766973696F6E0075732E20416C6C206F80
:100B0000757470757473206D7573742062652074CC
:100B100068652073616D652E20000D0A52616E6458
:100B20006F6D20636C6F636B20746573743A200083
:100B30000D0A57616974696E6720666F722054727E
:100B400069676765720D0A000D0A000D0A323520CB
:100B50002D20546573742050757368204255747449
:100B60006F6E73000D0A3234202D204C6F672057B2
:100B70006573742053656E736F72000D0A323320F3
:100B80002D204C6F6720536F7574682053656E730A
:100B90006F72000D0A3232202D204C6F67204561A4
:100BA00073742053656E736F72000D0A3231202DFD
:100BB000204C6F67204E6F7274682053656E736FA0
:100BC00072000D0A3138202D2053656E6420736148
:100BD0006D706C652073686F74207265636F7264EA
:100BE000000D0A3137202D2044756D70204E6F6E38
:100BF000566F6C000D0A3136202D2057694669204A
:100C000074657374000D0A3135202D2046616365CB
:100C100020737472696B652074657374000D0A31FA
:100C200034202D204C4544206272696768746E65DB
:100C300073732074657374000D0A3133202D2053B3
:100C4000657269616C20706F7274207465737400D2
:100C50000D0A3132202D205472616E736665722048
:100C60006C6F6F706261636B000D0A3131202D2053
:100C700043616C696272617465000D0A3130202D28
:100C80002041757820706F7274207061737374687E
:100C9000726F756768000D0A2038202D2047726931
:100CA000642063616C6962726174696F6E20706147
:100CB000747465726E000D0A2039202D204F6E6508
:100CC0002074696D652063616C6962726174696F1B
:100CD0006E207061747465726E000D0A2038202DCC
:100CE00020477269642063616C6962726174696F24
:100CF0006E207061747465726E000D0A2037202DAD
:100D00002053706972616C20556E6974205465734C
:100D100074000D0A2036202D20416476616E6365D3
:100D2000207061706572206261636B6572000D0AEC
:100D30002035202D204F7363696C6C6F73636F7067
:100D4000652028504329000D0A2034202D204F73A0
:100D500063696C6C6F73636F7065000D0A203320DC
:100D60002D20436F756E7465722076616C756573A6
:100D70002028696E7465726E616C20747269676791
:100D8000657229000D0A2032202D20436F756E7484
:100D900065722076616C756573202865787465725C
:100DA0006E616C207472696767657229000D0A2094
:100DB00031202D204469676974616C20696E7075FB
:100DC0007473000D0A504F5354204C454473000A6D
:100DD0000D000D0A546573742057694669000D0AA9
:100DE000426C696E6B204D6F746F7220447269762D
:100DF000650D0A000D0A45786974696E67206361A4
:100E00006C6962726174696F6E0D0A000D0A4F752C
:100E100074204F6620537065633A20000D0A5365B5
:100E20007474696E67207472697020706F696E7473
:100E30002E20547970652021206F66206379636CC1
:100E40006520706F77657220746F20657869740D06
:100E50000A0020616E676C653A00207261646975F2
:100E6000733A0020793A00783A000D0A526573759A
:100E70006C742073686F756C642062653A20002082
:100E800050415353004232002D2D002000413100CB
:100E90002D2D0020205377697463683A0020205478
:100EA000656D70657261747572653A002020565FD9
:100EB0005265663A0020204661636520537472696A
:100EC0006B653A002E002E00204C617463683A0076
:100ED00041540D0A000D0A54657374204F766572F3
:100EE000000D0A53656E64696E672041540D0A0057
:100EF0000A0D526573657474696E67204553502DF1
:100F00003031000A0D535349443A204645542D00D0
:100F10000A0D4553502D3031206E6F74207072656C
:100F200073656E742E20436F6E74696E75696E679B
:100F3000207465737420616E7977617900204F6643
:100F40006620004F6E20000D0A416476616E636971
:100F50006E6720706170657220000D0A66616365BE
:100F60005F4953522829007D007B224348414E4E61
:100F7000454C5F4552524F52223A002B2B2B000D0D
:100F80000A2244454C4159223A00222C200D0A00E5
:100F90003A2022000D0A4E616D65730D0A000D0A9C
:100FA000000D0A53656C6620546573743A00205333
:100FB000657474696E672053657269616C204E7543
:100FC0006D62657220746F3A20000D0A5365726974
:100FD000616C204E756D6265723F20286578203205
:100FE000323321206F7220782929002054657374D0
:100FF00020436F6D706C6574650D0A002D20002B09
:1010000020000D0A2054657374696E67206D6F743B
:101010006F7220647269766520000D0A446F6E65F8
:101020000D0A0020000D0A0020000D0A002E000D00
:101030000A526573657420746F20666163746F7201
:10104000792064656661756C74732E2054686973C9
:10105000206D61792074616B652061207768696C0F
:10106000650D0A000D0A557365207B22494E4954CF
:10107000223A313233347D0D0A000A0D5665726909
:101080006679206669726D77617265000D0A446F3A
:101090006E650D0A000A0D5570646174696E6720F3
:1010A0006C65676163792070657273697374656ECE
:1010B000742073746F72616765000D0A5265616414
:1010C000696E67204E4F4E564F4C007D007B224389
:1010D00048414E4E454C5F434C4F5345223A007DAC
:1010E000007B224348414E4E454C5F53544152547D
:1010F000223A0000002100240027002A002D0030A1
:1011000000330001010000040107010A0100002270
:1011100000250028002B002E0031003400020100C1
:1011200000050108010B0100002000230026002912
:10113000002C002F0032000001000003010601090D
:101140000105050505070508080808020202020A4C
:101150000A0808040404040101010101010101035A
:1011600003030303030303040707070C0C0C0C0C15
:101170000C0C0C0202020206060606060606060B08
:101180000B0B0B0B0B0B0B0102102020080810207F
:101190004010204080020102010804020101020403
:1011A00008102040808040201008040201800402C2
:1011B0000180402010080402010804020101020419
:1011C0000810204080010204081020408000000A1E
:1011D0000B02090C0D0E08070304010000000000BB
:1011E00000000000000000000000000000000000FF
:1011F00000000000000000000012111000000000BC
:1012000000000000000000000000000000000000DE
:101210000000000D0A000D0A000D0A0D0A20202A08
:101220002A2A204750494F202A2A2A000D0A000D59
:101230000A007D2E20557365000D0A0D0A43616E6C
:101240006E6F74206465636F64653A207B0020567E
:1012500065726966793A0020697320696E707574E9
:10126000206F6E6C79000D0A000D0A4661636520DF
:10127000537472696B652E2E2E0D0A000D0A52658D
:10128000647563696E672E2E2E000D0A54726967AD
:101290006765723A20000D0A7B20224661756C74E6
:1012A000223A20225745535422207D000D0A7B20EC
:1012B000224661756C74223A2022534F55544822BD
:1012C000207D000D0A7B20224661756C74223A2035
:1012D000224541535422207D000D0A7B2022466185
:1012E000756C74223A20224E4F52544822207D00C1
:1012F0000D0A0A57616974696E672E2E2E002079D7
:101300003A000A0D783A002064793A002064783A6D
:10131000002064697374616E63653A000A0D776832
:101320006963685F6F6E653A002064793A002064F3
:10133000783A002064697374616E63653A000A0D3F
:1013400077686963685F6F6E653A000A0D6E65774E
:101350005F74617267657420783A000D0A53656E98
:1013600064696E67207468652073636F726500201E
:1013700079733A00202078733A0020726F74617498
:10138000696F6E3A0020793A002020783A00206197
:101390006E676C655F413A002073696E3A200020E9
:1013A000636F733A0020633A00202062653A0020A0
:1013B00061653A002020623A0020613A000D0A6916
:1013C0006E6465783A000A0A556E6B6E6F776E2010
:1013D000526F746174696F6E3A00206E6F206461A1
:1013E0007461000D0A53656E736F723A20002065B8
:1013F00072726F723A0020657374696D6174653A38
:10140000002020795F6176673A000D0A785F617687
:10141000673A000D0A657374696D6174653A20005E
:1014200020003A000D0A4D6963726F7365636F6E39
:101430006473200020000D0A436F756E74732020C2
:1014400020202020200020206C6F636174696F6E63
:101450003A000D0A5265666572656E63653A200052
:1014600020000D0A000D0A7A5F6F66667365745F6F
:10147000636C6F636B3A000D0A636F6D7075746512
:101480005F68697428290020636F756E747300208B
:1014900020576F72737420636173652064656C619B
:1014A000793A20006D6D2F7573000D0A53706565D4
:1014B00064206F6620736F756E643A200000F24AF4
:1014C00011241FBECFEFD1E2DEBFCDBF00E00CBFC5
:1014D00010E1A0E0B2E0E6E5FCEB00E00BBF02C0EB
:1014E00007900D92AA33B107D9F725E1AAE3B0E13D
:1014F00001C01D92A937B207E1F71AE0C0E6DAE0B1
:1015000000E006C021970109802FFE010E94395B8F
:10151000CF35D10780E00807A9F70E94774B0C94DC
:10152000295E0C940000FC01A089B18982E08C93B3
:10153000A485B5851C92A685B78580E18C93108E15
:10154000A489B58986E08C93A289B3898C91806146
:101550008C93A289B3898C9188608C93A289B3897A
:101560008C9180688C930288F389E02D80818F7D37
:1015700080830895AF92BF92CF92DF92EF92FF9255
:101580000F931F93CF93DF936C017B018B01040FAB
:10159000151FEB015E01AE18BF08C017D10759F047
:1015A0006991D601ED91FC910190F081E02DC60189
:1015B0001995892B79F7C501DF91CF911F910F9173
:1015C000FF90EF90DF90CF90BF90AF900895FC0117
:1015D000A089B1898C91A689B78982FD0FC09C91A1
:1015E000818D8F5F8F73228D821749F0A18DAE0F91
:1015F000BF2FB11D5D969C93818F08958C910895A6
:10160000FC01538D448D252F30E0842F90E0821B08
:10161000930B541710F0CF96089501970895FC018D
:10162000918D828D981761F0A28DAE0FBF2FB11DE5
:101630005D968C91928D9F5F9F73928F90E008953D
:101640008FEF9FEF0895FC01918D828D981731F0F7
:10165000828DE80FF11D858D90E008958FEF9FEF4B
:101660000895FC01918D228D892F90E0805C9F4F21
:10167000821B91098F739927089584E993E10E9451
:10168000310B21E0892B09F420E0822F089581E3BA
:1016900094E10E94310B21E0892B09F420E0822F94
:1016A00008958EEC94E10E94310B21E0892B09F41E
:1016B00020E0822F0895FC01A48DA80FB92FB11D41
:1016C000A35ABF4F2C91848D90E001968F73992778
:1016D000848FA689B7892C93A089B1898C91837056
:1016E00080648C93938D848D981306C00288F3894F
:1016F000E02D80818F7D80830895EF92FF920F937C
:101700001F93CF93DF93EC0181E0888F9B8D8C8DAD
:1017100098131AC0E889F989808185FF15C09FB7A1
:10172000F894EE89FF896083E889F9898081837064
:10173000806480839FBF81E090E0DF91CF911F9113
:101740000F91FF90EF900895F62E0B8D10E00F5F34
:101750001F4F0F731127E02E8C8D8E110CC00FB60A
:1017600007FCFACFE889F989808185FFF5CFCE01A2
:101770000E945B0BF1CFEB8DEC0FFD2FF11DE35AB7
:10178000FF4FF0829FB7F8940B8FEA89FB89808125
:101790008062CFCFEF92FF920F931F93CF93DF938F
:1017A0008C017B01D0E0C0E0F701EC0FFD1F6491DC
:1017B000662339F0C8010E947D0B892B11F0219618
:1017C000F3CFCE01DF91CF911F910F91FF90EF905A
:1017D00008950C947D0BCF93DF93EC01888D8823C3
:1017E000B9F0AA89BB89E889F9898C9185FD03C084
:1017F000808186FD0DC00FB607FCF7CF8C9185FF69
:10180000F2CF808185FFEDCFCE010E945B0BE9CF47
:10181000DF91CF91089580E090E0892B29F00E941C
:10182000510B81110E94000080E090E0892B49F06B
:1018300080E090E0892B29F00E94000081110E9435
:10184000000080E090E0892B29F00E94470B811175
:101850000E94000080E090E0892B29F00E943D0B5F
:1018600081110C94000008958150823108F05AC013
:10187000E82FF0E08827E05CF34F8F4F0C94395B42
:10188000600C640C520C580C5C0C920C670C6D0CC8
:10189000710C770C7B0C7F0C850C890C920C8D0CD9
:1018A000930C970C809180008F778093800008952F
:1018B000809180008F7DF9CF80918000877FF5CF68
:1018C00084B58F7784BD089584B58F7DFBCF8091DB
:1018D000B0008F778093B00008958091B0008F7D25
:1018E000F9CF809190008F77809390000895809138
:1018F00090008F7DF9CF80919000877FF5CF809108
:10190000A0008F778093A00008958091A0008F7D24
:10191000F9CF8091A000877FF5CF809120018F774C
:10192000809320010895809120018F7DF9CF8091CF
:101930002001877FF5CFCF93DF93282F30E0F90187
:10194000E353FE4E8491F901E957FE4ED491F9011B
:10195000EF5BFE4EC491CC23A1F081110E94340CA8
:10196000EC2FF0E0EE0FFF1FE95DFE4EA591B49164
:10197000EC91ED2381E090E009F480E0DF91CF91DC
:10198000089580E090E0FACF1F93CF93DF93282F44
:1019900030E0F901E353FE4E8491F901E957FE4E20
:1019A000D491F901EF5BFE4EC491CC23A9F0162F20
:1019B00081110E94340CEC2FF0E0EE0FFF1FE35F6B
:1019C000FE4EA591B4918FB7F894EC91111108C017
:1019D000D095DE23DC938FBFDF91CF911F910895C7
:1019E000DE2BF8CFCF93DF9390E0FC01E957FE4E5A
:1019F00024918F5B9E4EFC0184918823C9F090E076
:101A0000880F991FFC01ED50FF4EA591B491FC0188
:101A1000E35FFE4EC591D49161110DC09FB7F8945C
:101A20008C91209582238C938881282328839FBFC3
:101A3000DF91CF910895623051F49FB7F8943C91B3
:101A4000822F809583238C93E8812E2BEFCF8FB745
:101A5000F894EC912E2B2C938FBFEACF1F93CF934A
:101A6000DF93182FEB0161E00E94F20C209739F40C
:101A700060E0812FDF91CF911F910C94C40CCF3F78
:101A8000D10511F461E0F5CFE12FF0E0E353FE4E14
:101A9000E491E150E23108F0B3C0F0E08827EC5A5D
:101AA000F24F8F4F0C94395B660D6E0D730D7D0DEB
:101AB000870D000E910D990DA10DAB0DB50DBF0D4C
:101AC000CE0DD80D000EE20DEC0DF60D84B580683C
:101AD00084BDC7BDDF91CF911F91089584B5806209
:101AE00084BDC8BDF7CF809180008068809380005E
:101AF000D0938900C0938800EDCF809180008062F0
:101B000080938000D0938B00C0938A00E3CF8091B4
:101B10008000886080938000D0938D00C0938C00FB
:101B2000D9CF8091B00080688093B000C093B3009B
:101B3000D1CF8091B00080628093B000C093B40098
:101B4000C9CF80919000806880939000D0939900D5
:101B5000C0939800BFCF80919000806280939000E6
:101B6000D0939B00C0939A00B5CF8091900088607D
:101B700080939000D0939D00C0939C00ABCF809148
:101B8000A00080688093A0008091A0008F7B80934C
:101B9000A000D093A900C093A8009CCF8091A00082
:101BA00080628093A000D093AB00C093AA0092CF34
:101BB0008091A00088608093A000D093AD00C09376
:101BC000AC0088CF80912001806880932001D09361
:101BD0002901C09328017ECF8091200180628093EB
:101BE0002001D0932B01C0932A0174CF8091200152
:101BF000886080932001D0932D01C0932C016ACF7F
:101C0000C038D1050CF03ECF33CF863308F0865371
:101C100020917B00982F9870277F922B90937B00C8
:101C20008770806480937C0080917A0080648093C8
:101C30007A0080917A0086FDFCCF809178009091A7
:101C4000790008953FB7F8948091811190918211A5
:101C5000A0918311B091841126B5A89B05C02F3F98
:101C600019F00196A11DB11D3FBFBA2FA92F982FC2
:101C70008827BC01CD01620F711D811D911D42E0BD
:101C8000660F771F881F991F4A95D1F708958F9285
:101C90009F92AF92BF92CF92DF92EF92FF926B0131
:101CA0007C010E94220E4B015C01C114D104E104AD
:101CB000F104B9F00E94220E681979098A099B097A
:101CC000683E73408105910580F321E0C21AD10876
:101CD000E108F10888EE880E83E0981EA11CB11C73
:101CE000E4CFFF90EF90DF90CF90BF90AF909F90A8
:101CF0008F9008952FB7F89460917D1170917E11A7
:101D000080917F11909180112FBF089508952091A7
:101D10003011260F3327331F21323105ECF4209187
:101D20005611FC0190E080E0243069F082E00895D3
:101D3000A09130112191AC01425F5E4EA40FB52FEE
:101D4000B11D2C930196861798F380913011680F7E
:101D50006093301180E0089581E00895109256114B
:101D600081E0809358111092571161E084E10E9444
:101D7000C40C61E085E10E94C40CE9EBF0E08081D5
:101D80008E7F808380818D7F808388E48093B800FC
:101D900085E48093BC000895CF93DF9391E0909306
:101DA0000D118823B9F0C091B800D091BA0080918C
:101DB000BC008A7B8093BC0060E084E10E94C40C7C
:101DC00060E085E10E94C40C0E94AE0ED093BA0080
:101DD000C093B800DF91CF910895089508950895B4
:101DE000E091051180910411E81730F4F0E0EC5116
:101DF000FF4E808190E008958FEF9FEF08959091BE
:101E00000511809104112FEF3FEF981748F4E92F47
:101E1000F0E0EC51FF4E208130E09F5F9093051180
:101E2000C90108958091041190910511891B990BA6
:101E30000895CF92DF92EF92FF920F931F93CF936B
:101E4000DF937C01CB018A012091E310222389F0EA
:101E5000EB016B01C40ED51ECC15DD0569F069914F
:101E6000D701ED91FC910190F081E02DC70119950A
:101E7000F3CF642F0E94870EC801DF91CF911F918D
:101E80000F91FF90EF90DF90CF900895CF93DF9365
:101E90001F92CDB7DEB769832091E3102223F9F0BA
:101EA00020910611203258F021E030E0FC0133830C
:101EB000228390E080E00F90DF91CF910895809190
:101EC0000711E82FF0E0ED53FF4E998190838F5F6B
:101ED000809307118093061181E090E0ECCF61E0E0
:101EE000CE0101960E94870EF7CF90E080E0089522
:101EF000DC01FB01CF01861B970B3D912191332320
:101F000039F0222339F03217A9F38FEF9FEF02C087
:101F10002111FBCF089581E08093AA128091931341
:101F2000882331F06AE57FE08EEC94E10E94CA0BD1
:101F3000F89408950F931F93CF93DF938B01EA01D9
:101F400081309105F1F09CF4892BB1F0013011053D
:101F500029F1CCF4012BE9F0C130D10571F104F580
:101F6000CD2B19F1DF91CF911F910F9108958A32F6
:101F7000910539F08E9751F761E084E00E94C40C1E
:101F8000E5CF60E0FACF0A32110541F00E321105BB
:101F900019F761E083E00E94C40CDECF60E0FACF65
:101FA000CA32D10551F0AE97E9F661E082E0DF91E7
:101FB000CF911F910F910C94C40C60E0F7CFAF92BA
:101FC000BF92CF92DF92EF92FF920F931F93CF9326
:101FD000DF93C3E0D0E07C0121E0E222FF248C010A
:101FE00002701127809590956C0121E0C222DD24BA
:101FF0005C0122E0A222BB24A701B80190E080E0AE
:102000000E949A0F6AEF70E080E090E00E94470E15
:10201000A601B50184E090E00E949A0F6AEF70E09B
:1020200080E090E00E94470E219731F7DF91CF9139
:102030001F910F91FF90EF90DF90CF90BF90AF90E6
:10204000089560E085E30E94C40C61E085E30E948E
:10205000C40C60E085E30C94C40C60E084E30E944F
:10206000C40C60E08DE10C94C40C60E085E30E9438
:10207000C40C60E084E30E94C40C60E088E20E942B
:10208000C40C61E08DE10E94C40C60E087E20E9414
:10209000C40C61E087E20E94C40C61E084E30C940C
:1020A000C40CCF93DF9389E10E949B0C31E020E0C8
:1020B000019709F030E0C32FD22F8AE10E949B0CD8
:1020C000019709F422968BE10E949B0C019709F479
:1020D00024968CE10E949B0C019709F42896CE016E
:1020E000DF91CF9108950F931F93CF93DF930EEE5F
:1020F00012E090E080E0EC01CC0FDD1FF801808160
:102100000E5F1F4F0E949B0C817099278C2B9D2B7B
:10211000F2E00E3F1F0779F79927DF91CF911F91CA
:102120000F910895FF920F931F93CF93DF93EC01CC
:102130000EEF12E0F80180810E5F1F4F61E00E94F8
:10214000C40CF3E00E301F07A9F761E088E20E949B
:10215000C40CCC0FDD1FFE01EE0FFF1FE250FD4F40
:10216000108160E0812F0E94C40C0E947310F82E31
:1021700061E0812F0E94C40CCC0FDD1FC050DD4FE9
:10218000C88160E08C2F0E94C40C0E9473108C01E7
:1021900061E08C2F0E94C40C80E09F2D800F911F66
:1021A000DF91CF911F910F91FF900895CF93DF930F
:1021B00090E080E00E949210CDE7D3E1B0E0A0E093
:1021C00088839983AA83BB8381E090E00E94921068
:1021D000B0E0A0E08C839D83AE83BF8382E090E07B
:1021E0000E949210B0E0A0E088879987AA87BB87F9
:1021F00083E090E00E949210B0E0A0E08C879D8781
:10220000AE87BF87DF91CF9108958091B81081117B
:1022100006C08091B910811102C08091BA10089552
:10222000CF92DF92EF92FF92CF93DF930E94220E24
:102230006B017C01D0E0C0E00E94220E6C197D0988
:102240008E099F09603472448F409105F0F484E94F
:1022500093E10E94310B892B79F384E993E10E9489
:102260000F0B219741F021E090E08F3409F020E03E
:10227000C22FD92FE1CF8B34E9F681E0DF91CF91E6
:10228000FF90EF90DF90CF90089580E0F7CF84E942
:1022900093E10E94310B892B29F084E993E10E949C
:1022A0000F0BF5CF089580910202811103C0809138
:1022B000611008950E94471160ED7EE084E993E18A
:1022C0000E94CA0B0E9410118093611010920202AA
:1022D00008950E945311811104C084E993E10C9484
:1022E000310B20916210309163108091B410909165
:1022F000B510821793070CF48096821B930B0895F8
:1023000080919313882331F063EC7DE08EEC94E1AF
:102310000E94CA0B4EE250E06EE270E08AE290E06A
:102320000E949A0F6AEF70E080E090E00E94470EF2
:102330004EE250E06AE270E08EE290E00E949A0F76
:102340006AEF70E080E090E00E94470E4AE250E0C1
:102350006EE270E08EE290E00E949A0F6AEF70E009
:1023600080E090E00E94470E4EE250E06EE270E0A6
:102370008EE290E00C949A0F85E00E94050E97FD86
:10238000CF96FC0186E0F595E7958A95E1F7EE0F8B
:10239000FF1FEF58FD4F808191818536910510F424
:1023A0008CE291E00895882349F00E94BC118C32A0
:1023B000914048F460E082E10C94C40C0E94BC118E
:1023C0008C329140B8F761E0F6CF0F931F93CF9313
:1023D000DF930E94BC118C32914080F589E00E940D
:1023E0009B0C8C018AE00E949B0CEC01CC0FDD1F42
:1023F000C00FD11F8BE00E949B0C880F991F880F84
:10240000991FC80FD91F8CE00E949B0C9C0183E090
:10241000220F331F8A95E1F72C0F3D1F2095309531
:102420002F7033278091641090916510806F822BFC
:10243000932BDF91CF911F910F9108958CE00E9413
:102440009B0C8C018BE00E949B0CEC01CC0FDD1FE0
:10245000C00FD11F8AE00E949B0C880F991F880F24
:10246000991FC80FD91F89E0CFCF0E94BC118C32B1
:10247000914038F0EA9886E89EE0909312028093AB
:1024800011020895892B99F00E94BC118C32914061
:1024900080F08BE89FE0909312028093110280916C
:1024A00069008F7C806180936900EA9A08950C949A
:1024B000351208950E942D100E94351081E090E0A1
:1024C0000E9442121092AA1281E090E00C944212F3
:1024D0008EEC94E10E94310B892B29F08EEC94E173
:1024E0000E940F0B08950E946911892BF9F00E9438
:1024F0005311811103C084E993E1F2CF209162105E
:10250000309163108091B4109091B51082179307A9
:10251000B1F0F901EC56FF4E80812F5F3F4F2F71D4
:1025200033273093631020936210089581E394E180
:102530000E94310B892B29F081E394E1D1CF8FEFF9
:10254000089580E00895FB0101900020E9F731979C
:10255000AF01461B570B0C94BA0A8F929F92AF9211
:10256000BF920F931F93CF93DF93CDB7DEB7A197A1
:102570000FB6F894DEBF0FBECDBF19A2423008F4EB
:102580004AE08E010F5D1F4F842E912CB12CA12C9F
:10259000A50194010E943058E62FB901CA01EA3022
:1025A00004F5E05DD801EE938D01232B242B252B20
:1025B00079F790E080E0109729F0BD018EEC94E16E
:1025C0000E94A312A1960FB6F894DEBF0FBECDBF36
:1025D000DF91CF911F910F91BF90AF909F908F90FF
:1025E0000895E95CDFCF462FBC0190E080E00C94B9
:1025F000AD128F929F92AF92BF92EF92FF920F9384
:102600001F93CF93DF939091941280919512C09174
:102610009212D0919312209711F4C92FD82F0091C4
:102620006610109167100115110511F401E010E01A
:10263000209709F443C080919313882331F067E415
:102640007FE08EEC94E10E94CA0B8AE08C9F4001EF
:102650008D9F900C1124B12CA12CF12CE12C81E048
:102660000E94D31180919313882359F063E47FE093
:102670008EEC94E10E94CA0B6AE070E0CE010E94E9
:10268000F312C501B4010E94470E80E00E94D311ED
:1026900080919313882331F06DE37FE08EEC94E119
:1026A0000E94CA0B6AE070E080E090E00E94470E52
:1026B0008FEFE81AF80AE016F10689F6DF91CF915C
:1026C0001F910F91FF90EF90BF90AF909F908F90D0
:1026D00008958F929F92AF92BF92CF92DF92EF9226
:1026E000FF92CF93DF936B017C01AC019B010E94B1
:1026F000E35A69ED76E0811126C046015701E8945E
:10270000B7F82FEF3FEF4FE75FE7C501B4010E9435
:10271000E35A81110CC02FEF3FEF4FE75FE7C50190
:10272000B4010E94C1566DED76E0181664F02FEFEB
:102730003FEF4FE75FE4C701B6010E94845A1816C5
:1027400084F461EE76E08EEC94E1DF91CF91FF901E
:10275000EF90DF90CF90BF90AF909F908F900C94B0
:10276000A3122FEF3FEF4FE75FECC701B6010E94C6
:10277000C15687FDE6CF20E030E0A901C701B601D0
:102780000E94C156D0E0C0E087FF0AC06DE28EEC27
:1027900094E10E94E90BEC01F7FAF094F7F8F09459
:1027A0002AE037ED43EA5BE3C701B6010E947358A4
:1027B0004B015C010E94CF596B017C010E94C656FF
:1027C0009B01AC01C501B4010E9472584B015C0130
:1027D0004AE0C701B6010E94AD12C80FD91F6EE2D0
:1027E0008EEC94E10E94E90BC80FD91F20E030E085
:1027F00040E251E4C501B4010E9427574B015C013E
:102800000E94CF596B016AE070E0C6010E94F3128A
:10281000C80FD91FB60190E080E00E94C6569B0108
:10282000AC01C501B4010E94725820E030E040E2E2
:1028300051E40E9427570E94CF59CB016AE070E013
:102840000E94F3128C0F9D1FDF91CF91FF90EF90AC
:10285000DF90CF90BF90AF909F908F9008956115BB
:10286000710511F00C94A31290E080E00895EF92AE
:10287000FF920F931F93CF93DF93892B59F564E950
:102880007FE08EEC94E10E94CA0B88E6E82E86E099
:10289000F82ED0E0C0E0F701019111917F01011500
:1028A0001105C1F06AE070E0CE010E94F31260E908
:1028B0007FE08EEC94E10E94CA0BB8018EEC94E1AB
:1028C0000E942F146AE87FE08EEC94E10E94CA0B0C
:1028D0002196E1CFDF91CF911F910F91FF90EF9063
:1028E0000895CF92DF92EF92FF920E9447110E94CB
:1028F0005311811106C060E17FE08EEC94E10E94EB
:10290000CA0B63E07FE08EEC94E10E94CA0BE09179
:10291000BF12F091C012EE0FFF1FE859F94F60810E
:1029200071818EEC94E10E942F1460EF7EE08EECBA
:1029300094E10E94CA0B65EE76E084E993E10E947F
:102940002F1468EE73E080E090E00E94470E69EE7D
:1029500076E084E993E10E942F1461EE7EE08EEC34
:1029600094E10E94CA0B62EF76E084E993E10E9451
:102970002F140E94220E6B017C010E94220E6C1902
:102980007D098E099F0960347B448C44910580F455
:1029900084E993E10E94310B892B79F384E993E177
:1029A0000E940F0B682F8EEC94E10E94E90BE5CF9B
:1029B00065ED7EE08EEC94E1FF90EF90DF90CF909C
:1029C0000C94CA0BCF92DF92EF92FF92CF93DF93DA
:1029D0006C01990FEE08FF08F7FE19C06DE28EEC4E
:1029E00094E10E94E90BEC0166277727CB016C1973
:1029F0007D098E099F094AE00E94AD128C0F9D1F30
:102A0000DF91CF91FF90EF90DF90CF9008954AE053
:102A1000C701B601DF91CF91FF90EF90DF90CF908B
:102A20000C94AD12CF93DF93EC016FE77FE08EEC57
:102A300094E10E94CA0BCE010E94E21488EE93E05A
:102A4000C89FB001C99F700DD89F700D1124072E2B
:102A5000000C880B990BDF91CF910C94470EEF92ED
:102A6000FF920F931F93CF93DF938C018091931369
:102A70008823B9F062E978E08EEC94E10E94CA0BF9
:102A8000C8010E94E2146FE778E08EEC94E10E94A6
:102A9000CA0B6AE070E080914A1090914B100E943E
:102AA000F3120B3A110561F480914A1090914B108A
:102AB0000091B7121091B812892B11F010E000E0CC
:102AC00084E6E82EF12CC0914A10D0914B100C17DF
:102AD0001D07C9F09C2F80E0B7010E94115B85E0C3
:102AE0000E942E0D0C171D0760F42197D0934B10F8
:102AF000C0934A1064E170E080E090E00E94470ECD
:102B0000E2CF2196F3CF012B51F460E085E0DF9115
:102B1000CF911F910F91FF90EF900C94C40CDF9117
:102B2000CF911F910F91FF90EF900895CF93DF9376
:102B300020914A1030914B108217930759F1EC0104
:102B4000809193138823B9F06CE678E08EEC94E1E1
:102B50000E94CA0BCE010E94E21469E578E08EEC77
:102B600094E10E94CA0B6AE070E080914A10909153
:102B70004B100E94F312D0934B10C0934A109C2F1D
:102B800080E064E670E00E94115B85E0DF91CF9108
:102B90000C942E0DDF91CF910895CF92DF92EF929A
:102BA000FF920F931F93CF93DF9381E08093E31005
:102BB0008FE480934C10109207111092061160E080
:102BC0008BE695E10E94460FC0910611C13208F0D4
:102BD00091C00E94220E6B017C01809156118111DF
:102BE00064C082E08093561181E0809358118FEF8A
:102BF0008093551110927A11C0937911A3ECB0E132
:102C0000E9E5F1E180E0C813E8C010927B11809102
:102C10007B118E6980937B1180915711813009F06F
:102C2000E0C0109257110E94220E6B017C0180912E
:102C30007B118093BB008091091190910A11A091A2
:102C40000B11B0910C11892B8A2B8B2B99F00E94C0
:102C5000220E0091091110910A1120910B1130914F
:102C60000C116C197D098E099F0906171707280793
:102C70003907E0F18091BC0083FDD9CF85EC8093CA
:102C8000BC000E94220E6B017C01809156118230A3
:102C900009F4A9C0809155118F3F61F180915511C0
:102CA000803241F18091551125C080910911909198
:102CB0000A11A0910B11B0910C11892B8A2B8B2B2F
:102CC00009F48BCF0E94220E0091091110910A1174
:102CD00020910B1130910C116C197D098E099F09FF
:102CE000061717072807390708F077CF80910811D2
:102CF0000E94CC0E10920711109206111092E31050
:102D00000E94220E6B017C018091561181118DC0B1
:102D100081E080935611809358119FEF9093551145
:102D200010927A118093791180937B1180917B119D
:102D30008E6980937B1180915711813009F0C6C054
:102D4000109257110E94220E6B017C0180917B1121
:102D50008093BB008091091190910A11A0910B11F1
:102D6000B0910C11892B8A2B8B2BA1F00E94220E83
:102D70000091091110910A1120910B1130910C1141
:102D80006C197D098E099F0906171707280739074F
:102D900008F46CC08091BC0083FDD8CF85EC809393
:102DA000BC000E94220E6B017C0180915611813083
:102DB00009F48EC080917A11823008F0ABC0809106
:102DC0007A11A9E5B1E1E4EEF0E190E0981709F499
:102DD00052C02D9121939F5FF9CF9D9191938F5F69
:102DE00012CF85EE4CCF8091091190910A11A091DC
:102DF0000B11B0910C11892B8A2B8B2B09F445CF29
:102E00000E94220E0091091110910A1120910B11BC
:102E100030910C116C197D098E099F09061717074F
:102E20002807390708F031CF61CF809109119091BF
:102E30000A11A0910B11B0910C11892B8A2B8B2BAD
:102E400009F462CF0E94220E0091091110910A111B
:102E500020910B1130910C116C197D098E099F097D
:102E6000061717072807390708F04ECF8091081179
:102E70000E94CC0E80E010920511809304118BE625
:102E800095E10E94FF0ED82F80E0C82F8BE695E1D8
:102E90000E94FF0EBE01680F791F660F672F661F25
:102EA000770B072E000C880B990B0E94C85620E068
:102EB00030E040E05FE30E942757DF91CF911F9100
:102EC0000F91FF90EF90DF90CF90089585EE67CF40
:102ED0008091091190910A11A0910B11B0910C11E0
:102EE000892B8A2B8B2B09F460CF0E94220E009134
:102EF000091110910A1120910B1130910C116C19CC
:102F00007D098E099F09061717072807390708F05A
:102F10004CCFACCF82E055CFEF92FF920F931F932F
:102F2000CF93DF938C0168EC7EE08EEC94E10E94FD
:102F3000CA0BD0E0C0E0EE24E394F12CC7010C2EC4
:102F400002C0880F991F0A94E2F780239123892BEE
:102F500009F4A1C0FE01E855F94F60818EEC94E1BF
:102F60000E94E90B2196C430D10541F767EF76E066
:102F70008EEC94E10E942F14CDE7D3E188EAE82E8D
:102F800086E0F82E89919991A991B991892B8A2B84
:102F90008B2B09F487C0F70160818EEC94E10E94CD
:102FA000E90BFFEFEF1AFF0A23E1CD38D20751F703
:102FB00065EB7EE08EEC94E10E94CA0B8091AA1230
:102FC00090E00E94E2146CEA7EE08EEC94E10E94B4
:102FD000CA0B80E00E94050EBC01990F880B990B6B
:102FE0000E94C85620E030E040EA50E40E94275793
:102FF00020E030E040E85AE30E9427570E9469131E
:103000006DE97EE08EEC94E10E94CA0B0E94CD1522
:103010000E94691363E97EE08EEC94E10E94CA0B82
:103020008BE00E949B0C60E97EE0892B11F46DE837
:103030007EE08EEC94E10E94CA0B6BE87EE08EECA1
:1030400094E10E94CA0B8AE00E949B0C68E87EE033
:10305000892B11F465E87EE08EEC94E10E94CA0BA6
:103060000F7011270F30110521F58091AA128823C6
:1030700001F16FE77EE08EEC94E10E94CA0B68EEEE
:1030800073E080E090E0DF91CF911F910F91FF906E
:10309000EF900C94470E66EC7EE08EEC94E10E947B
:1030A000CA0B60CF64EC7EE08EEC94E10E94CA0B08
:1030B00078CFDF91CF911F910F91FF90EF900895FE
:1030C0004F925F926F927F928F929F92AF92BF9238
:1030D000CF92DF92EF92FF926B017C0123E333E901
:1030E00048E853E40E94735823E333E948E853E483
:1030F0000E9456590E949F5A4B015C0121ED3BE30F
:1031000044E459E3C701B6010E9427579B01AC0173
:1031100061EE70E48DE09DE30E9472582B013C014A
:10312000A7019601C701B6010E9427572DEE39EE7F
:1031300047E759E30E9427579B01AC01C301B20145
:103140000E94735820E030E040EA50E40E94275784
:103150006B017C0126E636EA45EA53E4C501B40179
:103160000E9427579B01AC01C701B6010E9473580A
:1031700020E030E04AE754E40E94275720E034E2A0
:1031800044E759E40E9456596B017C0180919313E6
:10319000882381F16AEA74E18EEC94E10E94CA0B03
:1031A000C701B6010E94691364EA74E18EEC94E1F0
:1031B0000E94CA0B6FE874E18EEC94E10E94CA0B86
:1031C000A70196016091690270916A0280916B0279
:1031D00090916C020E94565920E030E040E051E4AA
:1031E0000E9427570E94691367E874E18EEC94E10E
:1031F0000E94CA0BC701B601FF90EF90DF90CF90FD
:10320000BF90AF909F908F907F906F905F904F9006
:1032100008958F929F92AF92BF92CF92DF92EF92DA
:10322000FF92CF93DF930E94CD150E9460186B012F
:103230007C01C0928D13D0928E13E0928F13F09286
:103240009013C1EDD2E119821882609192107091B1
:103250009310072E000C880B990B0E94C856A701EB
:1032600096010E94565920E030E040E051E40E946F
:1032700027576B877C878D879E8720E030E040E072
:103280005FE36091690270916A0280916B02909194
:103290006C020E9427574B015C0160919010709165
:1032A0009110072E000C880B990B0E94C856A5019F
:1032B00094010E947358A70196010E94565920E07C
:1032C00030E040E051E40E9427576F87788B898B6C
:1032D0009A8B81E090E09CA78BA760918E107091F3
:1032E0008F10072E000C880B990B0E94C856A50161
:1032F00094010E947358A70196010E94565920E03C
:1033000030E040E051E40E9427576EAB7FAB88AFBE
:1033100099AF60918C1070918D10072E000C880B66
:10332000990B0E94C85620E030E0A9010E94735812
:10333000A70196010E94565920E030E040E051E498
:103340000E9427576AAF7BAF8CAF9DAF82E090E0C1
:10335000909328138093271360918A1070918B109B
:10336000072E000C880B990B0E94C856A7019601E6
:103370000E94565920E030E040E051E40E94275777
:1033800020E030E0A9010E947358609332137093DB
:103390003313809334139093351360918810709198
:1033A0008910072E000C880B990B0E94C856A501A6
:1033B00094010E9473589058A70196010E94565993
:1033C00020E030E040E051E40E942757609336133C
:1033D00070933713809338139093391383E090E000
:1033E00090935313809352136091861070918710BD
:1033F000072E000C880B990B0E94C856A50194015A
:103400000E9473589058A70196010E94565920E0D7
:1034100030E040E051E40E94275760935D137093C1
:103420005E1380935F13909360136091841070918A
:103430008510072E000C880B990B0E94C856A70117
:1034400096010E94565920E030E040E051E40E948D
:103450002757609361137093621380936313909363
:103460006413DF91CF91FF90EF90DF90CF90BF90EA
:10347000AF909F908F9008952F923F924F925F92BE
:103480006F927F928F929F92AF92BF92CF92DF9274
:10349000EF92FF920F931F93CF93DF93CDB7DEB7D9
:1034A0006F970FB6F894DEBF0FBECDBF8D838091AE
:1034B0009313882331F067E774E18EEC94E10E9466
:1034C000CA0B0E9409196091911370919213072EF3
:1034D000000C880B990B0E94C85620E030E040E0B9
:1034E00051E40E94275720918D1330918E13409103
:1034F0008F13509190130E9456596C877D878E8749
:103500009F8780919313882309F42BC665E674E1A5
:103510008EEC94E10E94CA0B6C857D858E859F851B
:103520000E94691362E674E18EEC94E10E94CA0B7A
:103530002D81211102C00E94D610809193138823FF
:1035400021F14DEA56E05E834D830DE713E1AD8135
:10355000BE816D917D91BE83AD838EEC94E10E941E
:103560002F14F80161917191819191918F014AE03D
:103570000E94AD1260E674E18EEC94E10E94CA0BE9
:103580002D813E81255B364011F760917D1370914E
:103590007E1380917F13909180130E94C656162F40
:1035A000072FF82EE92E31E8C32E33E1D32E1B86E8
:1035B0001A8681E090E09E838D83D6016D917D9186
:1035C0008D919D916D010E94C6564B015C01212F8A
:1035D000302F4F2D5E2D0E94845A181644F4ED8131
:1035E000FE81FB87EA87182D092DFA2CEB2C2D8103
:1035F0003E812F5F3F4F3E832D8324303105E9F616
:10360000809193138823D9F062E574E18EEC94E104
:103610000E94CA0B612F702F8F2D9E2D0E9469135F
:1036200066E474E18EEC94E10E94CA0BEA85FB85A6
:10363000E855F94F60818EEC94E10E94E90B2DE78B
:10364000C22E23E1D22E41ED52E15E834D837724D9
:103650007394D6018D909D90AD90BD906D01C50184
:10366000B4010E94C6569B01AC01612F702F8F2DB3
:103670009E2D0E947258ED81FE81638B748B858B29
:10368000968B89288A288B2809F4AAC27282ED8138
:10369000FE81BB96FE83ED83FDE8CF16F3E1DF06E6
:1036A000C1F680919313882309F465C066E374E141
:1036B0008EEC94E10E94CA0B2DEA36E03E832D8306
:1036C00091EDE92E92E1F92E8901D801ED91FD915C
:1036D0008D0160818EEC94E10E94E90B6DE77DE045
:1036E0008EEC94E10E942F14F70163897489858917
:1036F00096890E94691364E374E18EEC94E10E9460
:10370000CA0BFBE2EF0EF11C26E0053B1207E9F6BF
:1037100064E274E18EEC94E10E94CA0B01ED12E1C7
:10372000AD81BE81ED91FD91BE83AD8360818EEC54
:1037300094E10E94E90B62E274E18EEC94E10E9454
:10374000CA0B20E030E040E05EE3F8016389748951
:10375000858996890E9427570E94691360E274E167
:103760008EEC94E10E94CA0B055D1F4F2D813E81B6
:10377000255B3640A9F681ED92E19E838D83F12C85
:10378000E12C8BE2D82EED81FE8183899489A58975
:10379000B689838F948FA58FB68FFFEFEF1AFF0A3C
:1037A000C70183709927D89E8001D99E100D1124DE
:1037B0000F521D4ED8011B962D913D914D915C915C
:1037C0001E97ED81FE8163857485858596850E94AF
:1037D00072582B013C01D8011F962D913D914D91BE
:1037E0005C915297ED81FE8167857089818992890C
:1037F0000E9472584B015C01A3019201C301B20106
:103800000E9427572B013C01A5019401C501B40179
:103810000E9427579B01AC01C301B2010E9473585B
:103820000E949F5AAD81BE815F966D937D938D936B
:103830009C9392979B96BE83AD83B4E0EB16F10404
:1038400009F0A1CF8091171390911813A09119132B
:10385000B0911A138093E8129093E912A093EA12A0
:10386000B093EB128091421390914313A0914413B3
:10387000B09145138093131390931413A0931513D1
:10388000B093161380916D1390916E13A0916F13E6
:10389000B091701380933E1390933F13A093401305
:1038A000B09341138091EC129091ED12A091EE1221
:1038B000B091EF128093691390936A13A0936B13E6
:1038C000B0936C13C090E412D090E512E090E61231
:1038D000F090E71200910F1310911013E091111363
:1038E000E987F0911213FD839801AF01B601C7017A
:1038F0000E94845A18161CF08601E986FD82C09049
:103900003A13D0903B13E0903C13F0903D13980194
:1039100049855D81B601C7010E94C15687FD03C07C
:103920006801E984FD800091651310916613209170
:1039300067132987309168133D839601A701B80169
:1039400089859D810E94C15687FD03C08601E98655
:10395000FD82980149855D816091F0127091F112AC
:103960008091F2129091F3120E94725820E030E0A0
:1039700040E85FE30E947358362E272E8987092F6F
:1039800080919313882361F063E174E18EEC94E1FC
:103990000E94CA0B632D722D8985902F0E94691396
:1039A00045E150E0598F488F2BE2AA85BB852A9FBD
:1039B000C0012B9F900D11248F529D4EFC013B9610
:1039C000FB8FEA8F9C01215F3F4F3D8F2C8F41ED94
:1039D00052E15F8F4E8F1C8A1D8A1E8A1F8A188AA9
:1039E000198A1A8A1B8A10919313AE8DBF8D129675
:1039F0008C9181110BC11123A1F063EE73E18EEC68
:103A000094E10E94CA0B6AE070E0EE8DFF8D808128
:103A100091810E94F3126AED73E18EEC94E10E94B1
:103A2000CA0B2E8D3F8D255D3F4F3F8F2E8F2D571B
:103A30003341C9F620E030E040E85EE368897989E7
:103A40008A899B890E9427576D837E838F839887FD
:103A500020E030E040E85EE36C897D898E899F89B3
:103A60000E9427572B013C012D813E814F815885B3
:103A7000AA8DBB8D6D917D918D919C910E94725804
:103A80004B015C01A3019201EC8DFD8D6081718180
:103A9000828193810E9472586B017C01A50194017F
:103AA000C501B4010E9427574B015C01A701960193
:103AB000C701B6010E9427579B01AC01C501B401A3
:103AC0000E9473580E949F5AB62E788B8C8B192FA8
:103AD000262F372F482F592F632D722D8985902F30
:103AE0000E9472586B017C0120E030E0A9010E9425
:103AF000845A181624F0F7FAF094F7F8F0948091AD
:103B00009313882391F16AE074E18EEC94E10E94B2
:103B1000CA0B6D817E818F8198850E94691361E057
:103B200074E18EEC94E10E94CA0BC301B2010E94C1
:103B3000691366EF73E18EEC94E10E94CA0B6B2D62
:103B400078898C89912F0E9469136EEE73E18EEC57
:103B500094E10E94CA0BC701B6010E94691366E98D
:103B600078E08EEC94E10E94A312288D398D2150CB
:103B70003109398F288F232BC1F51092C41210926E
:103B8000C3128D819E81AF81B8858093C5129093B9
:103B9000C612A093C712B093C8124092C912509295
:103BA000CA126092CB127092CC128A859B856F9656
:103BB0000FB6F894DEBF0FBECDBFDF91CF911F913E
:103BC0000F91FF90EF90DF90CF90BF90AF909F90BC
:103BD0008F907F906F905F904F903F902F900895BF
:103BE000AD81BE8112961C9252CD2FE632E143E8A0
:103BF0005AE3C701B6010E94845A18160CF0BDCFD3
:103C00003B2C28883C893987012FE1CEAE8DBF8DB2
:103C100057962D913D914D915C915A97632D722D40
:103C20008985902F0E9473584B015C012C853D853E
:103C30004E855F85CA01B9010E9427576B017C013F
:103C4000A5019401C501B4010E942757A70196015F
:103C50000E9472580E949F5A6D837E838F8398873B
:103C6000EE8DFF8D238D348D458D568D632D722DF8
:103C70008985902F0E9473589B01AC010E942757A1
:103C8000A70196010E9472580E949F5A6B017C0105
:103C9000AE8DBF8D5F968D909D90AD90BC909297AC
:103CA000AC019B016D817E818F8198850E94735844
:103CB000A50194010E94C15687FF29C0EE8DFF8D9A
:103CC0001382148215821682EE8DFF8D8081918180
:103CD0008130910509F494C108F45CC082309105EB
:103CE00009F4D7C1039709F417C2112309F49CC042
:103CF00066EC73E18EEC94E10E94CA0B6AE070E01E
:103D0000AE8DBF8D8D919C910E94F3128DC02D813F
:103D10003E814F815885CA01B9010E9427572B0166
:103D20003C01A7019601C701B6010E9427579B01DC
:103D3000AC01C301B2010E9472582B013C01A501E4
:103D40009401C501B4010E9427579B01AC01C30136
:103D5000B2010E9472582B013C0120E030E040E0AB
:103D600050ECC701B6010E942757A50194010E949B
:103D700027579B01AC01C301B2010E9456590E9412
:103D80006158AE8DBF8D13966D937D938D939C93EB
:103D900016979ACFAE8DBF8D13962D913D914D9173
:103DA0005C9116976BED7FE089E49FE30E94725867
:103DB00069837A838B839C830E94915A9B01AC0117
:103DC000C701B6010E9427579B01AC01EE8DFF8D04
:103DD00063857485858596850E947358AE8DBF8DE9
:103DE00093966D937D938D939C93969769817A8139
:103DF0008B819C810E9451599B01AC01C701B60186
:103E00000E9427579B01AC01EE8DFF8D678570895D
:103E1000818992890E947258AE8DBF8D97966D935D
:103E20007D938D939C939A9780919313882309F4A3
:103E3000C4C06DEB73E18EEC94E10E94CA0B6AE0A2
:103E400070E0EE8DFF8D808191810E94F31269EB0D
:103E500073E18EEC94E10E94CA0BAE8DBF8D579634
:103E60006D917D918D919C915A970E94691364EB9D
:103E700073E18EEC94E10E94CA0BEE8DFF8D638D91
:103E8000748D858D968D0E9469136FEA73E18EECB7
:103E900094E10E94CA0B6D817E818F8198850E947A
:103EA000691369EA73E18EEC94E10E94CA0BC701C1
:103EB000B6010E94691365EA73E18EEC94E10E94F9
:103EC000CA0BAE8DBF8D5F966D917D918D919C914A
:103ED00092970E9469136FE973E18EEC94E10E945E
:103EE000CA0B69817A818B819C810E9451590E9401
:103EF000691368E973E18EEC94E10E94CA0B698151
:103F00007A818B819C810E94915A0E9469136EE88C
:103F100073E18EEC94E10E94CA0BEE8DFF8D6381FC
:103F20007481858196810E94691369E873E18EEC42
:103F300094E10E94CA0BAE8DBF8D1B966D917D9151
:103F40008D919C911E970E94691365E873E18EEC38
:103F500094E10E94CA0BEE8DFF8D6785708981897F
:103F600092890E9469136AE773E18EEC94E10E94E2
:103F7000CA0B69817A818B819C810E94691364E7F5
:103F800073E18EEC94E10E94CA0BAE8DBF8D9396C7
:103F90006D917D918D919C9196970E9469136FE62A
:103FA00073E18EEC94E10E94CA0BEE8DFF8D67A148
:103FB00070A581A592A50E946913AE8DBF8D9396C1
:103FC0002D913D914D915C919697688979898A8967
:103FD0009B890E947358688B798B8A8B9B8BEE8DA3
:103FE000FF8D27A130A541A552A56C897D898E89B9
:103FF0009F890E9473586C8B7D8B8E8B9F8B11CD0C
:104000002BED3FE049E45FE3EE8DFF8D638174812A
:10401000858196810E94725869837A838B839C8301
:104020000E9451599B01AC01C701B6010E9427575C
:104030009B01AC01AE8DBF8D1B966D917D918D91D5
:104040009C911E970E947258EE8DFF8D63A374A3FE
:1040500085A396A369817A818B819C810E94915A64
:104060009B01AC01C701B6010E9427579B01AC011F
:10407000AE8DBF8D1F966D917D918D919C915297C4
:104080000E947358EE8DFF8D67A370A781A792A73A
:10409000CBCE2BED3FE049E45FE3AE8DBF8D1396B1
:1040A0006D917D918D919C9116970E9473586983B3
:1040B0007A838B839C830E9451599B01AC01C70179
:1040C000B6010E9427579B01AC01EE8DFF8D6385E1
:1040D0007485858596850E947258AE8DBF8D9396A6
:1040E0006D937D938D939C93969769817A818B8153
:1040F0009C810E94915A9B01AC01C701B6010E94AC
:1041000027579B01AC01EE8DFF8D678570898189F2
:1041100092890E94735880CEEE8DFF8D2381348169
:10412000458156816BED7FE089E49FE30E947258E0
:1041300069837A838B839C830E9451599B01AC01D4
:10414000C701B6010E9427579B01AC01AE8DBF8D00
:104150001B966D917D918D919C911E970E94735835
:1041600073CF9D81911111CAE6C92F923F924F9250
:104170005F926F927F928F929F92AF92BF92CF92F7
:10418000DF92EF92FF920F931F93CF93DF93CDB700
:10419000DEB7C656D1090FB6F894DEBF0FBECDBF4D
:1041A0005C01BC018EEC94E10E942F140E9453111B
:1041B000882309F42DC110927F1010927E102224C2
:1041C0002394312C6E0121E4C20ED11C00917E108B
:1041D00010917F100330110509F41FC1C8018854E4
:1041E0009F4EA5969FAF8EAFA597FC018081882337
:1041F00009F4F4C083E0882E912CC801880F991F20
:10420000A3969FAF8EAFA3978D5F9D4FA7969FAF4D
:104210008EAFA7977C01A796EEADFFADA7978081E3
:1042200091818330910509F4CDC0C0F481309105AE
:1042300009F46BC082309105A1F7B50184E993E1DF
:104240000E942F1465E177E084E993E10E942F1426
:1042500083E090E0F70191838083DDCF8430910586
:1042600009F4A0C085309105E1F6A396EEADFFAD4F
:10427000A397ED5FFD4F318220820E94531165EEBE
:1042800076E084E993E10E942F1468EE73E080E009
:1042900090E00E94470EA596EEADFFADA597108267
:1042A0001F930F9388E197E09F938F93DF92CF92B4
:1042B0000E94535BB60184E993E10E942F141F937F
:1042C0000F9389E297E09F938F93DF92CF920E94A2
:1042D000535BB6018EEC94E10E942F1468EE73E0FC
:1042E00080E090E00E94470E0FB6F894DEBF0FBE4C
:1042F000CDBF84E993E10E94310B892B09F478C08A
:1043000084E993E10E940F0BF4CFF8E0FF931F9232
:104310001F930F9380E097E09F938F9381E090E04D
:104320008C0F9D1F9F938F930E94535BBE016F5F05
:104330007F4F84E993E10E942F140E94220E2B01EB
:104340003C010FB6F894DEBF0FBECDBF0E94220E17
:104350006419750986099709603472448F40910584
:1043600088F484E993E10E94310B892B79F384E985
:1043700093E10E940F0B8E3349F782E090E0F70142
:1043800091838083F70180819181029709F443CF63
:10439000F1E08F1A910884E090E009F05BCF85E0AE
:1043A00090E058CF6BE77FE084E993E10E94CA0B6D
:1043B0006CE474E080E090E00E94470EF7013182E7
:1043C000208229CF0E941011882349F3A396EEADD5
:1043D000FFADA397ED5FFD4F3182208280917E106B
:1043E00090917F10019690937F1080937E10EECE77
:1043F00069E67FE08EEC94E10E94CA0BC8010E943E
:10440000E21467E67FE08EEC94E10E94CA0BE6CFEF
:10441000B50184E993E10E942F14B50181E394E191
:104420000E942F14CA59DF4F0FB6F894DEBF0FBE9B
:10443000CDBFDF91CF911F910F91FF90EF90DF9053
:10444000CF90BF90AF909F908F907F906F905F9034
:104450004F903F902F900895CF92DF92EF92FF926E
:104460000F931F93CF93DF93CDB7DEB7A0970FB60F
:10447000F894DEBF0FBECDBF082F162F0E947A0E14
:1044800024E630E040E050E00E94305869017A01B3
:1044900080917C1090917D10892B09F58091AB1251
:1044A0009091AC12892BD9F41092491010924810B7
:1044B0008FEF9FEF9093010280930002CA01B90130
:1044C000A0960FB6F894DEBF0FBECDBFDF91CF919F
:1044D0001F910F91FF90EF90DF90CF9008950023F0
:1044E000B9F0C0924410D0924510E0924610F0927C
:1044F00047108091821090918310892B09F44FC04E
:10450000109249101092481090E080E00E94961599
:10451000112371F01092431010924210809182107A
:1045200090918310892B21F010924910109248101D
:10453000809193138823F1F0009148101091491055
:1045400080910002909101028017910799F068E430
:1045500078E08EEC94E10E94CA0B6AE070E0C8013A
:104560000E94F3128091481090914910909301029B
:1045700080930002E0914810F0914910E830F10575
:1045800060F58827E953FD4D8F4F0C94395BDD2290
:104590005A238723C223FD232E245B24B824809131
:1045A0008E1290918F12892B09F4B2CF86E090E0A1
:1045B0009093491080934810ABCF809182109091D6
:1045C0008310892B19F586E090E090934910809331
:1045D00048101092AC121092AB128091481090913A
:1045E00049108B7F039709F00FC28091441090917E
:1045F0004510A0914610B0914710A7019601281BC5
:10460000390B4A0B5B0BCA01B9015ACF8091441098
:1046100090914510A0914610B0914710A7019601C6
:10462000281B390B4A0B5B0BCA01B9012AE030E0A9
:1046300040E050E00E94305889019A01809140107A
:104640009091411040913E1050913F10840F951F62
:1046500066EF7FEF0E94255B80917A1090917B102E
:10466000860F971F092E000CAA0BBB0B8017910712
:10467000A207B30708F0B1CFC0924410D092451002
:10468000E0924610F09247108091421090914310B2
:104690000196909343108093421081E090E09093B4
:1046A0004910809348108091B7129091B8120E94DF
:1046B000961593CF8091441090914510A09146108B
:1046C000B0914710B701A601481B590B6A0B7B0B31
:1046D0008091401090914110092E000CAA0BBB0B49
:1046E00084179507A607B70708F077CF82E090E018
:1046F0009093491080934810C0924410D092451076
:10470000E0924610F092471090E080E0D0CF809188
:10471000441090914510A0914610B0914710B701F8
:10472000A601481B590B6A0B7B0B80913E109091A0
:104730003F10092E000CAA0BBB0B84179507A60788
:10474000B70708F04ACF83E090E090934910809338
:104750004810C0924410D0924510E0924610F0925A
:1047600047108091B7129091B8120E94961561E49B
:1047700077E0CE0101960E944C5BCE0101960E942B
:10478000B5202BCF8091441090914510A0914610F8
:10479000B0914710B701A601481B590B6A0B7B0B60
:1047A0008091821090918310092E000CAA0BBB0BF4
:1047B00084179507A607B70708F00FCF8091A012BE
:1047C0009091A112009751F0209142103091431026
:1047D0002817390718F084E090E08ACF109249102A
:1047E0001092481060E577E0CE0101960E944C5B84
:1047F000CE0101960E94B5207FCF80914410909108
:104800004510A0914610B0914710B701A601481B72
:10481000590B6A0B7B0B80913E1090913F10092E33
:10482000000CAA0BBB0B84179507A607B70708F067
:10483000D4CE85E090E09093491080934810C092C8
:104840004410D0924510E0924610F09247108091AB
:10485000B7129091B8120E942F15BFCE80914410CC
:1048600090914510A0914610B0914710B701A60154
:10487000481B590B6A0B7B0B8091401090914110A3
:10488000092E000CAA0BBB0B84179507A607B707C8
:1048900008F0A3CE84E090E09093491080934810F4
:1048A000C0924410D0924510E0924610F09247100A
:1048B00090E080E0D0CF80918E1290918F12892B62
:1048C00029F410927D1010927C1087CE80914410B4
:1048D00090914510A0914610B0914710A701960104
:1048E000281B390B4A0B5B0BCA01B9012AE030E0E7
:1048F00040E050E00E94305889019A0180914010B8
:104900009091411040913E1050913F10840F951F9F
:1049100066EF7FEF0E94255B80917810909179106F
:10492000860F971F092E000CAA0BBB0B801791074F
:10493000A207B30708F051CEC0924410D0924510A0
:10494000E0924610F092471087E090E09093491073
:10495000809348106FE577E0CE0101960E944C5B92
:10496000CE0101960E94B52081E00E94D3116FCF45
:104970008091441090914510A0914610B09147103D
:10498000B701A601481B590B6A0B7B0B80918E1255
:1049900090918F12092E000CAA0BBB0B8417950760
:1049A000A607B70708F019CE80919E1290919F122A
:1049B0000097C9F020914210309143102817390711
:1049C00090F088E090E09093491080934810C09256
:1049D0004410D0924510E0924610F092471080E0CB
:1049E0000E94D31165CF86E090E0909349108093A8
:1049F00048106DE677E0CE0101960E944C5BCE0137
:104A000001960E94B520E3CF60E070E0CB0158CD65
:104A10000F931F93CF93DF93CDB7DEB7C054D10967
:104A20000FB6F894DEBF0FBECDBF8BE797E09F9324
:104A30008F9385E997E09F938F938E010F5F1F4FB0
:104A40001F930F930E94535BC8010E94B5200F90E3
:104A50000F900F900F900F900F90C05CDF4F0FB62C
:104A6000F894DEBF0FBECDBFDF91CF911F910F91A4
:104A70000895EF92FF920F931F93CF93DF93CDB7DB
:104A8000DEB7DA950FB6F894DEBF0FBECDBFF82EB5
:104A9000E92E67EA77E08E010F5F1F4FC8010E9481
:104AA0004C5BC8010E94B5206091A2127091A312C4
:104AB0008091A4129091A51224E630E040E050E0ED
:104AC0000E9430585F934F933F932F93E091BF1212
:104AD000F091C012EE0FFF1FE859F94F81818F93BB
:104AE00080818F93EF92FF928BEA97E09F938F9351
:104AF0001F930F930E94535BC8010E94B52069ED7C
:104B000077E0C8010E944C5BC8010E94B52060ECB0
:104B10007AE0C8010E944C5BC8010E94B5200FB624
:104B2000F894DEBF0FBECDBFD3950FB6F894DEBFAD
:104B30000FBECDBFDF91CF911F910F91FF90EF90EE
:104B400008952F923F924F925F926F927F928F9231
:104B50009F92AF92BF92CF92DF92EF92FF920F930C
:104B60001F93CF93DF93CDB7DEB7CA52D1400FB6B4
:104B7000F894DEBF0FBECDBFC15FDE4F998388833F
:104B8000CF50D140C75DDE4F6883C952D140C65D6A
:104B9000DE4F7883CA52D14010919313112331F024
:104BA0006BE573E18EEC94E10E94CA0BC15FDE4FAE
:104BB000A881B981CF50D1401296CD90DD90ED9073
:104BC000FC90159780908D1390908E13A0908F136A
:104BD000B0909013A5019401C701B6010E94275718
:104BE00020E030E040E05EE30E9427572B013C01CB
:104BF000C15FDE4FA881B981CF50D14016968D910B
:104C00009D910D90BC91A02DC55FDE4F8883998347
:104C1000AA83BB83CB50D1409C01AD01C501B40137
:104C20000E94275720E030E040E05EE30E942757D3
:104C30004B015C01A3019201C301B2010E942757FD
:104C40002B013C01A5019401C501B4010E94275725
:104C50009B01AC01C301B2010E9473580E949F5A8C
:104C6000C05EDE4F688379838A839B83C052D140C4
:104C7000A7019601C55FDE4F688179818A819B819A
:104C8000CB50D1400E94F2582BED3FE049E450E474
:104C90000E94565920E030E044E353E40E94275735
:104CA0006B017C016091C1127091C212072E000C41
:104CB000880B990B0E94C856A70196010E94735851
:104CC000CC5DDE4F688379838A839B83C452D14055
:104CD0002BED3FE049E450E40E94275720E030E00C
:104CE00044E353E40E9456596B017C010E945159E0
:104CF0009B01AC01C05EDE4F688179818A819B8116
:104D0000C052D1400E9427572B013C01C701B60178
:104D10000E94915A9B01AC01C05EDE4F688179818F
:104D20008A819B81C052D1400E9427574B015C0170
:104D30001123A1F06BE473E18EEC94E10E94CA0BA5
:104D4000C301B2010E94691366EE77E08EEC94E134
:104D50000E942F14C501B4010E9469138091BD12F5
:104D60009091BE128130910509F454C1029709F463
:104D700054C267EA77E0CE0101967C010E944C5B49
:104D8000C7010E94B520E091BF12F091C012EE0F52
:104D9000FF1FE859F94F81818F9380818F93C65D02
:104DA000DE4F9881CA52D1409F93C75DDE4FA881E4
:104DB000C952D140AF938AEE97E09F938F93FF92B1
:104DC000EF920E94535BC7010E94B520C15FDE4F86
:104DD000E881F981CF50D14085858F9384858F9369
:104DE00083858F9382858F938DE098E09F938F9337
:104DF000FF92EF920E94535BC7010E94B5206E01A3
:104E0000F1E0CF0EDF1E860122E044E0C301B201D3
:104E10000E940552DF92CF928AE198E09F938F9390
:104E2000FF92EF920E94535BC7010E94B52022E0DF
:104E300044E0C501B4010E940552DF92CF9283E2A3
:104E400098E09F938F93FF92EF920E94535BC7016C
:104E50000E94B52022E044E0C05EDE4F6881798187
:104E60008A819B81C052D1400E940552DF92CF922D
:104E70008CE298E09F938F93FF92EF920E94535B96
:104E80000FB6F894DEBF0FBECDBFC7010E94B5209C
:104E900022E044E0CC5DDE4F688179818A819B818C
:104EA000C452D1400E940552DF92CF9286E398E02F
:104EB0009F938F93FF92EF920E94535BC7010E94D2
:104EC000B52060916513709166138091671390917E
:104ED00068130E94C8597F936F9360913A13709141
:104EE0003B1380913C1390913D130E94C8597F93CE
:104EF0006F9360910F137091101380911113909123
:104F000012130E94C8597F936F936091E4127091BD
:104F1000E5128091E6129091E7120E94C8597F93A2
:104F20006F938FE398E09F938F93FF92EF920E948D
:104F3000535BC7010E94B52080E00E94050EBC01B2
:104F400090E080E00E94C65620E030E040EA50E465
:104F50000E94275720E030E040E85AE30E9427579C
:104F600022E042E00E940552DF92CF9280E698E074
:104F70009F938F93FF92EF920E94535BC7010E9411
:104F8000B5200E94CD1522E042E00E940552DF923A
:104F9000CF928DE698E09F938F93FF92EF920E94BD
:104FA000535BC7010E94B5208BE797E09F938F93D7
:104FB00086E798E09F938F93FF92EF920E94535B56
:104FC0000FB6F894DEBF0FBECDBFC7010E94B5205B
:104FD0006BE577E0C7010E944C5BC7010E94B520DA
:104FE000C65DDE4F0FB6F894DEBF0FBECDBFDF91BA
:104FF000CF911F910F91FF90EF90DF90CF90BF90D6
:10500000AF909F908F907F906F905F904F903F9068
:105010002F90089509E112E0312C212CC55FDE4F5D
:105020001882CB50D140B0E5C75EDE4FB883C9517E
:10503000D140E3ECC65EDE4FE883CA51D140F7E4CD
:10504000C55EDE4FF883CB51D140D801CD90DD90C5
:10505000ED90FC90B0919313C85DDE4FB883C852B9
:10506000D14020E030E0A901C701B6010E94C1563D
:10507000A3019201882309F4E8C0C701B6010E9488
:105080007258C45EDE4F688379838A839B83CC51D8
:10509000D140A5019401F8016481758186819781D1
:1050A0000E9472586B017C01C45EDE4F28813981F9
:1050B0004A815B81CC51D140CA01B9010E94275776
:1050C000C45EDE4F688379838A839B83CC51D14051
:1050D000A7019601C701B6010E9427579B01AC01A9
:1050E000C45EDE4F688179818A819B81CC51D14039
:1050F0000E9473580E949F5A6B017C01C85DDE4F6D
:10510000F881C852D140FF2399F06EE373E18EEC31
:1051100094E10E94CA0BC1010E94E21463E373E1AF
:105120008EEC94E10E94CA0BB601C7010E9469137C
:10513000C55FDE4F2881CB50D140C75EDE4F38813E
:10514000C951D140C65EDE4F4881CA51D140C55ECB
:10515000DE4F5881CB51D140B601C7010E94C156E4
:1051600087FF5EC0D8018D919D910D90BC91A02DBF
:10517000CF5EDE4F88839983AA83BB83C151D14020
:10518000D80114968D919D910D90BC91A02DCB5E70
:10519000DE4F88839983AA83BB83C551D140809118
:1051A0009313882301F16EE273E18EEC94E10E9487
:1051B000CA0BCF5EDE4F688179818A819B81C151A4
:1051C000D1400E94691369E273E18EEC94E10E9480
:1051D000CA0BCB5EDE4F688179818A819B81C55184
:1051E000D1400E946913085F1F4FBFEF2B1A3B0A83
:1051F000C55FDE4FC882CB50D140C75EDE4FD8823C
:10520000C951D140C65EDE4FE882CA51D140C55E69
:10521000DE4FF882CB51D14018CF01E412E0FCCE32
:10522000C55FDE4FC880CB50D140C75EDE4FD8800F
:10523000C951D140C65EDE4FE880CA51D140C55E3B
:10524000DE4FF880CB51D140CECFC301B2010E94D6
:1052500027576B017C01A5019401C501B4010E948F
:1052600027579B01AC01C701B6010E9473580E94E9
:105270009F5A6B017C01C85DDE4FE881C852D14066
:10528000EE2399F06CE173E18EEC94E10E94CA0B7D
:10529000C1010E94E21461E173E18EEC94E10E948D
:1052A000CA0BC701B6010E946913A7019601C55F29
:1052B000DE4F6881CB50D140C75EDE4F7881C95147
:1052C000D140C65EDE4F8881CA51D140C55EDE4FF7
:1052D0009881CB51D1400E94845A181654F5809180
:1052E00093138823B1F06CE073E18EEC94E10E949B
:1052F000CA0B60E070E0CB010E94691367E073E1C4
:105300008EEC94E10E94CA0B60E070E0CB010E9439
:105310006913CB5EDE4F188219821A821B82C55137
:10532000D140CF5EDE4F188219821A821B82C15192
:10533000D140CF5EDE4F288139814A815B81C151E6
:10534000D140C301B2010E9472582B013C01CB5ED7
:10535000DE4F288139814A815B81C551D140C50129
:10536000B4010E9472584B015C0180919313882311
:1053700009F4FFCC62E073E18EEC94E10E94CA0B69
:10538000C301B2010E9469136EEF72E18EEC94E1E9
:105390000E94CA0BC501B4010E946913EACC85EDD5
:1053A0008093BC008091091190910A11A0910B117A
:1053B000B0910C110796A11DB11D23E0B695A795DC
:1053C000979587952A95D1F72091BC0024FD03C0BD
:1053D0001092561108954091091150910A1160914F
:1053E0000B1170910C11452B462B472B69F300973D
:1053F000A105B10541F025E32A95F1F700000197D9
:10540000A109B109E1CF809108110C94CC0E0F9342
:105410001F93CF93DF938C01EB010E94E8578883A1
:10542000C80101960E94E8578983CE01DF91CF9190
:105430001F910F9108954F925F926F927F928F927A
:105440009F92AF92BF92CF92DF92EF92FF920F9313
:105450001F93CF93DF93CDB7DEB7CC58D2400FB6B2
:10546000F894DEBF0FBECDBFE091BF12F091C01225
:10547000EE0FFF1FE859F94F81818F9380818F9341
:1054800084E898E09F938F93CE0101967C019F93CF
:105490008F930E94535BC7010E94B52081E090E08A
:1054A000C557DD4F99838883CB58D240E8EFCE2E85
:1054B000E3E0DE2E0F900F900F900F900F900F9063
:1054C000F9E94F2EF8E05F2E4E019FE7891A9DEF14
:1054D000990AA3EA6A2EA8E07A2ED601AD90BC9074
:1054E0001197A114B10409F443C01296ED91FC91F7
:1054F0001397309729F414968D919C91892B69F01C
:10550000D60116968C911697843058F48230E8F4C0
:10551000813049F0C7010E94B520FDE0CF0ED11CBB
:10552000DCCF8430B9F781818F9380818F93BF92D4
:10553000AF925F924F92FF92EF920E94535B0FB631
:10554000F894DEBF0FBECDBFE5CF1496ED91FC9170
:105550006081718182819381840122E044E00E9414
:1055600005529F928F92BF92AF927F926F92E3CF3C
:1055700063EE79E0C7010E944C5BC7010E94B52031
:10558000C0908511D0908611C60164E670E00E943B
:10559000255BCB012AE030E0B9010E94255BFC01CC
:1055A000EE0FFF1FE25FFC4F81818F9380818F930D
:1055B000C601B9010E94255BFC01CB01B9010E9423
:1055C000255BDC01AA0FBB1FA25FBC4F11968C911B
:1055D00011978F938C918F93EE0FFF1FE25FFC4F1B
:1055E00081818F9380818F93C60160E177E20E9471
:1055F000255BFB01EE0FFF1FE25FFC4F81818F9364
:1056000080818F93C60168EE73E00E94255BCB0119
:10561000B9010E94255BFC01EE0FFF1FE25FFC4F0A
:1056200081818F9380818F938DEA98E09F938F93F0
:105630006E012FEFC21A2DEFD20ADF92CF920E9495
:10564000535BC6010E94B520809193131F928F93E4
:1056500081E199E09F938F93FF92EF920E94535BB9
:10566000C7010E94B5200E94220E20E037E843E9DE
:1056700053E00E9430585F934F933F932F9384E2FF
:1056800099E09F938F93FF92EF920E94535BC70123
:105690000E94B5200E94CD156E01AFE7CA1AADEF8A
:1056A000DA0A860122E044E00E940552DF92CF929E
:1056B0008FE399E09F938F93FF92EF920E94535B49
:1056C0000FB6F894DEBF0FBECDBFC7010E94B52054
:1056D0000E94CD150E94601822E044E00E9405520D
:1056E000DF92CF9285E599E09F938F93FF92EF929F
:1056F0000E94535BC7010E94B52080E00E94050E06
:10570000BC01990F880B990B0E94C85620E030E02D
:1057100040EA50E40E94275720E030E040E85AE396
:105720000E94275722E044E00E940552DF92CF9268
:105730008BE699E09F938F93FF92EF920E94535BC9
:10574000C7010E94B52088E00E94050EBC01990F98
:10575000880B990B0E94C85620E030E040EA50E4E4
:105760000E9427572DE534E741EB50E40E9427576C
:1057700020E030EC4FE754E40E94565922E044E028
:105780000E940552DF92CF928BE799E09F938F930F
:10579000FF92EF920E94535BC7010E94B520809157
:1057A00081108F93809180108F938EE899E09F9362
:1057B0008F93FF92EF920E94535BC7010E94B52026
:1057C00023EC35EF48EA5EE36091690270916A026A
:1057D00080916B0290916C020E9456590E94C859A8
:1057E000072E000C880B990B0E94C85620E030E071
:1057F00040E051E40E9427570E94C8597F936F935D
:1058000081EA99E09F938F93FF92EF920E94535BFE
:10581000C7010E94B5200E9453111F928F9386EBFF
:1058200099E09F938F93FF92EF920E94535B0FB684
:10583000F894DEBF0FBECDBFC7010E94B520809196
:10584000B8101F928F938DEC99E09F938F93FF92E6
:10585000EF920E94535BC7010E94B5208091B9105E
:105860001F928F9386EE99E09F938F93FF92EF9212
:105870000E94535BC7010E94B5208091BA101F920D
:105880008F938FEF99E09F938F93FF92EF920E94F7
:10589000535BC7010E94B5208BE797E09F938F93DE
:1058A00088E19AE09F938F93FF92EF920E94535B5F
:1058B000C7010E94B520BE0165577D4F8AE890E080
:1058C0000E94072AC457DD4F8881CC58D2408F935D
:1058D000C557DD4F8881CB58D2408F938AE29AE03A
:1058E0009F938F93FF92EF920E94535BC7010E9498
:1058F000B5200E94BC11BC0190E080E00E94C65619
:1059000020E030E048EC52E40E94565922E044E0A6
:105910000E940552DF92CF928FE39AE09F938F937C
:10592000FF92EF920E94535B0FB6F894DEBF0FBE5A
:10593000CDBFC7010E94B5206BE577E0C7010E948B
:105940004C5BC7010E94B520C457DD4F0FB6F894D9
:10595000DEBF0FBECDBFDF91CF911F910F91FF90A2
:10596000EF90DF90CF90BF90AF909F908F907F90FF
:105970006F905F904F9008958F929F92AF92BF92D9
:10598000CF92DF92EF92FF920F931F93CF93DF930B
:10599000C4E0D0E08AE0982E05E010E097E0E92E20
:1059A000F12C22E0C22ED12C33E0A32EB12C88247E
:1059B000839484E993E10E94310B892B09F42FC170
:1059C00084E993E10E940F0B2091C1103091C21025
:1059D0002330310509F4FCC008F0B3C021153105AE
:1059E00009F4D8C02230310521F72091BF10309141
:1059F000C010F901E05DFC4F9081891749F040919A
:105A0000BD105091BE104E7F5093BE104093BD10FC
:105A1000F901E95DFC4F9081891749F04091BD1073
:105A20005091BE104D7F5093BE104093BD10F901B0
:105A3000EE5DFC4F9081891749F08091BD109091E7
:105A4000BE108B7F9093BE108093BD108091BD10CF
:105A50009091BE10009721F41092C2101092C110C4
:105A60002F5F3F4F3093C0102093BF1080FF2BC09B
:105A7000205D3C4FF9018081811125C061EE70E10C
:105A80008EEC94E10E94CA0B6AE070E08091BB103A
:105A90009091BC100E94F3126FED70E18EEC94E1D6
:105AA0000E94CA0BE091BB10F091BC10E854FF4E6D
:105AB00080820E94082590E080E00E941B2A1092BC
:105AC000C2101092C1108091BD1081FF28C0E091DA
:105AD000BF10F091C010E95DFC4F808181111FC0A3
