:100000000C94590A0C943A440C940F440C94E44315
:100010000C94B9430C948E430C9463430C94384372
:100020000C940D430C948A0A0C948A0A0C948A0A44
:100030000C948A0A0C948A0A0C948A0A0C948A0AF0
:100040000C948A0A0C948A0A0C948A0A0C948A0AE0
:100050000C948A0A0C948A0A0C948A0A0C94C3425F
:100060000C948A0A0C9499420C946F420C948A0A5C
:100070000C948A0A0C948A0A0C948A0A0C948A0AB0
:100080000C948A0A0C948A0A0C948A0A0C948A0AA0
:100090000C948A0A0C948A0A0C948A0A0C9465447B
:1000A0000C948A0A0C948A0A0C948A0A0C948A0A80
:1000B0000C948A0A0C948A0A0C948A0A0C948A0A70
:1000C0000C948A0A0C948A0A0C948A0A0C9445426D
:1000D0000C941B420C948A0A0C94F1410C94C74175
:1000E0000C948A0A084AD73B3BCE016E84BCBFFD04
:1000F000C12F3D6C74319ABD56833DDA3D00C77FF8
:1001000011BED9E4BB4C3E916BAAAABE0000008090
:100110003F072C7AA5BA6CC590DA3B9365FC8BBC83
:1001200053F810FD3C5692834DBD879D3AB63DCBAA
:10013000C9BF5BBE73DA0FC93F05A84CCDB2D44E20
:10014000B93836A9020C50B9918688083CA6AAAAEB
:100150002ABE000000803F000C94600C0C94A03874
:100160000C946A0C0C94C8360C949A0D0C94E40B05
:100170000C94553E0C947E310C940B150C946E0F20
:100180000C9496370C94AE0D0C948B0C0C94C437D5
:100190000C944B0C0C94B30A0C946C0D0C948D378E
:1001A0000C94472F0C945D0C0C94840F0C94E70E68
:1001B0000C94CD380C940B0F0C94820C0C94E62309
:1001C0000C94042A0C94433E0C948A0D0C944538EC
:1001D0000C94E60E0C945F0D0C94760B0C94590C59
:1001E0000C94E50D0C94760D0C947F0E0C94780C09
:1001F0000C94DC340C94E90E0C942A0B0C941134FE
:100200000C9472330C9444240C9482370C94F12493
:100210000C94E80E0C94920D0C94550C0C94B80DA3
:100220000C94EF0D0C9417240C9443230C94900C15
:100230000C94120F0C94080B0C948C0C0C94A124AD
:100240000C940B380C94052E0C94EE390C949F37BB
:100250000C94660C0C94C6220C94A02E0C9452376D
:100260000C94AB390C9470230C94A40D0C94DC37D3
:100270000C94D7390C9448380C94E2340C94C70D84
:100280000C941C0B0C94700C0C94F90A0C94800DBB
:100290000C948F150C94AB230C9430140C94740CA8
:1002A0000C94860C0C943F0F0C94F80E0C94DB4AC3
:1002B0000C941F360C94DB0D0C94F90D0C94C9377B
:1002C0000C94510C0C94D10D0C94670D0C947E0C75
:1002D0004E414E494E495459494E46CDCCCC3D0A2B
:1002E000D7233C17B7D13877CC2B329595E6241F0E
:1002F000B14F0A000020410000C84200401C4620C7
:10030000BCBE4CCA1B0E5AAEC59D7400407A10F399
:100310005A00A0724E18090010A5D4E80000E87633
:1003200048170000E40B54020000CA9A3B0000008A
:10033000E1F505000080969800000040420F0000A3
:1003400000A08601000000102700000000E8030064
:100350000000006400000000000A0000000000012E
:1003600000000000002C76D888DC674F0823DFC12E
:10037000DFAE59E1B1B796E5E3E453C63AE65199E9
:100380007696E8E6C28426EB898C9B62ED407C6F12
:10039000FCEFBC9C9F40F2BAA56FA5F490055A2AC9
:1003A000F75C936B6CF9676DC11BFCE0E40D47FED5
:1003B000F520E6B500D0ED902E03009435770500CA
:1003C00080841E080000204E0A000000C80C333351
:1003D00033330F986E12831141EF8D2114893BE660
:1003E0005516CFFEE6DB18D1844B381BF77C1D90E9
:1003F0001DA4BBE424203284725E228100C9F12452
:10040000ECA1E53D2741542B5253540D0A002B2BF0
:100410002B000D0A4553502D303120496E69746907
:10042000616C697A6174696F6E20636F6D706C6561
:100430007465000D0A4553502D30313A20466169EC
:100440006C65642041542B43495053544F3D373021
:1004500030300041542B43495053544F3D373030D6
:10046000300D0A000D0A4553502D30313A204661B7
:10047000696C65642041542B43495053455256459D
:10048000523D312C313039300041542B43495053C7
:1004900045525645523D312C313039300D0A000D50
:1004A0000A4553502D30313A204661696C6564200D
:1004B00041542B4349504D55583D310041542B4335
:1004C00049504D55583D310D0A000D0A4553502DE8
:1004D00030313A204661696C65642041542B4349B0
:1004E000504D4F44453D310041542B4349504D4FF1
:1004F00044453D300D0A000D0A4553502D30313A28
:10050000204661696C65642041542B43574448433D
:1005100050535F4445463D312C323830302C223127
:1005200039322E3136382E31302E30222C223139CC
:10053000322E3136382E31302E38220041542B43A2
:100540005744484350535F4445463D312C32383080
:10055000302C223139322E3136382E31302E3022A5
:100560002C223139322E3136382E31302E38220DB0
:100570000A000D0A4553502D30313A204661696C0E
:1005800065642041542B43495041505F4445463DEA
:10059000223139322E3136382E31302E39222C226A
:1005A0003139322E3136382E31302E392200415435
:1005B0002B43495041505F4445463D223139322E4C
:1005C0003136382E31302E39222C223139322E312B
:1005D00036382E31302E39220D0A000D0A4553507F
:1005E0002D30313A204661696C65642041542B43BB
:1005F00057444843505F4445463D302C31004154F8
:100600002B4357444843505F4445463D302C310D01
:100610000A00222C224E41222C352C300D0A000DCE
:100620000A4553502D30313A2041542B4357534102
:10063000505F4445463D224645542D00222C224E13
:1006400041222C352C300D0A0041542B4357534185
:10065000505F4445463D224645542D000D0A455302
:10066000502D30313A204661696C65642041542B2D
:1006700043574D4F44455F4445463D320041542B5E
:1006800043574D4F44455F4445463D320D0A000DEA
:100690000A4553502D30313A204661696C6564201B
:1006A00041542B5246504F5745523D38300041542B
:1006B0002B5246504F5745523D38300D0A000D0A17
:1006C0004553502D30313A204661696C65642041B4
:1006D00054453000415445300D0A000D0A45535031
:1006E0002D30312050726573656E74000D0A4553CC
:1006F000502D3031204E6F7420466F756E64000DA2
:100700000A496E697469616C697A696E672045533C
:10071000502D3031002044656C74613A00205368DC
:100720006F756C642062653A002049733A000D0AC7
:10073000436C6F636B20506173732E20436F756E33
:100740007465723A002044656C74613A0020536805
:100750006F756C642062653A002049733A000D0A97
:100760004661696C656420436C6F636B20546573EC
:10077000742E20436F756E7465723A000D0A4661DF
:10078000696C656420436C6F636B20546573742ED1
:1007900020436F756E74657220646964206E6F7497
:1007A0002073746F703A000D0A4661696C656420AD
:1007B000436C6F636B20546573742E2073656E7386
:1007C0006F725F7374617475733A000D0A466169E4
:1007D0006C656420436C6F636B20546573742E20CA
:1007E000436F756E74657220667265652072756EF2
:1007F0006E696E673A000D0A4379636C653A000DC5
:100800000A4661696C656420436C6F636B205465B4
:1008100073742E2053707572696F757320747269CA
:10082000676765723A000D0A504F535420636F7525
:100830006E74657273000D0A504F53545F32204638
:1008400061696C65640D0A000D0A5461626174612E
:100850002053746174653A200020206F6C645F4CF3
:1008600045445F70657263656E743A000D0A6E658B
:10087000775F4C45445F70657263656E743A002023
:10088000206F6C645F4C45445F70657263656E7485
:100890003A000D0A6E65775F4C45445F7065726380
:1008A000656E743A000D0A20494E20203C3C200021
:1008B0000D0A204F5554203E3E20000D0A002056C0
:1008C0006F6C7473000D0A565F5245463A20006DF6
:1008D0006D2F757300274320000D0A54656D7065F8
:1008E0007261747572653A20000D0A52554E2046A9
:1008F0006C6970466C6F703A203078000D0A44497C
:10090000503A203078000D0A4244205265763A0071
:1009100073000D0A54696D653A007D0D0A00225678
:10092000657273696F6E223A002C200022565F5266
:100930004546223A002C2000223A002200222C2098
:10094000002E007B2274696D6572223A20220022FB
:100950007D0D0A007B224F53434F5045223A200021
:100960007D002020000A7B5265663A000A0D446F24
:100970006E65000A0D537472696B65000D0A46615D
:10098000636520737472696B6520746573740020ED
:10099000446F6E650D0A000D0A52616D70696E67D5
:1009A00020746865204C4544000D0A446973706CDE
:1009B00061792053657269616C20506F72743A20BE
:1009C00048656C6C6F20576F726C640D0A000D0ADD
:1009D0004175782053657269616C20506F72743A6A
:1009E0002048656C6C6F20576F726C640D0A000DA7
:1009F0000A41726475696E6F2053657269616C207B
:100A0000506F72743A2048656C6C6F20576F726C2F
:100A1000640D0A000D0A50617373207468726F755B
:100A20006768206163746976652E20204379636C62
:100A30006520706F77657220746F20657869740D1A
:100A40000A000D0A53696E676C652043616C63751B
:100A50006C6174696F6E0D0A000D0A47726964203B
:100A600043616C63756C6174696F6E0D0A000D0AE9
:100A700053706972616C2043616C63756C61746959
:100A80006F6E0D0A000D0A446F6E65002073746569
:100A9000707300206D732020000D0A416476616E32
:100AA00063696E67206261636B6572207061706557
:100AB000722000204641494C0D0A002050415353FA
:100AC0000D0A000D0A546869732074657374206EF2
:100AD0006F7420737570706F72746564206F6E2010
:100AE00074686973206861726477617265207265E9
:100AF000766973696F6E0075732E20416C6C206F80
:100B0000757470757473206D7573742062652074CC
:100B100068652073616D652E20000D0A52616E6458
:100B20006F6D20636C6F636B20746573743A200083
:100B30000D0A57616974696E6720666F722054727E
:100B400069676765720D0A000D0A000D0A323520CB
:100B50002D20546573742050757368204255747449
:100B60006F6E73000D0A3234202D204C6F672057B2
:100B70006573742053656E736F72000D0A323320F3
:100B80002D204C6F6720536F7574682053656E730A
:100B90006F72000D0A3232202D204C6F67204561A4
:100BA00073742053656E736F72000D0A3231202DFD
:100BB000204C6F67204E6F7274682053656E736FA0
:100BC00072000D0A3138202D2053656E6420736148
:100BD0006D706C652073686F74207265636F7264EA
:100BE000000D0A3137202D2044756D70204E6F6E38
:100BF000566F6C000D0A3136202D2057694669204A
:100C000074657374000D0A3135202D2046616365CB
:100C100020737472696B652074657374000D0A31FA
:100C200034202D204C4544206272696768746E65DB
:100C300073732074657374000D0A3133202D2053B3
:100C4000657269616C20706F7274207465737400D2
:100C50000D0A3132202D205472616E736665722048
:100C60006C6F6F706261636B000D0A3131202D2053
:100C700043616C696272617465000D0A3130202D28
:100C80002041757820706F7274207061737374687E
:100C9000726F756768000D0A2038202D2047726931
:100CA000642063616C6962726174696F6E20706147
:100CB000747465726E000D0A2039202D204F6E6508
:100CC0002074696D652063616C6962726174696F1B
:100CD0006E207061747465726E000D0A2038202DCC
:100CE00020477269642063616C6962726174696F24
:100CF0006E207061747465726E000D0A2037202DAD
:100D00002053706972616C20556E6974205465734C
:100D100074000D0A2036202D20416476616E6365D3
:100D2000207061706572206261636B6572000D0AEC
:100D30002035202D204F7363696C6C6F73636F7067
:100D4000652028504329000D0A2034202D204F73A0
:100D500063696C6C6F73636F7065000D0A203320DC
:100D60002D20436F756E7465722076616C756573A6
:100D70002028696E7465726E616C20747269676791
:100D8000657229000D0A2032202D20436F756E7484
:100D900065722076616C756573202865787465725C
:100DA0006E616C207472696767657229000D0A2094
:100DB00031202D204469676974616C20696E7075FB
:100DC0007473000D0A504F5354204C454473000A6D
:100DD0000D000D0A546573742057694669000D0AA9
:100DE000426C696E6B204D6F746F7220447269762D
:100DF000650D0A000D0A45786974696E67206361A4
:100E00006C6962726174696F6E0D0A000D0A4F752C
:100E100074204F6620537065633A20000D0A5365B5
:100E20007474696E67207472697020706F696E7473
:100E30002E20547970652021206F66206379636CC1
:100E40006520706F77657220746F20657869740D06
:100E50000A0020616E676C653A00207261646975F2
:100E6000733A0020793A00783A000D0A526573759A
:100E70006C742073686F756C642062653A20002082
:100E800050415353004232002D2D002000413100CB
:100E90002D2D0020205377697463683A0020205478
:100EA000656D70657261747572653A002020565FD9
:100EB0005265663A0020204661636520537472696A
:100EC0006B653A002E002E00204C617463683A0076
:100ED00041540D0A000D0A54657374204F766572F3
:100EE000000D0A53656E64696E672041540D0A0057
:100EF0000A0D526573657474696E67204553502DF1
:100F00003031000A0D535349443A204645542D00D0
:100F10000A0D4553502D3031206E6F74207072656C
:100F200073656E742E20436F6E74696E75696E679B
:100F3000207465737420616E7977617900204F6643
:100F40006620004F6E20000D0A416476616E636971
:100F50006E6720706170657220000D0A66616365BE
:100F60005F4953522829002B2B2B000D0A224445A0
:100F70004C4159223A00222C200D0A003A2022002E
:100F80000D0A4E616D65730D0A000D0A000D0A53BE
:100F9000656C6620546573743A00205365747469F7
:100FA0006E672053657269616C204E756D62657263
:100FB00020746F3A20000D0A53657269616C204EEF
:100FC000756D6265723F20286578203232332120AA
:100FD0006F722078292900205465737420436F6D47
:100FE000706C6574650D0A002D20002B20000D0A21
:100FF0002054657374696E67206D6F746F7220641E
:101000007269766520000D0A446F6E650D0A002036
:10101000000D0A0020000D0A002E000D0A52657313
:10102000657420746F20666163746F7279206465E3
:101030006661756C74732E2054686973206D6179D4
:101040002074616B652061207768696C650D0A000A
:101050000D0A557365207B22494E4954223A31329C
:1010600033347D0D0A000A0D566572696679206673
:1010700069726D77617265000D0A446F6E650D0AC5
:10108000000A0D5570646174696E67206C65676154
:1010900063792070657273697374656E74207374FC
:1010A0006F72616765000D0A52656164696E672041
:1010B0004E4F4E564F4C007D007B22434F4E4E45C7
:1010C0004354494F4E5F434C4F5345223A007D00F5
:1010D0007B22434F4E4E454354494F4E5F5354413C
:1010E0005254223A0000002100240027002A002D3B
:1010F000003000330001010000040107010A010073
:10110000002200250028002B002E003100340002B0
:10111000010000050108010B01000020002300264A
:101120000029002C002F00320000010000030106FE
:10113000010901050505050705080808080202025E
:10114000020A0A0808040404040101010101010162
:10115000010303030303030303040707070C0C0C39
:101160000C0C0C0C0C020202020606060606060611
:10117000060B0B0B0B0B0B0B0B01021020200808AE
:1011800010204010204080020102010804020101E9
:1011900002040810204080804020100804020180D2
:1011A0000402018040201008040201080402010129
:1011B0000204081020408001020408102040800032
:1011C000000A0B02090C0D0E0807030401000000C1
:1011D000000000000000000000000000000000000F
:1011E00000000000000000000000001211100000CC
:1011F00000000000000000000000000000000000EF
:1012000000000000000D0A000D0A000D0A0D0A2062
:10121000202A2A2A204750494F202A2A2A000D0A2C
:10122000000D0A007D2E20557365000D0A0D0A433E
:10123000616E6E6F74206465636F64653A207B0035
:10124000205665726966793A0020697320696E706C
:101250007574206F6E6C79000D0A000D0A4661638B
:101260006520537472696B652E2E2E0D0A000D0ACF
:101270005265647563696E672E2E2E000D0A5472D6
:1012800069676765723A20000D0A7B202246617506
:101290006C74223A20225745535422207D000D0AB7
:1012A0007B20224661756C74223A2022534F55549C
:1012B0004822207D000D0A7B20224661756C742235
:1012C0003A20224541535422207D000D0A7B2022E2
:1012D0004661756C74223A20224E4F5254482220A7
:1012E0007D000D0A0A57616974696E672E2E2E0003
:1012F00020793A000A0D783A002064793A00206497
:10130000783A002064697374616E63653A000A0D6F
:1013100077686963685F6F6E653A002064793A00A8
:101320002064783A002064697374616E63653A00E2
:101330000A0D77686963685F6F6E653A000A0D6E23
:1013400065775F74617267657420783A000D0A539F
:10135000656E64696E67207468652073636F72657B
:10136000002079733A00202078733A0020726F745D
:101370006174696F6E3A0020793A002020783A0053
:1013800020616E676C655F413A002073696E3A2098
:101390000020636F733A0020633A00202062653AB0
:1013A000002061653A002020623A0020613A000D79
:1013B0000A696E6465783A000A0A556E6B6E6F773B
:1013C0006E20526F746174696F6E3A00206E6F20E8
:1013D00064617461000D0A53656E736F723A200088
:1013E000206572726F723A0020657374696D617462
:1013F000653A002020795F6176673A000D0A785FD0
:101400006176673A000D0A657374696D6174653AB7
:10141000200020003A000D0A4D6963726F73656306
:101420006F6E6473200020000D0A436F756E747335
:10143000202020202020200020206C6F6361746910
:101440006F6E3A000D0A5265666572656E63653AA5
:10145000200020000D0A000D0A7A5F6F6666736532
:10146000745F636C6F636B3A000D0A636F6D707528
:1014700074655F68697428290020636F756E7473E2
:10148000002020576F727374206361736520646558
:101490006C61793A20006D6D2F7573000D0A5370E1
:1014A000656564206F6620736F756E643A20000076
:1014B000DB4A11241FBECFEFD1E2DEBFCDBF00E07B
:1014C0000CBF10E1A0E0B2E0E8E2FCEB00E00BBFF3
:1014D00002C007900D92A633B107D9F725E1A6E324
:1014E000B0E101C01D92A537B207E1F71AE0C9E5E6
:1014F000DAE000E006C021970109802FFE010E947A
:10150000225BC835D10780E00807A9F70E94604B2D
:101510000C94125E0C940000FC01A089B18982E059
:101520008C93A485B5851C92A685B78580E18C93A4
:10153000108EA489B58986E08C93A289B3898C9199
:1015400080618C93A289B3898C9188608C93A289E5
:10155000B3898C9180688C930288F389E02D808117
:101560008F7D80830895AF92BF92CF92DF92EF92EA
:10157000FF920F931F93CF93DF936C017B018B013D
:10158000040F151FEB015E01AE18BF08C017D1078D
:1015900059F06991D601ED91FC910190F081E02D17
:1015A000C6011995892B79F7C501DF91CF911F915C
:1015B0000F91FF90EF90DF90CF90BF90AF90089584
:1015C000FC01A089B1898C91A689B78982FD0FC0E1
:1015D0009C91818D8F5F8F73228D821749F0A18D31
:1015E000AE0FBF2FB11D5D969C93818F08958C9196
:1015F0000895FC01538D448D252F30E0842F90E019
:10160000821B930B541710F0CF96089501970895FD
:10161000FC01918D828D981761F0A28DAE0FBF2FC6
:10162000B11D5D968C91928D9F5F9F73928F90E01C
:1016300008958FEF9FEF0895FC01918D828D98178B
:1016400031F0828DE80FF11D858D90E008958FEFC8
:101650009FEF0895FC01918D228D892F90E0805C91
:101660009F4F821B91098F739927089580E993E119
:101670000E942A0B21E0892B09F420E0822F089593
:101680008DE294E10E942A0B21E0892B09F420E0ED
:10169000822F08958AEC94E10E942A0B21E0892B85
:1016A00009F420E0822F0895FC01A48DA80FB92F22
:1016B000B11DA35ABF4F2C91848D90E001968F737A
:1016C0009927848FA689B7892C93A089B1898C9199
:1016D000837080648C93938D848D981306C00288E8
:1016E000F389E02D80818F7D80830895EF92FF92B2
:1016F0000F931F93CF93DF93EC0181E0888F9B8D35
:101700008C8D98131AC0E889F989808185FF15C0EE
:101710009FB7F894EE89FF896083E889F989808111
:101720008370806480839FBF81E090E0DF91CF91E0
:101730001F910F91FF90EF900895F62E0B8D10E002
:101740000F5F1F4F0F731127E02E8C8D8E110CC071
:101750000FB607FCFACFE889F989808185FFF5CFBC
:10176000CE010E94540BF1CFEB8DEC0FFD2FF11D3C
:10177000E35AFF4FF0829FB7F8940B8FEA89FB89F9
:1017800080818062CFCFEF92FF920F931F93CF9310
:10179000DF938C017B01D0E0C0E0F701EC0FFD1F6F
:1017A0006491662339F0C8010E94760B892B11F0F1
:1017B0002196F3CFCE01DF91CF911F910F91FF9032
:1017C000EF9008950C94760BCF93DF93EC01888D06
:1017D0008823B9F0AA89BB89E889F9898C9185FDAC
:1017E00003C0808186FD0DC00FB607FCF7CF8C913A
:1017F00085FFF2CF808185FFEDCFCE010E94540B93
:10180000E9CFDF91CF91089580E090E0892B29F016
:101810000E944A0B81110E94000080E090E0892B19
:1018200049F080E090E0892B29F00E9400008111AE
:101830000E94000080E090E0892B29F00E94400B7C
:1018400081110E94000080E090E0892B29F00E9425
:10185000360B81110C94000008958150823108F0FC
:101860005AC0E82FF0E08827E75CF34F8F4F0C94C5
:10187000225B590C5D0C4B0C510C550C8B0C600C05
:10188000660C6A0C700C740C780C7E0C820C8B0C41
:10189000860C8C0C900C809180008F778093800058
:1018A0000895809180008F7DF9CF80918000877F9F
:1018B000F5CF84B58F7784BD089584B58F7DFBCF38
:1018C0008091B0008F778093B00008958091B00030
:1018D0008F7DF9CF809190008F778093900008954D
:1018E000809190008F7DF9CF80919000877FF5CF18
:1018F0008091A0008F778093A00008958091A00030
:101900008F7DF9CF8091A000877FF5CF8091200156
:101910008F77809320010895809120018F7DF9CFEA
:1019200080912001877FF5CFCF93DF93282F30E080
:10193000F901E154FE4E8491F901E758FE4ED4912D
:10194000F901ED5CFE4EC491CC23A1F081110E94FF
:101950002D0CEC2FF0E0EE0FFF1FE75EFE4EA59181
:10196000B491EC91ED2381E090E009F480E0DF9107
:10197000CF91089580E090E0FACF1F93CF93DF934B
:10198000282F30E0F901E154FE4E8491F901E75827
:10199000FE4ED491F901ED5CFE4EC491CC23A9F02A
:1019A000162F81110E942D0CEC2FF0E0EE0FFF1F7F
:1019B000E150FF4EA591B4918FB7F894EC911111BD
:1019C00008C0D095DE23DC938FBFDF91CF911F91AC
:1019D0000895DE2BF8CFCF93DF9390E0FC01E7581A
:1019E000FE4E24918D5C9E4EFC0184918823C9F0AB
:1019F00090E0880F991FFC01EB51FF4EA591B49127
:101A0000FC01E150FF4EC591D49161110DC09FB70B
:101A1000F8948C91209582238C93888128232883A5
:101A20009FBFDF91CF910895623051F49FB7F89432
:101A30003C91822F809583238C93E8812E2BEFCFCE
:101A40008FB7F894EC912E2B2C938FBFEACF1F9376
:101A5000CF93DF93182FEB0161E00E94EB0C2097EE
:101A600039F460E0812FDF91CF911F910C94BD0C70
:101A7000CF3FD10511F461E0F5CFE12FF0E0E15463
:101A8000FE4EE491E150E23108F0B3C0F0E0882767
:101A9000E35BF24F8F4F0C94225B5F0D670D6C0D73
:101AA000760D800DF90D8A0D920D9A0DA40DAE0DD7
:101AB000B80DC70DD10DF90DDB0DE50DEF0D84B59A
:101AC000806884BDC7BDDF91CF911F91089584B513
:101AD000806284BDC8BDF7CF80918000806880930C
:101AE0008000D0938900C0938800EDCF8091800062
:101AF000806280938000D0938B00C0938A00E3CFF4
:101B000080918000886080938000D0938D00C09386
:101B10008C00D9CF8091B00080688093B000C093D2
:101B2000B300D1CF8091B00080628093B000C093A9
:101B3000B400C9CF80919000806880939000D093CA
:101B40009900C0939800BFCF8091900080628093ED
:101B50009000D0939B00C0939A00B5CF80919000E5
:101B6000886080939000D0939D00C0939C00ABCF81
:101B70008091A00080688093A0008091A0008F7B5E
:101B80008093A000D093A900C093A8009CCF80911F
:101B9000A00080628093A000D093AB00C093AA0005
:101BA00092CF8091A00088608093A000D093AD0078
:101BB000C093AC0088CF8091200180688093200181
:101BC000D0932901C09328017ECF809120018062AB
:101BD00080932001D0932B01C0932A0174CF809170
:101BE0002001886080932001D0932D01C0932C01A7
:101BF0006ACFC038D1050CF03ECF33CF863308F022
:101C0000865320917B00982F9870277F922B90937A
:101C10007B008770806480937C0080917A00806470
:101C200080937A0080917A0086FDFCCF80917800C5
:101C30009091790008953FB7F89480917D1190912B
:101C40007E11A0917F11B091801126B5A89B05C08F
:101C50002F3F19F00196A11DB11D3FBFBA2FA92F2B
:101C6000982F8827BC01CD01620F711D811D911D28
:101C700042E0660F771F881F991F4A95D1F7089594
:101C80008F929F92AF92BF92CF92DF92EF92FF928C
:101C90006B017C010E941B0E4B015C01C114D1043D
:101CA000E104F104B9F00E941B0E681979098A0950
:101CB0009B09683E73408105910580F321E0C21ABB
:101CC000D108E108F10888EE880E83E0981EA11C77
:101CD000B11CE4CFFF90EF90DF90CF90BF90AF901A
:101CE0009F908F9008952FB7F8946091791170911B
:101CF0007A1180917B1190917C112FBF08950895E6
:101D000020912C11260F3327331F21323105ECF49B
:101D100020915211FC0190E080E0243069F082E0D3
:101D20000895A0912C112191AC01465F5E4EA40F45
:101D3000B52FB11D2C930196861798F380912C1125
:101D4000680F60932C1180E0089581E0089510924F
:101D5000521181E0809354111092531161E084E19B
:101D60000E94BD0C61E085E10E94BD0CE9EBF0E052
:101D700080818E7F808380818D7F808388E48093C3
:101D8000B80085E48093BC000895CF93DF9391E081
:101D9000909309118823B9F0C091B800D091BA008E
:101DA0008091BC008A7B8093BC0060E084E10E944B
:101DB000BD0C60E085E10E94BD0C0E94A70ED0938F
:101DC000BA00C093B800DF91CF91089508950895A7
:101DD0000895E091011180910011E81730F4F0E0CE
:101DE000E052FF4E808190E008958FEF9FEF0895BD
:101DF00090910111809100112FEF3FEF981748F457
:101E0000E92FF0E0E052FF4E208130E09F5F909399
:101E10000111C90108958091001190910111891B50
:101E2000990B0895CF92DF92EF92FF920F931F9339
:101E3000CF93DF937C01CB018A012091DF10222315
:101E400089F0EB016B01C40ED51ECC15DD0569F0E0
:101E50006991D701ED91FC910190F081E02DC701CE
:101E60001995F3CF642F0E94800EC801DF91CF91A6
:101E70001F910F91FF90EF90DF90CF900895CF9337
:101E8000DF931F92CDB7DEB769832091DF10222345
:101E9000F9F020910211203258F021E030E0FC01ED
:101EA0003383228390E080E00F90DF91CF910895FB
:101EB00080910311E82FF0E0E154FF4E9981908367
:101EC0008F5F809303118093021181E090E0ECCF4B
:101ED00061E0CE0101960E94800EF7CF90E080E095
:101EE0000895DC01FB01CF01861B970B3D912191E9
:101EF000332339F0222339F03217A9F38FEF9FEF04
:101F000002C02111FBCF089581E08093A612809139
:101F10008F13882331F06AE57FE08AEC94E10E9418
:101F2000C30BF89408950F931F93CF93DF938B0106
:101F3000EA0181309105F1F09CF4892BB1F0013078
:101F4000110529F1CCF4012BE9F0C130D10571F173
:101F500004F5CD2B19F1DF91CF911F910F910895C9
:101F60008A32910539F08E9751F761E084E00E9442
:101F7000BD0CE5CF60E0FACF0A32110541F00E3218
:101F8000110519F761E083E00E94BD0CDECF60E02F
:101F9000FACFCA32D10551F0AE97E9F661E082E09E
:101FA000DF91CF911F910F910C94BD0C60E0F7CFA2
:101FB000AF92BF92CF92DF92EF92FF920F931F9357
:101FC000CF93DF93C3E0D0E07C0121E0E222FF2445
:101FD0008C0102701127809590956C0121E0C2223E
:101FE000DD245C0122E0A222BB24A701B80190E01D
:101FF00080E00E94930F6AEF70E080E090E00E9422
:10200000400EA601B50184E090E00E94930F6AEFB4
:1020100070E080E090E00E94400E219731F7DF9160
:10202000CF911F910F91FF90EF90DF90CF90BF90D5
:10203000AF90089560E085E30E94BD0C61E085E308
:102040000E94BD0C60E085E30C94BD0C60E084E36D
:102050000E94BD0C60E08DE10C94BD0C60E085E356
:102060000E94BD0C60E084E30E94BD0C60E088E249
:102070000E94BD0C61E08DE10E94BD0C60E087E232
:102080000E94BD0C61E087E20E94BD0C61E084E328
:102090000C94BD0CCF93DF9389E10E94940C31E046
:1020A00020E0019709F030E0C32FD22F8AE10E948F
:1020B000940C019709F422968BE10E94940C0197ED
:1020C00009F424968CE10E94940C019709F4289657
:1020D000CE01DF91CF9108950F931F93CF93DF939C
:1020E0000EEE12E090E080E0EC01CC0FDD1FF80175
:1020F00080810E5F1F4F0E94940C817099278C2B5A
:102100009D2BF2E00E3F1F0779F79927DF91CF91C2
:102110001F910F910895FF920F931F93CF93DF9319
:10212000EC010EEF12E0F80180810E5F1F4F61E0BD
:102130000E94BD0CF3E00E301F07A9F761E088E2B2
:102140000E94BD0CCC0FDD1FFE01EE0FFF1FE25001
:10215000FD4F108160E0812F0E94BD0C0E946C1029
:10216000F82E61E0812F0E94BD0CCC0FDD1FC05006
:10217000DD4FC88160E08C2F0E94BD0C0E946C1066
:102180008C0161E08C2F0E94BD0C80E09F2D800FA0
:10219000911FDF91CF911F910F91FF900895CF93E1
:1021A000DF9390E080E00E948B10C9E7D3E1B0E0BC
:1021B000A0E088839983AA83BB8381E090E00E949A
:1021C0008B10B0E0A0E08C839D83AE83BF8382E060
:1021D00090E00E948B10B0E0A0E088879987AA87E2
:1021E000BB8783E090E00E948B10B0E0A0E08C877A
:1021F0009D87AE87BF87DF91CF9108958091B410FE
:10220000811106C08091B510811102C08091B61075
:102210000895CF92DF92EF92FF92CF93DF930E94C7
:102220001B0E6B017C01D0E0C0E00E941B0E6C19FC
:102230007D098E099F09603472448F409105F0F446
:1022400080E993E10E942A0B892B79F380E993E1DD
:102250000E94080B219741F021E090E08F3409F0B3
:1022600020E0C22FD92FE1CF8B34E9F681E0DF9156
:10227000CF91FF90EF90DF90CF90089580E0F7CF5F
:1022800080E993E10E942A0B892B29F080E993E1F0
:102290000E94080BF5CF089580910202811103C0BE
:1022A00080915D1008950E94401160ED7EE080E90C
:1022B00093E10E94C30B0E94091180935D1010925C
:1022C000020208950E944C11811104C080E993E13B
:1022D0000C942A0B20915E1030915F108091B01009
:1022E0009091B110821793070CF48096821B930B88
:1022F000089580918F13882331F063EC7DE08AECA0
:1023000094E10E94C30B4EE250E06EE270E08AE27C
:1023100090E00E94930F6AEF70E080E090E00E94EE
:10232000400E4EE250E06AE270E08EE290E00E94E1
:10233000930F6AEF70E080E090E00E94400E4AE266
:1023400050E06EE270E08EE290E00E94930F6AEF40
:1023500070E080E090E00E94400E4EE250E06EE2BD
:1023600070E08EE290E00C94930F85E00E94FE0DE9
:1023700097FDCF96FC0186E0F595E7958A95E1F704
:10238000EE0FFF1FEF58FD4F80819181853691053B
:1023900010F48CE291E00895882349F00E94B51171
:1023A0008C32914048F460E082E10C94BD0C0E94B4
:1023B000B5118C329140B8F761E0F6CF0F931F93BF
:1023C000CF93DF930E94B5118C32914080F589E064
:1023D0000E94940C8C018AE00E94940CEC01CC0FBA
:1023E000DD1FC00FD11F8BE00E94940C880F991F36
:1023F000880F991FC80FD91F8CE00E94940C9C0174
:1024000083E0220F331F8A95E1F72C0F3D1F2095A3
:1024100030952F7033278091601090916110806FFC
:10242000822B932BDF91CF911F910F9108958CE018
:102430000E94940C8C018BE00E94940CEC01CC0F58
:10244000DD1FC00FD11F8AE00E94940C880F991FD6
:10245000880F991FC80FD91F89E0CFCF0E94B511EF
:102460008C32914038F0EA988FE79EE09093120208
:10247000809311020895892B99F00E94B5118C3236
:10248000914080F084E89FE09093120280931102C3
:10249000809169008F7C806180936900EA9A089539
:1024A0000C942E1208950E9426100E942E1081E096
:1024B00090E00E943B121092A61281E090E00C94F2
:1024C0003B128AEC94E10E942A0B892B29F08AECBA
:1024D00094E10E94080B08950E946211892BF9F083
:1024E0000E944C11811103C080E993E1F2CF209149
:1024F0005E1030915F108091B0109091B1108217F2
:102500009307B1F0F901E057FF4E80812F5F3F4FF5
:102510002F71332730935F1020935E1008958DE262
:1025200094E10E942A0B892B29F08DE294E1D1CF0E
:102530008FEF089580E00895FB0101900020E9F7F6
:102540003197AF01461B570B0C94B30A8F929F92A1
:10255000AF92BF920F931F93CF93DF93CDB7DEB7A8
:10256000A1970FB6F894DEBF0FBECDBF19A24230BF
:1025700008F44AE08E010F5D1F4F842E912CB12C80
:10258000A12CA50194010E941958E62FB901CA0196
:10259000EA3004F5E05DD801EE938D01232B242B66
:1025A000252B79F790E080E0109729F0BD018AECA7
:1025B00094E10E949C12A1960FB6F894DEBF0FBE64
:1025C000CDBFDF91CF911F910F91BF90AF909F90A2
:1025D0008F900895E95CDFCF462FBC0190E080E04A
:1025E0000C94A6128F929F92AF92BF92EF92FF929D
:1025F0000F931F93CF93DF9390919012809191123C
:10260000C0918E12D0918F12209711F4C92FD82F1C
:1026100000916210109163100115110511F401E091
:1026200010E0209709F443C080918F13882331F084
:1026300067E47FE08AEC94E10E94C30B8AE08C9F00
:1026400040018D9F900C1124B12CA12CF12CE12C78
:1026500081E00E94CC1180918F13882359F063E4AC
:102660007FE08AEC94E10E94C30B6AE070E0CE0147
:102670000E94EC12C501B4010E94400E80E00E944D
:10268000CC1180918F13882331F06DE37FE08AECC9
:1026900094E10E94C30B6AE070E080E090E00E9449
:1026A000400E8FEFE81AF80AE016F10689F6DF917E
:1026B000CF911F910F91FF90EF90BF90AF909F909F
:1026C0008F9008958F929F92AF92BF92CF92DF9298
:1026D000EF92FF92CF93DF936B017C01AC019B01E2
:1026E0000E94CC5A69ED76E0811126C0460157015F
:1026F000E894B7F82FEF3FEF4FE75FE7C501B4016C
:102700000E94CC5A81110CC02FEF3FEF4FE75FE7DB
:10271000C501B4010E94AA566DED76E0181664F06A
:102720002FEF3FEF4FE75FE4C701B6010E946D5AFC
:10273000181684F461EE76E08AEC94E1DF91CF9193
:10274000FF90EF90DF90CF90BF90AF909F908F90D1
:102750000C949C122FEF3FEF4FE75FECC701B601DF
:102760000E94AA5687FDE6CF20E030E0A901C7010C
:10277000B6010E94AA56D0E0C0E087FF0AC06DE211
:102780008AEC94E10E94E20BEC01F7FAF094F7F87E
:10279000F0942AE037ED43EA5BE3C701B6010E94FB
:1027A0005C584B015C010E94B8596B017C010E948E
:1027B000AF569B01AC01C501B4010E945B584B01AF
:1027C0005C014AE0C701B6010E94A612C80FD91FDA
:1027D0006EE28AEC94E10E94E20BC80FD91F20E060
:1027E00030E040E251E4C501B4010E9410574B01B2
:1027F0005C010E94B8596B016AE070E0C6010E945A
:10280000EC12C80FD91FB60190E080E00E94AF56CD
:102810009B01AC01C501B4010E945B5820E030E08F
:1028200040E251E40E9410570E94B859CB016AE07F
:1028300070E00E94EC128C0F9D1FDF91CF91FF90F2
:10284000EF90DF90CF90BF90AF909F908F900895C2
:102850006115710511F00C949C1290E080E00895D0
:10286000EF92FF920F931F93CF93DF93892B59F52C
:1028700060E87FE08AEC94E10E94C30B88E6E82ED2
:1028800086E0F82ED0E0C0E0F701019111917F01C0
:1028900001151105C1F06AE070E0CE010E94EC1252
:1028A0006CE77FE08AEC94E10E94C30BB8018AECEC
:1028B00094E10E94281466E77FE08AEC94E10E948C
:1028C000C30B2196E1CFDF91CF911F910F91FF9024
:1028D000EF900895CF92DF92EF92FF920E94401105
:1028E0000E944C11811106C060E17FE08AEC94E106
:1028F0000E94C30B63E07FE08AEC94E10E94C30B6B
:10290000E091BB12F091BC12EE0FFF1FE859F94F96
:10291000608171818AEC94E10E94281460EF7EE06E
:102920008AEC94E10E94C30B65EE76E080E993E1C6
:102930000E94281468EE73E080E090E00E94400E50
:1029400069EE76E080E993E10E94281461EE7EE072
:102950008AEC94E10E94C30B62EF76E080E993E198
:102960000E9428140E941B0E6B017C010E941B0E0A
:102970006C197D098E099F0960347B448C44910554
:1029800080F480E993E10E942A0B892B79F380E996
:1029900093E10E94080B682F8AEC94E10E94E20BFD
:1029A000E5CF65ED7EE08AEC94E1FF90EF90DF905B
:1029B000CF900C94C30BCF92DF92EF92FF92CF9304
:1029C000DF936C01990FEE08FF08F7FE19C06DE266
:1029D0008AEC94E10E94E20BEC0166277727CB0199
:1029E0006C197D098E099F094AE00E94A6128C0F7E
:1029F0009D1FDF91CF91FF90EF90DF90CF900895D2
:102A00004AE0C701B601DF91CF91FF90EF90DF90D0
:102A1000CF900C94A612CF93DF93EC016BE67FE08E
:102A20008AEC94E10E94C30BCE010E94DB1488EE75
:102A300093E0C89FB001C99F700DD89F700D1124FD
:102A4000072E000C880B990BDF91CF910C94400E50
:102A5000EF92FF920F931F93CF93DF938C0180919E
:102A60008F138823B9F062E978E08AEC94E10E9440
:102A7000C30BC8010E94DB146FE778E08AEC94E195
:102A80000E94C30B6AE070E080914610909147105D
:102A90000E94EC120B3A110561F48091461090915E
:102AA00047100091B3121091B412892B11F010E06D
:102AB00000E084E6E82EF12CC0914610D09147103A
:102AC0000C171D07C9F09C2F80E0B7010E94FA5A2D
:102AD00085E00E94270D0C171D0760F42197D09305
:102AE0004710C093461064E170E080E090E00E94DF
:102AF000400EE2CF2196F3CF012B51F460E085E048
:102B0000DF91CF911F910F91FF90EF900C94BD0C2E
:102B1000DF91CF911F910F91FF90EF900895CF9388
:102B2000DF9320914610309147108217930759F197
:102B3000EC0180918F138823B9F06CE678E08AEC81
:102B400094E10E94C30BCE010E94DB1469E578E09A
:102B50008AEC94E10E94C30B6AE070E08091461019
:102B6000909147100E94EC12D0934710C0934610EA
:102B70009C2F80E064E670E00E94FA5A85E0DF91C5
:102B8000CF910C94270DDF91CF910895CF92DF92D2
:102B9000EF92FF920F931F93CF93DF9381E0809387
:102BA000DF108FE4809348101092031110920211ED
:102BB00060E087E695E10E943F0FC0910211C132AB
:102BC00008F091C00E941B0E6B017C018091521194
:102BD000811164C082E08093521181E0809354118E
:102BE0008FEF8093511110927611C0937511AFEB56
:102BF000B0E1E5E5F1E180E0C813E8C0109277119B
:102C0000809177118E698093771180915311813073
:102C100009F0E0C0109253110E941B0E6B017C0161
:102C2000809177118093BB008091051190910611DE
:102C3000A0910711B0910811892B8A2B8B2B99F049
:102C40000E941B0E00910511109106112091071191
:102C5000309108116C197D098E099F090617170715
:102C600028073907E0F18091BC0083FDD9CF85ECBE
:102C70008093BC000E941B0E6B017C01809152115D
:102C8000823009F4A9C0809151118F3F61F1809188
:102C90005111803241F18091511125C0809105116F
:102CA00090910611A0910711B0910811892B8A2BE0
:102CB0008B2B09F48BCF0E941B0E009105111091F4
:102CC000061120910711309108116C197D098E09A8
:102CD0009F09061717072807390708F077CF809153
:102CE00004110E94C50E109203111092021110924D
:102CF000DF100E941B0E6B017C018091521181112B
:102D00008DC081E080935211809354119FEF909376
:102D100051111092761180937511809377118091E3
:102D200077118E698093771180915311813009F06A
:102D3000C6C0109253110E941B0E6B017C01809142
:102D400077118093BB008091051190910611A0919D
:102D50000711B0910811892B8A2B8B2BA1F00E94AF
:102D60001B0E009105111091061120910711309151
:102D700008116C197D098E099F0906171707280786
:102D8000390708F46CC08091BC0083FDD8CF85EC76
:102D90008093BC000E941B0E6B017C01809152113C
:102DA000813009F48EC080917611823008F0ABC07A
:102DB00080917611A5E5B1E1E0EEF0E190E09817A1
:102DC00009F452C02D9121939F5FF9CF9D9191936A
:102DD0008F5F12CF85EE4CCF809105119091061137
:102DE000A0910711B0910811892B8A2B8B2B09F424
:102DF00045CF0E941B0E00910511109106112091E4
:102E00000711309108116C197D098E099F09061769
:102E100017072807390708F031CF61CF80910511D6
:102E200090910611A0910711B0910811892B8A2B5E
:102E30008B2B09F462CF0E941B0E0091051110919B
:102E4000061120910711309108116C197D098E0926
:102E50009F09061717072807390708F04ECF8091FA
:102E600004110E94C50E80E01092011180930011A0
:102E700087E695E10E94F80ED82F80E0C82F87E6FC
:102E800095E10E94F80EBE01680F791F660F672F4B
:102E9000661F770B072E000C880B990B0E94B1560A
:102EA00020E030E040E05FE30E941057DF91CF91D7
:102EB0001F910F91FF90EF90DF90CF90089585EED6
:102EC00067CF8091051190910611A0910711B091E3
:102ED0000811892B8A2B8B2B09F460CF0E941B0EC3
:102EE00000910511109106112091071130910811E0
:102EF0006C197D098E099F090617170728073907DE
:102F000008F04CCFACCF82E055CFEF92FF920F93F9
:102F10001F93CF93DF938C0168EC7EE08AEC94E101
:102F20000E94C30BD0E0C0E0EE24E394F12CC70173
:102F30000C2E02C0880F991F0A94E2F78023912378
:102F4000892B09F4A1C0FE01E855F94F60818AEC94
:102F500094E10E94E20B2196C430D10541F767EF5E
:102F600076E08AEC94E10E942814C9E7D3E188EA6C
:102F7000E82E86E0F82E89919991A991B991892B33
:102F80008A2B8B2B09F487C0F70160818AEC94E1CE
:102F90000E94E20BFFEFEF1AFF0A23E1C938D207C4
:102FA00051F765EB7EE08AEC94E10E94C30B8091BF
:102FB000A61290E00E94DB146CEA7EE08AEC94E1B9
:102FC0000E94C30B80E00E94FE0DBC01990F880B8C
:102FD000990B0E94B15620E030E040EA50E40E9494
:102FE000105720E030E040E85AE30E9410570E945A
:102FF00062136DE97EE08AEC94E10E94C30B0E94AB
:10300000C6150E94621363E97EE08AEC94E10E9497
:10301000C30B8BE00E94940C60E97EE0892B11F4D5
:103020006DE87EE08AEC94E10E94C30B6BE87EE0E1
:103030008AEC94E10E94C30B8AE00E94940C68E839
:103040007EE0892B11F465E87EE08AEC94E10E9431
:10305000C30B0F7011270F30110521F58091A612B7
:10306000882301F16FE77EE08AEC94E10E94C30BB4
:1030700068EE73E080E090E0DF91CF911F910F91B7
:10308000FF90EF900C94400E66EC7EE08AEC94E1A9
:103090000E94C30B60CF64EC7EE08AEC94E10E9456
:1030A000C30B78CFDF91CF911F910F91FF90EF90DD
:1030B00008954F925F926F927F928F929F92AF92FC
:1030C000BF92CF92DF92EF92FF926B017C0123E3DC
:1030D00033E948E853E40E945C5823E333E948E8C5
:1030E00053E40E943F590E94885A4B015C0121ED34
:1030F0003BE344E459E3C701B6010E9410579B012A
:10310000AC0161EE70E48DE09DE30E945B582B0101
:103110003C01A7019601C701B6010E9410572DEE90
:1031200039EE47E759E30E9410579B01AC01C301F8
:10313000B2010E945C5820E030E040EA50E40E9476
:1031400010576B017C0126E636EA45EA53E4C501D7
:10315000B4010E9410579B01AC01C701B6010E9447
:103160005C5820E030E04AE754E40E94105720E029
:1031700034E244E759E40E943F596B017C0180919D
:103180008F13882381F16CE974E18AEC94E10E9449
:10319000C30BC701B6010E94621366E974E18AECB1
:1031A00094E10E94C30B61E874E18AEC94E10E940F
:1031B000C30BA70196016091690270916A02809128
:1031C0006B0290916C020E943F5920E030E040E099
:1031D00051E40E9410570E94621369E774E18AEC7F
:1031E00094E10E94C30BC701B601FF90EF90DF90FE
:1031F000CF90BF90AF909F908F907F906F905F9097
:103200004F9008958F929F92AF92BF92CF92DF928C
:10321000EF92FF92CF93DF930E94C6150E94591838
:103220006B017C01C0928913D0928A13E0928B13B8
:10323000F0928C13CDECD2E11982188260918E103D
:1032400070918F10072E000C880B990B0E94B156BD
:10325000A70196010E943F5920E030E040E051E490
:103260000E9410576B877C878D879E8720E030E017
:1032700040E05FE36091690270916A0280916B02A5
:1032800090916C020E9410574B015C0160918C1070
:1032900070918D10072E000C880B990B0E94B1566F
:1032A000A50194010E945C58A70196010E943F5914
:1032B00020E030E040E051E40E9410576F87788BA7
:1032C000898B9A8B81E090E09CA78BA760918A10F4
:1032D00070918B10072E000C880B990B0E94B15631
:1032E000A50194010E945C58A70196010E943F59D4
:1032F00020E030E040E051E40E9410576EAB7FAB1D
:1033000088AF99AF6091881070918910072E000CDA
:10331000880B990B0E94B15620E030E0A9010E9471
:103320005C58A70196010E943F5920E030E040E040
:1033300051E40E9410576AAF7BAF8CAF9DAF82E023
:1033400090E09093241380932313609186107091E2
:103350008710072E000C880B990B0E94B156A7010D
:1033600096010E943F5920E030E040E051E40E9485
:10337000105720E030E0A9010E945C5860932E13A2
:1033800070932F13809330139093311360918410B6
:1033900070918510072E000C880B990B0E94B15676
:1033A000A50194010E945C589058A70196010E94C3
:1033B0003F5920E030E040E051E40E941057609314
:1033C000321370933313809334139093351383E047
:1033D00090E090934F1380934E1360918210709100
:1033E0008310072E000C880B990B0E94B156A50183
:1033F00094010E945C589058A70196010E943F5981
:1034000020E030E040E051E40E94105760935913EF
:1034100070935A1380935B1390935C1360918010A8
:1034200070918110072E000C880B990B0E94B156E9
:10343000A70196010E943F5920E030E040E051E4AE
:103440000E94105760935D1370935E1380935F1317
:1034500090936013DF91CF91FF90EF90DF90CF902A
:10346000BF90AF909F908F9008952F923F924F9270
:103470005F926F927F928F929F92AF92BF92CF9204
:10348000DF92EF92FF920F931F93CF93DF93CDB70D
:10349000DEB76F970FB6F894DEBF0FBECDBF8D833A
:1034A00080918F13882331F069E674E18AEC94E10E
:1034B0000E94C30B0E94021960918D1370918E13AC
:1034C000072E000C880B990B0E94B15620E030E0CB
:1034D00040E051E40E9410572091891330918A13E3
:1034E00040918B1350918C130E943F596C877D87BC
:1034F0008E879F8780918F13882309F42BC667E5F9
:1035000074E18AEC94E10E94C30B6C857D858E8505
:103510009F850E94621364E574E18AEC94E10E9445
:10352000C30B2D81211102C00E94CF1080918F13F7
:10353000882321F14DEA56E05E834D8309E713E1CC
:10354000AD81BE816D917D91BE83AD838AEC94E1A6
:103550000E942814F80161917191819191918F01DC
:103560004AE00E94A61262E574E18AEC94E10E94AE
:10357000C30B2D813E81255B364011F76091791395
:1035800070917A1380917B1390917C130E94AF56B7
:10359000162F072FF82EE92E3DE7C32E33E1D32E49
:1035A0001B861A8681E090E09E838D83D6016D9103
:1035B0007D918D919D916D010E94AF564B015C01F3
:1035C000212F302F4F2D5E2D0E946D5A181644F476
:1035D000ED81FE81FB87EA87182D092DFA2CEB2C53
:1035E0002D813E812F5F3F4F3E832D832430310557
:1035F000E9F680918F138823D9F064E474E18AECB2
:1036000094E10E94C30B612F702F8F2D9E2D0E947D
:10361000621368E374E18AEC94E10E94C30BEA85CB
:10362000FB85E855F94F60818AEC94E10E94E20B3A
:1036300029E7C22E23E1D22E4DEC52E15E834D8369
:1036400077247394D6018D909D90AD90BD906D01BF
:10365000C501B4010E94AF569B01AC01612F702FD0
:103660008F2D9E2D0E945B58ED81FE81638B748BA4
:10367000858B968B89288A288B2809F4AAC27282A6
:10368000ED81FE81BB96FE83ED83F9E8CF16F3E171
:10369000DF06C1F680918F13882309F465C068E2C4
:1036A00074E18AEC94E10E94C30B2DEA36E03E837C
:1036B0002D839DECE92E92E1F92E8901D801ED913F
:1036C000FD918D0160818AEC94E10E94E20B6AE732
:1036D0007DE08AEC94E10E942814F70163897489E3
:1036E000858996890E94621366E274E18AEC94E10E
:1036F0000E94C30BFBE2EF0EF11C26E0053B120714
:10370000E9F666E174E18AEC94E10E94C30B0DECEA
:1037100012E1AD81BE81ED91FD91BE83AD836081EB
:103720008AEC94E10E94E20B64E174E18AEC94E19A
:103730000E94C30B20E030E040E05EE3F8016389C3
:103740007489858996890E9410570E94621362E1EC
:1037500074E18AEC94E10E94C30B055D1F4F2D813B
:103760003E81255B3640A9F68DEC92E19E838D83E8
:10377000F12CE12C8BE2D82EED81FE818389948996
:10378000A589B689838F948FA58FB68FFFEFEF1A27
:10379000FF0AC70183709927D89E8001D99E100D1A
:1037A000112403531D4ED8011B962D913D914D912F
:1037B0005C911E97ED81FE81638574858585968574
:1037C0000E945B582B013C01D8011F962D913D9121
:1037D0004D915C915297ED81FE8167857089818959
:1037E00092890E945B584B015C01A3019201C301C5
:1037F000B2010E9410572B013C01A5019401C501A3
:10380000B4010E9410579B01AC01C301B2010E9498
:103810005C580E94885AAD81BE815F966D937D93FE
:103820008D939C9392979B96BE83AD83B4E0EB16E9
:10383000F10409F0A1CF8091131390911413A0917A
:103840001513B09116138093E4129093E512A09390
:10385000E612B093E71280913E1390913F13A0912E
:103860004013B091411380930F1390931013A093C2
:103870001113B09312138091691390916A13A09160
:103880006B13B0916C1380933A1390933B13A093F6
:103890003C13B0933D138091E8129091E912A091EE
:1038A000EA12B091EB128093651390936613A09384
:1038B0006713B0936813C090E012D090E112E090CB
:1038C000E212F090E31200910B1310910C13E091AF
:1038D0000D13E987F0910E13FD839801AF01B60136
:1038E000C7010E946D5A18161CF08601E986FD82F8
:1038F000C0903613D0903713E0903813F0903913FE
:10390000980149855D81B601C7010E94AA5687FDCD
:1039100003C06801E984FD80009161131091621376
:10392000209163132987309164133D839601A70189
:10393000B80189859D810E94AA5687FD03C0860132
:10394000E986FD82980149855D816091EC12709154
:10395000ED128091EE129091EF120E945B5820E0E0
:1039600030E040E85FE30E945C58362E272E8987BE
:10397000092F80918F13882361F065E074E18AEC50
:1039800094E10E94C30B632D722D8985902F0E94B4
:10399000621345E150E0598F488F2BE2AA85BB8521
:1039A0002A9FC0012B9F900D112483539D4EFC0133
:1039B0003B96FB8FEA8F9C01215F3F4F3D8F2C8F01
:1039C0004DEC52E15F8F4E8F1C8A1D8A1E8A1F8A22
:1039D000188A198A1A8A1B8A10918F13AE8DBF8D8F
:1039E00012968C9181110BC11123A1F065ED73E149
:1039F0008AEC94E10E94C30B6AE070E0EE8DFF8DCB
:103A0000808191810E94EC126CEC73E18AEC94E16C
:103A10000E94C30B2E8D3F8D255D3F4F3F8F2E8F14
:103A200029573341C9F620E030E040E85EE3688979
:103A300079898A899B890E9410576D837E838F8341
:103A4000988720E030E040E85EE36C897D898E89CC
:103A50009F890E9410572B013C012D813E814F818F
:103A60005885AA8DBB8D6D917D918D919C910E9401
:103A70005B584B015C01A3019201EC8DFD8D6081CF
:103A80007181828193810E945B586B017C01A50149
:103A90009401C501B4010E9410574B015C01A701BC
:103AA0009601C701B6010E9410579B01AC01C501E8
:103AB000B4010E945C580E94885AB62E788B8C8B79
:103AC000192F262F372F482F592F632D722D8985B7
:103AD000902F0E945B586B017C0120E030E0A9012F
:103AE0000E946D5A181624F0F7FAF094F7F8F09443
:103AF00080918F13882391F16CEF73E18AEC94E14C
:103B00000E94C30B6D817E818F8198850E94621314
:103B100063EF73E18AEC94E10E94C30BC301B2012D
:103B20000E94621368EE73E18AEC94E10E94C30B79
:103B30006B2D78898C89912F0E94621360EE73E15E
:103B40008AEC94E10E94C30BC701B6010E94621384
:103B500066E978E08AEC94E10E949C12288D398D08
:103B600021503109398F288F232BC1F51092C012B3
:103B70001092BF128D819E81AF81B8858093C11252
:103B80009093C212A093C312B093C4124092C51274
:103B90005092C6126092C7127092C8128A859B8595
:103BA0006F960FB6F894DEBF0FBECDBFDF91CF91F9
:103BB0001F910F91FF90EF90DF90CF90BF90AF904B
:103BC0009F908F907F906F905F904F903F902F903D
:103BD0000895AD81BE8112961C9252CD2FE632E13E
:103BE00043E85AE3C701B6010E946D5A18160CF05B
:103BF000BDCF3B2C28883C893987012FE1CEAE8D83
:103C0000BF8D57962D913D914D915C915A97632DA3
:103C1000722D8985902F0E945C584B015C012C8588
:103C20003D854E855F85CA01B9010E9410576B0121
:103C30007C01A5019401C501B4010E941057A701A0
:103C400096010E945B580E94885A6D837E838F8301
:103C50009887EE8DFF8D238D348D458D568D632D88
:103C6000722D8985902F0E945C589B01AC010E94A7
:103C70001057A70196010E945B580E94885A6B0159
:103C80007C01AE8DBF8D5F968D909D90AD90BC9068
:103C90009297AC019B016D817E818F8198850E94F6
:103CA0005C58A50194010E94AA5687FF29C0EE8D99
:103CB000FF8D1382148215821682EE8DFF8D808116
:103CC00091818130910509F494C108F45CC082307F
:103CD000910509F4D7C1039709F417C2112309F418
:103CE0009CC068EB73E18AEC94E10E94C30B6AE02C
:103CF00070E0AE8DBF8D8D919C910E94EC128DC0B5
:103D00002D813E814F815885CA01B9010E9410570B
:103D10002B013C01A7019601C701B6010E94105773
:103D20009B01AC01C301B2010E945B582B013C0115
:103D3000A5019401C501B4010E9410579B01AC017B
:103D4000C301B2010E945B582B013C0120E030E02E
:103D500040E050ECC701B6010E941057A501940144
:103D60000E9410579B01AC01C301B2010E943F5950
:103D70000E944A58AE8DBF8D13966D937D938D939F
:103D80009C9316979ACFAE8DBF8D13962D913D9132
:103D90004D915C9116976BED7FE089E49FE30E9463
:103DA0005B5869837A838B839C830E947A5A9B0138
:103DB000AC01C701B6010E9410579B01AC01EE8D0A
:103DC000FF8D63857485858596850E945C58AE8DD0
:103DD000BF8D93966D937D938D939C9396976981F8
:103DE0007A818B819C810E943A599B01AC01C70169
:103DF000B6010E9410579B01AC01EE8DFF8D6785C7
:103E00007089818992890E945B58AE8DBF8D97968B
:103E10006D937D938D939C939A9780918F138823B4
:103E200009F4C4C06FEA73E18AEC94E10E94C30B09
:103E30006AE070E0EE8DFF8D808191810E94EC122E
:103E40006BEA73E18AEC94E10E94C30BAE8DBF8DE7
:103E500057966D917D918D919C915A970E94621316
:103E600066EA73E18AEC94E10E94C30BEE8DFF8D4C
:103E7000638D748D858D968D0E94621361EA73E166
:103E80008AEC94E10E94C30B6D817E818F819885BD
:103E90000E9462136BE973E18AEC94E10E94C30B08
:103EA000C701B6010E94621367E973E18AEC94E1ED
:103EB0000E94C30BAE8DBF8D5F966D917D918D91EC
:103EC0009C9192970E94621361E973E18AEC94E1FC
:103ED0000E94C30B69817A818B819C810E943A592F
:103EE0000E9462136AE873E18AEC94E10E94C30BBA
:103EF00069817A818B819C810E947A5A0E94621327
:103F000060E873E18AEC94E10E94C30BEE8DFF8DB3
:103F100063817481858196810E9462136BE773E1EE
:103F20008AEC94E10E94C30BAE8DBF8D1B966D9100
:103F30007D918D919C911E970E94621367E773E1BA
:103F40008AEC94E10E94C30BEE8DFF8D678570892A
:103F5000818992890E9462136CE673E18AEC94E194
:103F60000E94C30B69817A818B819C810E946213BC
:103F700066E673E18AEC94E10E94C30BAE8DBF8DBF
:103F800093966D917D918D919C9196970E9462136D
:103F900061E673E18AEC94E10E94C30BEE8DFF8D24
:103FA00067A170A581A592A50E946213AE8DBF8DF9
:103FB00093962D913D914D915C9196976889798961
:103FC0008A899B890E945C58688B798B8A8B9B8B32
:103FD000EE8DFF8D27A130A541A552A56C897D8965
:103FE0008E899F890E945C586C8B7D8B8E8B9F8BFA
:103FF00011CD2BED3FE049E45FE3EE8DFF8D638152
:104000007481858196810E945B5869837A838B8352
:104010009C830E943A599B01AC01C701B6010E94E2
:1040200010579B01AC01AE8DBF8D1B966D917D919C
:104030008D919C911E970E945B58EE8DFF8D63A31E
:1040400074A385A396A369817A818B819C810E9448
:104050007A5A9B01AC01C701B6010E9410579B011F
:10406000AC01AE8DBF8D1F966D917D918D919C9110
:1040700052970E945C58EE8DFF8D67A370A781A7B1
:1040800092A7CBCE2BED3FE049E45FE3AE8DBF8D31
:1040900013966D917D918D919C9116970E945C581D
:1040A00069837A838B839C830E943A599B01AC017C
:1040B000C701B6010E9410579B01AC01EE8DFF8D28
:1040C00063857485858596850E945B58AE8DBF8D0E
:1040D00093966D937D938D939C93969769817A8146
:1040E0008B819C810E947A5A9B01AC01C701B60169
:1040F0000E9410579B01AC01EE8DFF8D6785708982
:10410000818992890E945C5880CEEE8DFF8D23813B
:104110003481458156816BED7FE089E49FE30E9405
:104120005B5869837A838B839C830E943A599B01F5
:10413000AC01C701B6010E9410579B01AC01AE8DC6
:10414000BF8D1B966D917D918D919C911E970E94C4
:104150005C5873CF9D81911111CAE6C92F923F928D
:104160004F925F926F927F928F929F92AF92BF9287
:10417000CF92DF92EF92FF920F931F93CF93DF9333
:10418000CDB7DEB7C656D1090FB6F894DEBF0FBE65
:10419000CDBF5C01BC018AEC94E10E9428140E940E
:1041A0004C11882309F41DC110927B1010927A10D3
:1041B00022242394312C6E0121E4C20ED11C0091E3
:1041C0007A1010917B100330110509F40FC1C8015A
:1041D0008C549F4EA5969FAF8EAFA597FC01808112
:1041E000882309F4F4C083E0882E912CC801880F3D
:1041F000991FA3969FAF8EAFA3978D5F9D4FA796F4
:104200009FAF8EAFA7977C01A796EEADFFADA797A6
:10421000808191818330910509F4CDC0C0F4813053
:10422000910509F46BC082309105A1F7B50180E9D1
:1042300093E10E94281465E177E080E993E10E9410
:10424000281483E090E0F70191838083DDCF8430F0
:10425000910509F4A0C085309105E1F6A396EEAD75
:10426000FFADA397ED5FFD4F318220820E944C117C
:1042700065EE76E080E993E10E94281468EE73E031
:1042800080E090E00E94400EA596EEADFFADA597B0
:1042900010821F930F9388E197E09F938F93DF9293
:1042A000CF920E943C5BB60180E993E10E94281402
:1042B0001F930F9389E297E09F938F93DF92CF92A2
:1042C0000E943C5BB6018AEC94E10E94281468EEDF
:1042D00073E080E090E00E94400E0FB6F894DEBFDD
:1042E0000FBECDBF80E993E10E942A0B892B09F410
:1042F0006EC080E993E10E94080BF4CFF8E0FF93D1
:104300001F921F930F9380E097E09F938F9381E01C
:1043100090E08C0F9D1F9F938F930E943C5BBE018A
:104320006F5F7F4F80E993E10E9428140E941B0E6B
:104330002B013C010FB6F894DEBF0FBECDBF0E942B
:104340001B0E6419750986099709603472448F4001
:10435000910588F480E993E10E942A0B892B79F377
:1043600080E993E10E94080B8E3349F782E090E0E8
:10437000F70191838083F70180819181029709F48D
:1043800043CFF1E08F1A910884E090E009F05BCF11
:1043900085E090E058CF67E67FE080E993E10E94F6
:1043A000C30B6CE474E080E090E00E94400EF701E3
:1043B0003182208229CF0E940911882349F3A396D4
:1043C000EEADFFADA397ED5FFD4F3182208280916E
:1043D0007A1090917B10019690937B1080937A10C5
:1043E000EECEB50180E993E10E942814B5018DE27B
:1043F00094E10E942814CA59DF4F0FB6F894DEBF2B
:104400000FBECDBFDF91CF911F910F91FF90EF9025
:10441000DF90CF90BF90AF909F908F907F906F90E4
:104420005F904F903F902F900895CF92DF92EF9240
:10443000FF920F931F93CF93DF93CDB7DEB7A09773
:104440000FB6F894DEBF0FBECDBF082F162F0E9407
:10445000730E24E630E040E050E00E9419586901F4
:104460007A018091781090917910892B09F58091CB
:10447000A7129091A812892BD9F41092451010928E
:1044800044108FEF9FEF9093010280930002CA01C6
:10449000B901A0960FB6F894DEBF0FBECDBFDF9175
:1044A000CF911F910F91FF90EF90DF90CF900895E3
:1044B0000023B9F0C0924010D0924110E092421017
:1044C000F092431080917E1090917F10892B09F417
:1044D0004FC0109245101092441090E080E00E946E
:1044E0008F15112371F010923F1010923E108091A1
:1044F0007E1090917F10892B21F010924510109220
:10450000441080918F138823F1F000914410109192
:10451000451080910002909101028017910799F057
:1045200068E478E08AEC94E10E94C30B6AE070E0F2
:10453000C8010E94EC128091441090914510909314
:10454000010280930002E0914410F0914510E830A0
:10455000F10560F58827E055FD4D8F4F0C94225BE7
:10456000C62243237023AB23E62317244424A1242B
:1045700080918A1290918B12892B09F4B2CF86E038
:1045800090E09093451080934410ABCF80917E10C3
:1045900090917F10892B19F586E090E0909345105B
:1045A000809344101092A8121092A7128091441088
:1045B000909145108B7F039709F00FC280914010B6
:1045C00090914110A0914210B0914310A701960123
:1045D000281B390B4A0B5B0BCA01B9015ACF8091DA
:1045E000401090914110A0914210B0914310A7014A
:1045F0009601281B390B4A0B5B0BCA01B9012AE053
:1046000030E040E050E00E94195889019A01809101
:104610003C1090913D1040913A1050913B10840F06
:10462000951F66EF7FEF0E940E5B80917610909150
:104630007710860F971F092E000CAA0BBB0B801753
:104640009107A207B30708F0B1CFC0924010D092F3
:104650004110E0924210F092431080913E109091F0
:104660003F10019690933F1080933E1081E090E0C0
:1046700090934510809344108091B3129091B4129E
:104680000E948F1593CF8091401090914110A0917E
:104690004210B0914310B701A601481B590B6A0B99
:1046A0007B0B80913C1090913D10092E000CAA0BC1
:1046B000BB0B84179507A607B70708F077CF82E0F2
:1046C00090E09093451080934410C0924010D09297
:1046D0004110E0924210F092431090E080E0D0CF81
:1046E0008091401090914110A0914210B0914310E0
:1046F000B701A601481B590B6A0B7B0B80913A103E
:1047000090913B10092E000CAA0BBB0B8417950748
:10471000A607B70708F04ACF83E090E090934510D2
:1047200080934410C0924010D0924110E092421009
:10473000F09243108091B3129091B4120E948F15A1
:1047400065E477E0CE0101960E94355BCE010196CB
:104750000E94AE202BCF8091401090914110A091EB
:104760004210B0914310B701A601481B590B6A0BC8
:104770007B0B80917E1090917F10092E000CAA0B6C
:10478000BB0B84179507A607B70708F00FCF8091DA
:104790009C1290919D12009751F020913E10309103
:1047A0003F102817390718F084E090E08ACF109264
:1047B00045101092441064E577E0CE0101960E9406
:1047C000355BCE0101960E94AE207FCF80914010D4
:1047D00090914110A0914210B0914310B701A601F1
:1047E000481B590B6A0B7B0B80913A1090913B1040
:1047F000092E000CAA0BBB0B84179507A607B70759
:1048000008F0D4CE85E090E090934510809344105A
:10481000C0924010D0924110E0924210F0924310AA
:104820008091B3129091B4120E942815BFCE80914E
:10483000401090914110A0914210B0914310B701E7
:10484000A601481B590B6A0B7B0B80913C10909181
:104850003D10092E000CAA0BBB0B84179507A60769
:10486000B70708F0A3CE84E090E0909345108093C2
:104870004410C0924010D0924110E0924210F09249
:10488000431090E080E0D0CF80918A1290918B12FB
:10489000892B29F4109279101092781087CE80918C
:1048A000401090914110A0914210B0914310A70187
:1048B0009601281B390B4A0B5B0BCA01B9012AE090
:1048C00030E040E050E00E94195889019A0180913F
:1048D0003C1090913D1040913A1050913B10840F44
:1048E000951F66EF7FEF0E940E5B80917410909190
:1048F0007510860F971F092E000CAA0BBB0B801793
:104900009107A207B30708F051CEC0924010D09291
:104910004110E0924210F092431087E090E09093B3
:1049200045108093441063E677E0CE0101960E9423
:10493000355BCE0101960E94AE2081E00E94CC1131
:104940006FCF8091401090914110A0914210B09192
:104950004310B701A601481B590B6A0B7B0B8091D2
:104960008A1290918B12092E000CAA0BBB0B841794
:104970009507A607B70708F019CE80919A12909173
:104980009B120097C9F020913E1030913F102817DC
:10499000390790F088E090E09093451080934410A0
:1049A000C0924010D0924110E0924210F092431019
:1049B00080E00E94CC1165CF86E090E09093451096
:1049C0008093441061E777E0CE0101960E94355B49
:1049D000CE0101960E94AE20E3CF60E070E0CB01F3
:1049E00058CD0F931F93CF93DF93CDB7DEB7C0544D
:1049F000D1090FB6F894DEBF0FBECDBF8FE797E0A9
:104A00009F938F9385E997E09F938F938E010F5F1C
:104A10001F4F1F930F930E943C5BC8010E94AE2062
:104A20000F900F900F900F900F900F90C05CDF4F82
:104A30000FB6F894DEBF0FBECDBFDF91CF911F91AF
:104A40000F910895EF92FF920F931F93CF93DF93EF
:104A5000CDB7DEB7DA950FB6F894DEBF0FBECDBF87
:104A6000F82EE92E67EA77E08E010F5F1F4FC8012D
:104A70000E94355BC8010E94AE2060919E12709129
:104A80009F128091A0129091A11224E630E040E0A4
:104A900050E00E9419585F934F933F932F93E091FA
:104AA000BB12F091BC12EE0FFF1FE859F94F818144
:104AB0008F9380818F93EF92FF928BEA97E09F9381
:104AC0008F931F930F930E943C5BC8010E94AE20FE
:104AD00069ED77E0C8010E94355BC8010E94AE20F5
:104AE0006DEB7AE0C8010E94355BC8010E94AE20E0
:104AF0000FB6F894DEBF0FBECDBFD3950FB6F894B6
:104B0000DEBF0FBECDBFDF91CF911F910F91FF9000
:104B1000EF9008952F923F924F925F926F927F9203
:104B20008F929F92AF92BF92CF92DF92EF92FF92BD
:104B30000F931F93CF93DF93CDB7DEB7CA52D14007
:104B40000FB6F894DEBF0FBECDBFC15FDE4F9983B5
:104B50008883CF50D140C75DDE4F6883C952D140B2
:104B6000C65DDE4F7883CA52D14010918F13112356
:104B700031F06DE473E18AEC94E10E94C30BC15FF4
:104B8000DE4FA881B981CF50D1401296CD90DD90F3
:104B9000ED90FC9015978090891390908A13A090C7
:104BA0008B13B0908C13A5019401C701B6010E942C
:104BB000105720E030E040E05EE30E9410572B01E8
:104BC0003C01C15FDE4FA881B981CF50D14016961C
:104BD0008D919D910D90BC91A02DC55FDE4F888376
:104BE0009983AA83BB83CB50D1409C01AD01C50101
:104BF000B4010E94105720E030E040E05EE30E94E4
:104C000010574B015C01A3019201C301B2010E9444
:104C100010572B013C01A5019401C501B4010E946C
:104C200010579B01AC01C301B2010E945C580E9465
:104C3000885AC05EDE4F688379838A839B83C05223
:104C4000D140A7019601C55FDE4F688179818A81D5
:104C50009B81CB50D1400E94DB582BED3FE049E4D3
:104C600050E40E943F5920E030E044E353E40E94C6
:104C700010576B017C016091BD127091BE12072E1E
:104C8000000C880B990B0E94B156A70196010E9457
:104C90005C58CC5DDE4F688379838A839B83C452E2
:104CA000D1402BED3FE049E450E40E94105720E052
:104CB00030E044E353E40E943F596B017C010E94C1
:104CC0003A599B01AC01C05EDE4F688179818A81CF
:104CD0009B81C052D1400E9410572B013C01C7015B
:104CE000B6010E947A5A9B01AC01C05EDE4F68811A
:104CF00079818A819B81C052D1400E9410574B011B
:104D00005C011123A1F06DE373E18AEC94E10E9450
:104D1000C30BC301B2010E94621366EE77E08AEC16
:104D200094E10E942814C501B4010E94621380918D
:104D3000B9129091BA128130910509F454C10297C9
:104D400009F454C267EA77E0CE0101967C010E9423
:104D5000355BC7010E94AE20E091BB12F091BC12FE
:104D6000EE0FFF1FE859F94F81818F9380818F9358
:104D7000C65DDE4F9881CA52D1409F93C75DDE4F1A
:104D8000A881C952D140AF938AEE97E09F938F9349
:104D9000FF92EF920E943C5BC7010E94AE20C15F70
:104DA000DE4FE881F981CF50D14085858F9384858E
:104DB0008F9383858F9382858F938DE098E09F9367
:104DC0008F93FF92EF920E943C5BC7010E94AE203E
:104DD0006E01F1E0CF0EDF1E860122E044E0C30148
:104DE000B2010E94EE51DF92CF928AE198E09F9348
:104DF0008F93FF92EF920E943C5BC7010E94AE200E
:104E000022E044E0C501B4010E94EE51DF92CF924E
:104E100083E298E09F938F93FF92EF920E943C5B16
:104E2000C7010E94AE2022E044E0C05EDE4F6881F0
:104E300079818A819B81C052D1400E94EE51DF92DC
:104E4000CF928CE298E09F938F93FF92EF920E9413
:104E50003C5B0FB6F894DEBF0FBECDBFC7010E940A
:104E6000AE2022E044E0CC5DDE4F688179818A810A
:104E70009B81C452D1400E94EE51DF92CF9286E3D3
:104E800098E09F938F93FF92EF920E943C5BC70143
:104E90000E94AE2060916113709162138091631340
:104EA000909164130E94B1597F936F936091361370
:104EB0007091371380913813909139130E94B15932
:104EC0007F936F9360910B1370910C1380910D136E
:104ED00090910E130E94B1597F936F936091E012ED
:104EE0007091E1128091E2129091E3120E94B15907
:104EF0007F936F938FE398E09F938F93FF92EF924E
:104F00000E943C5BC7010E94AE2080E00E94FE0D23
:104F1000BC0190E080E00E94AF5620E030E040EA23
:104F200050E40E94105720E030E040E85AE30E942D
:104F3000105722E042E00E94EE51DF92CF9280E6CD
:104F400098E09F938F93FF92EF920E943C5BC70182
:104F50000E94AE200E94C61522E042E00E94EE515F
:104F6000DF92CF928DE698E09F938F93FF92EF921E
:104F70000E943C5BC7010E94AE208FE797E09F93A1
:104F80008F9386E798E09F938F93FF92EF920E9412
:104F90003C5B0FB6F894DEBF0FBECDBFC7010E94C9
:104FA000AE206FE577E0C7010E94355BC7010E9424
:104FB000AE20C65DDE4F0FB6F894DEBF0FBECDBF8C
:104FC000DF91CF911F910F91FF90EF90DF90CF90E5
:104FD000BF90AF909F908F907F906F905F904F9019
:104FE0003F902F90089509E112E0312C212CC55FEC
:104FF000DE4F1882CB50D140B0E5C75EDE4FB8839C
:10500000C951D140E3ECC65EDE4FE883CA51D140BE
:10501000F7E4C55EDE4FF883CB51D140D801CD9087
:10502000DD90ED90FC90B0918F13C85DDE4FB8839A
:10503000C852D14020E030E0A901C701B6010E946A
:10504000AA56A3019201882309F4E8C0C701B6015A
:105050000E945B58C45EDE4F688379838A839B839A
:10506000CC51D140A5019401F801648175818681FC
:1050700097810E945B586B017C01C45EDE4F2881E2
:1050800039814A815B81CC51D140CA01B9010E946A
:105090001057C45EDE4F688379838A839B83CC512B
:1050A000D140A7019601C701B6010E9410579B018C
:1050B000AC01C45EDE4F688179818A819B81CC51CD
:1050C000D1400E945C580E94885A6B017C01C85DE7
:1050D000DE4FF881C852D140FF2399F060E373E1BD
:1050E0008AEC94E10E94C30BC1010E94DB1465E2CB
:1050F00073E18AEC94E10E94C30BB601C7010E94E0
:105100006213C55FDE4F2881CB50D140C75EDE4FB2
:105110003881C951D140C65EDE4F4881CA51D14065
:10512000C55EDE4F5881CB51D140B601C7010E9408
:10513000AA5687FF5EC0D8018D919D910D90BC91BC
:10514000A02DCF5EDE4F88839983AA83BB83C15194
:10515000D140D80114968D919D910D90BC91A02DB8
:10516000CB5EDE4F88839983AA83BB83C551D14030
:1051700080918F13882301F160E273E18AEC94E15E
:105180000E94C30BCF5EDE4F688179818A819B814B
:10519000C151D1400E9462136BE173E18AEC94E14A
:1051A0000E94C30BCB5EDE4F688179818A819B812F
:1051B000C551D1400E946213085F1F4FBFEF2B1AE9
:1051C0003B0AC55FDE4FC882CB50D140C75EDE4F81
:1051D000D882C951D140C65EDE4FE882CA51D14063
:1051E000C55EDE4FF882CB51D14018CF01E412E00A
:1051F000FCCEC55FDE4FC880CB50D140C75EDE4FCE
:10520000D880C951D140C65EDE4FE880CA51D14036
:10521000C55EDE4FF880CB51D140CECFC301B20185
:105220000E9410576B017C01A5019401C501B401D6
:105230000E9410579B01AC01C701B6010E945C5847
:105240000E94885A6B017C01C85DDE4FE881C8521C
:10525000D140EE2399F06EE073E18AEC94E10E9474
:10526000C30BC1010E94DB1463E073E18AEC94E19B
:105270000E94C30BC701B6010E946213A7019601E9
:10528000C55FDE4F6881CB50D140C75EDE4F78816D
:10529000C951D140C65EDE4F8881CA51D140C55E3A
:1052A000DE4F9881CB51D1400E946D5A181654F5AB
:1052B00080918F138823B1F06EEF72E18AEC94E154
:1052C0000E94C30B60E070E0CB010E94621369EFA3
:1052D00072E18AEC94E10E94C30B60E070E0CB01C4
:1052E0000E946213CB5EDE4F188219821A821B82E3
:1052F000C551D140CF5EDE4F188219821A821B82BF
:10530000C151D140CF5EDE4F288139814A815B8116
:10531000C151D140C301B2010E945B582B013C0135
:10532000CB5EDE4F288139814A815B81C551D140F6
:10533000C501B4010E945B584B015C0180918F1341
:10534000882309F4FFCC64EF72E18AEC94E10E94B7
:10535000C30BC301B2010E94621360EF72E18AECD9
:1053600094E10E94C30BC501B4010E946213EACC10
:1053700085ED8093BC008091051190910611A0915C
:105380000711B09108110796A11DB11D23E0B69534
:10539000A795979587952A95D1F72091BC0024FD74
:1053A00003C01092521108954091051150910611B9
:1053B0006091071170910811452B462B472B69F31B
:1053C0000097A105B10541F025E32A95F1F700000A
:1053D0000197A109B109E1CF809104110C94C50E88
:1053E0000F931F93CF93DF938C01EB010E94D15752
:1053F0008883C80101960E94D1578983CE01DF912D
:10540000CF911F910F9108954F925F926F927F926B
:105410008F929F92AF92BF92CF92DF92EF92FF92C4
:105420000F931F93CF93DF93CDB7DEB7CC58D24005
:105430000FB6F894DEBF0FBECDBFE091BB12F09166
:10544000BC12EE0FFF1FE859F94F81818F938081C5
:105450008F9384E898E09F938F93CE0101967C010F
:105460009F938F930E943C5BC7010E94AE2081E016
:1054700090E0C557DD4F99838883CB58D240E8EF41
:10548000CE2EE3E0DE2E0F900F900F900F900F9036
:105490000F90F9E94F2EF8E05F2E4E019FE7891A31
:1054A0009DEF990AA3EA6A2EA8E07A2ED601AD9064
:1054B000BC901197A114B10409F443C01296ED9168
:1054C000FC911397309729F414968D919C91892B18
:1054D00069F0D60116968C911697843058F4823074
:1054E000E8F4813049F0C7010E94AE20FDE0CF0E04
:1054F000D11CDCCF8430B9F781818F9380818F9369
:10550000BF92AF925F924F92FF92EF920E943C5BEC
:105510000FB6F894DEBF0FBECDBFE5CF1496ED9168
:10552000FC916081718182819381840122E044E059
:105530000E94EE519F928F92BF92AF927F926F9294
:10554000E3CF62EE79E0C7010E94355BC7010E949C
:10555000AE20C0908111D0908211C60164E670E047
:105560000E940E5BCB012AE030E0B9010E940E5B85
:10557000FC01EE0FFF1FE25FFC4F81818F93808162
:105580008F93C601B9010E940E5BFC01CB01B901EA
:105590000E940E5BDC01AA0FBB1FA25FBC4F1196DD
:1055A0008C9111978F938C918F93EE0FFF1FE25F79
:1055B000FC4F81818F9380818F93C60160E177E2F8
:1055C0000E940E5BFB01EE0FFF1FE25FFC4F81812B
:1055D0008F9380818F93C60168EE73E00E940E5B0B
:1055E000CB01B9010E940E5BFC01EE0FFF1FE25FD1
:1055F000FC4F81818F9380818F938DEA98E09F93F8
:105600008F936E012FEFC21A2DEFD20ADF92CF9245
:105610000E943C5BC6010E94AE2080918F131F92B6
:105620008F9381E199E09F938F93FF92EF920E9475
:105630003C5BC7010E94AE200E941B0E20E037E8B1
:1056400043E953E00E9419585F934F933F932F9380
:1056500084E299E09F938F93FF92EF920E943C5BCC
:10566000C7010E94AE200E94C6156E01AFE7CA1A9C
:10567000ADEFDA0A860122E044E00E94EE51DF92AB
:10568000CF928FE399E09F938F93FF92EF920E94C6
:105690003C5B0FB6F894DEBF0FBECDBFC7010E94C2
:1056A000AE200E94C6150E94591822E044E00E94D4
:1056B000EE51DF92CF9285E599E09F938F93FF9211
:1056C000EF920E943C5BC7010E94AE2080E00E94E6
:1056D000FE0DBC01990F880B990B0E94B15620E07A
:1056E00030E040EA50E40E94105720E030E040E80B
:1056F0005AE30E94105722E044E00E94EE51DF92EC
:10570000CF928BE699E09F938F93FF92EF920E9446
:105710003C5BC7010E94AE2088E00E94FE0DBC01E8
:10572000990F880B990B0E94B15620E030E040EAB7
:1057300050E40E9410572DE534E741EB50E40E94FD
:10574000105720E030EC4FE754E40E943F5922E02C
:1057500044E00E94EE51DF92CF928BE799E09F9355
:105760008F93FF92EF920E943C5BC7010E94AE2094
:1057700080917D108F9380917C108F938EE899E0BB
:105780009F938F93FF92EF920E943C5BC7010E9410
:10579000AE2023EC35EF48EA5EE360916902709138
:1057A0006A0280916B0290916C020E943F590E94A4
:1057B000B159072E000C880B990B0E94B15620E0BE
:1057C00030E040E051E40E9410570E94B1597F93AD
:1057D0006F9381EA99E09F938F93FF92EF920E94DB
:1057E0003C5BC7010E94AE200E944C111F928F9318
:1057F00086EB99E09F938F93FF92EF920E943C5B20
:105800000FB6F894DEBF0FBECDBFC7010E94AE2019
:105810008091B4101F928F938DEC99E09F938F939A
:10582000FF92EF920E943C5BC7010E94AE208091E4
:10583000B5101F928F9385EE99E09F938F93FF92FF
:10584000EF920E943C5BC7010E94AE208091B6108F
:105850001F928F938DEF99E09F938F93FF92EF921A
:105860000E943C5BC7010E94AE208FE797E09F93A8
:105870008F9385E19AE09F938F93FF92EF920E941E
:105880003C5BC7010E94AE20BE0165577D4F8AE890
:1058900090E00E94F029C457DD4F8881CC58D24057
:1058A0008F93C557DD4F8881CB58D2408F9387E2C5
:1058B0009AE09F938F93FF92EF920E943C5BC70107
:1058C0000E94AE200E94B511BC0190E080E00E94D1
:1058D000AF5620E030E048EC52E40E943F5922E00D
:1058E00044E00E94EE51DF92CF928CE39AE09F93C6
:1058F0008F93FF92EF920E943C5B0FB6F894DEBF4D
:105900000FBECDBFC7010E94AE206FE577E0C70193
:105910000E94355BC7010E94AE20C457DD4F0FB611
:10592000F894DEBF0FBECDBFDF91CF911F910F91D5
:10593000FF90EF90DF90CF90BF90AF909F908F90AF
:105940007F906F905F904F9008958F929F92AF924B
:10595000BF92CF92DF92EF92FF920F931F93CF935C
:10596000DF93C4E0D0E08AE0982E05E010E097E0F5
:10597000E92EF12C22E0C22ED12C33E0A32EB12C43
:105980008824839480E993E10E942A0B892B09F4EF
:105990002FC180E993E10E94080B2091BD10309146
:1059A000BE102330310509F4FCC008F0B3C0211546
:1059B000310509F4D8C02230310521F72091BB1000
:1059C0003091BC10F901E05DFC4F9081891749F0DE
:1059D0004091B9105091BA104E7F5093BA10409335
:1059E000B910F901E95DFC4F9081891749F04091A8
:1059F000B9105091BA104D7F5093BA104093B9101E
:105A0000F901EE5DFC4F9081891749F08091B91042
:105A10009091BA108B7F9093BA108093B9108091B7
:105A2000B9109091BA10009721F41092BE10109204
:105A3000BD102F5F3F4F3093BC102093BB1080FFF1
:105A40002BC0205D3C4FF9018081811125C060EDA4
:105A500070E18AEC94E10E94C30B6AE070E08091EF
:105A6000B7109091B8100E94EC126EEC70E18AECC5
:105A700094E10E94C30BE091B710F091B810EC5480
:105A8000FF4E80820E94F12490E080E00E94042A70
:105A90001092BE101092BD108091B91081FF28C0E5
:105AA000E091BB10F091BC10E95DFC4F8081811149
:105AB0001FC069EB70E18AEC94E10E94C30B6AE0BD
:105AC00070E08091B7109091B8100E94EC1267EBD3
:105AD00070E18AEC94E10E94C30BE091B710F09161
