:100000000C94520A0C9429440C94FE430C94D34350
:100010000C94A8430C947D430C9452430C942743B6
:100020000C94FC420C94830A0C94830A0C94830A6B
:100030000C94830A0C94830A0C94830A0C94830A0C
:100040000C94830A0C94830A0C94830A0C94830AFC
:100050000C94830A0C94830A0C94830A0C94B24285
:100060000C94830A0C9488420C945E420C94830A8C
:100070000C94830A0C94830A0C94830A0C94830ACC
:100080000C94830A0C94830A0C94830A0C94830ABC
:100090000C94830A0C94830A0C94830A0C945444A1
:1000A0000C94830A0C94830A0C94830A0C94830A9C
:1000B0000C94830A0C94830A0C94830A0C94830A8C
:1000C0000C94830A0C94830A0C94830A0C94344293
:1000D0000C940A420C94830A0C94E0410C94B641AF
:1000E0000C94830A084AD73B3BCE016E84BCBFFD0B
:1000F000C12F3D6C74319ABD56833DDA3D00C77FF8
:1001000011BED9E4BB4C3E916BAAAABE0000008090
:100110003F072C7AA5BA6CC590DA3B9365FC8BBC83
:1001200053F810FD3C5692834DBD879D3AB63DCBAA
:10013000C9BF5BBE73DA0FC93F05A84CCDB2D44E20
:10014000B93836A9020C50B9918688083CA6AAAAEB
:100150002ABE000000803F000C94590C0C945216EB
:100160000C94BC380C94323E0C94630C0C94930D9C
:100170000C9432230C94DD0B0C9404150C94670F33
:100180000C948F380C94A70D0C94840C0C949A2327
:100190000C94440C0C94AC0A0C940E360C94F42D74
:1001A0000C94650D0C94560C0C947D0F0C94343803
:1001B0000C945F230C948E370C94E00E0C94040F77
:1001C0000C94D5230C9485370C94FA370C947B0C43
:1001D0000C94830D0C94DF0E0C94580D0C94E024B9
:1001E0000C9406240C946F0B0C94520C0C94DE0DA2
:1001F0000C946F0D0C94780E0C94710C0C94B33716
:100200000C94DD390C94E20E0C94230B0C94B52263
:100210000C949A390C94443E0C946D310C947137C3
:100220000C94E10E0C948B0D0C944E0C0C947C37BA
:100230000C94B10D0C94E80D0C94890C0C940B0FDC
:100240000C94010B0C9437380C94850C0C94362FBD
:100250000C94CB370C9400340C945F0C0C94C6397E
:100260000C949D0D0C94F3290C94C00D0C94150B5B
:100270000C94690C0C9490240C94F20A0C94790D53
:100280000C94B7360C9429140C94B8370C9433247E
:100290000C946D0C0C947F0C0C94380F0C94F10E94
:1002A0000C94CA4A0C9441370C94CB340C948F2E86
:1002B0000C94D40D0C94F20D0C94D1340C944A0C83
:1002C0000C9461330C94CA0D0C94600D0C94770C53
:1002D0004E414E494E495459494E46CDCCCC3D0A2B
:1002E000D7233C17B7D13877CC2B329595E6241F0E
:1002F000B14F0A000020410000C84200401C4620C7
:10030000BCBE4CCA1B0E5AAEC59D7400407A10F399
:100310005A00A0724E18090010A5D4E80000E87633
:1003200048170000E40B54020000CA9A3B0000008A
:10033000E1F505000080969800000040420F0000A3
:1003400000A08601000000102700000000E8030064
:100350000000006400000000000A0000000000012E
:1003600000000000002C76D888DC674F0823DFC12E
:10037000DFAE59E1B1B796E5E3E453C63AE65199E9
:100380007696E8E6C28426EB898C9B62ED407C6F12
:10039000FCEFBC9C9F40F2BAA56FA5F490055A2AC9
:1003A000F75C936B6CF9676DC11BFCE0E40D47FED5
:1003B000F520E6B500D0ED902E03009435770500CA
:1003C00080841E080000204E0A000000C80C333351
:1003D00033330F986E12831141EF8D2114893BE660
:1003E0005516CFFEE6DB18D1844B381BF77C1D90E9
:1003F0001DA4BBE424203284725E228100C9F12452
:10040000ECA1E53D2741542B5253540D0A002B2BF0
:100410002B000D0A4553502D303120496E69746907
:10042000616C697A6174696F6E20636F6D706C6561
:100430007465000D0A4553502D30313A20466169EC
:100440006C65642041542B43495053544F3D373021
:1004500030300041542B43495053544F3D373030D6
:10046000300D0A000D0A4553502D30313A204661B7
:10047000696C65642041542B43495053455256459D
:10048000523D312C313039300041542B43495053C7
:1004900045525645523D312C313039300D0A000D50
:1004A0000A4553502D30313A204661696C6564200D
:1004B00041542B4349504D55583D310041542B4335
:1004C00049504D55583D310D0A000D0A4553502DE8
:1004D00030313A204661696C65642041542B4349B0
:1004E000504D4F44453D310041542B4349504D4FF1
:1004F00044453D300D0A000D0A4553502D30313A28
:10050000204661696C65642041542B43574448433D
:1005100050535F4445463D312C323830302C223127
:1005200039322E3136382E31302E30222C223139CC
:10053000322E3136382E31302E38220041542B43A2
:100540005744484350535F4445463D312C32383080
:10055000302C223139322E3136382E31302E3022A5
:100560002C223139322E3136382E31302E38220DB0
:100570000A000D0A4553502D30313A204661696C0E
:1005800065642041542B43495041505F4445463DEA
:10059000223139322E3136382E31302E39222C226A
:1005A0003139322E3136382E31302E392200415435
:1005B0002B43495041505F4445463D223139322E4C
:1005C0003136382E31302E39222C223139322E312B
:1005D00036382E31302E39220D0A000D0A4553507F
:1005E0002D30313A204661696C65642041542B43BB
:1005F00057444843505F4445463D302C31004154F8
:100600002B4357444843505F4445463D302C310D01
:100610000A00222C224E41222C352C300D0A000DCE
:100620000A4553502D30313A2041542B4357534102
:10063000505F4445463D224645542D00222C224E13
:1006400041222C352C300D0A0041542B4357534185
:10065000505F4445463D224645542D000D0A455302
:10066000502D30313A204661696C65642041542B2D
:1006700043574D4F44455F4445463D320041542B5E
:1006800043574D4F44455F4445463D320D0A000DEA
:100690000A4553502D30313A204661696C6564201B
:1006A00041542B5246504F5745523D38300041542B
:1006B0002B5246504F5745523D38300D0A000D0A17
:1006C0004553502D30313A204661696C65642041B4
:1006D00054453000415445300D0A000D0A45535031
:1006E0002D30312050726573656E74000D0A4553CC
:1006F000502D3031204E6F7420466F756E64000DA2
:100700000A496E697469616C697A696E672045533C
:10071000502D3031002044656C74613A00205368DC
:100720006F756C642062653A002049733A000D0AC7
:10073000436C6F636B20506173732E20436F756E33
:100740007465723A002044656C74613A0020536805
:100750006F756C642062653A002049733A000D0A97
:100760004661696C656420436C6F636B20546573EC
:10077000742E20436F756E7465723A000D0A4661DF
:10078000696C656420436C6F636B20546573742ED1
:1007900020436F756E74657220646964206E6F7497
:1007A0002073746F703A000D0A4661696C656420AD
:1007B000436C6F636B20546573742E2073656E7386
:1007C0006F725F7374617475733A000D0A466169E4
:1007D0006C656420436C6F636B20546573742E20CA
:1007E000436F756E74657220667265652072756EF2
:1007F0006E696E673A000D0A4379636C653A000DC5
:100800000A4661696C656420436C6F636B205465B4
:1008100073742E2053707572696F757320747269CA
:10082000676765723A000D0A504F535420636F7525
:100830006E74657273000D0A504F53545F32204638
:1008400061696C65640D0A000D0A5461626174612E
:100850002053746174653A200020206F6C645F4CF3
:1008600045445F70657263656E743A000D0A6E658B
:10087000775F4C45445F70657263656E743A002023
:10088000206F6C645F4C45445F70657263656E7485
:100890003A000D0A6E65775F4C45445F7065726380
:1008A000656E743A000D0A20494E20203C3C200021
:1008B0000D0A204F5554203E3E20000D0A002056C0
:1008C0006F6C7473000D0A565F5245463A20006DF6
:1008D0006D2F757300274320000D0A54656D7065F8
:1008E0007261747572653A20000D0A52554E2046A9
:1008F0006C6970466C6F703A203078000D0A44497C
:10090000503A203078000D0A4244205265763A0071
:1009100073000D0A54696D653A007D0D0A00225678
:10092000657273696F6E223A002C200022565F5266
:100930004546223A002C2000223A002200222C2098
:10094000002E007B2274696D6572223A20220022FB
:100950007D0D0A007B224F53434F5045223A200021
:100960007D002020000A7B5265663A000A0D446F24
:100970006E65000A0D537472696B65000D0A46615D
:10098000636520737472696B6520746573740020ED
:10099000446F6E650D0A000D0A52616D70696E67D5
:1009A00020746865204C4544000D0A446973706CDE
:1009B00061792053657269616C20506F72743A20BE
:1009C00048656C6C6F20576F726C640D0A000D0ADD
:1009D0004175782053657269616C20506F72743A6A
:1009E0002048656C6C6F20576F726C640D0A000DA7
:1009F0000A41726475696E6F2053657269616C207B
:100A0000506F72743A2048656C6C6F20576F726C2F
:100A1000640D0A000D0A50617373207468726F755B
:100A20006768206163746976652E20204379636C62
:100A30006520706F77657220746F20657869740D1A
:100A40000A000D0A53696E676C652043616C63751B
:100A50006C6174696F6E0D0A000D0A47726964203B
:100A600043616C63756C6174696F6E0D0A000D0AE9
:100A700053706972616C2043616C63756C61746959
:100A80006F6E0D0A000D0A446F6E65002073746569
:100A9000707300206D732020000D0A416476616E32
:100AA00063696E67206261636B6572207061706557
:100AB000722000204641494C0D0A002050415353FA
:100AC0000D0A000D0A546869732074657374206EF2
:100AD0006F7420737570706F72746564206F6E2010
:100AE00074686973206861726477617265207265E9
:100AF000766973696F6E0075732E20416C6C206F80
:100B0000757470757473206D7573742062652074CC
:100B100068652073616D652E20000D0A52616E6458
:100B20006F6D20636C6F636B20746573743A200083
:100B30000D0A57616974696E6720666F722054727E
:100B400069676765720D0A000D0A000D0A323520CB
:100B50002D20546573742050757368204255747449
:100B60006F6E73000D0A3234202D204C6F672057B2
:100B70006573742053656E736F72000D0A323320F3
:100B80002D204C6F6720536F7574682053656E730A
:100B90006F72000D0A3232202D204C6F67204561A4
:100BA00073742053656E736F72000D0A3231202DFD
:100BB000204C6F67204E6F7274682053656E736FA0
:100BC00072000D0A3138202D2053656E6420736148
:100BD0006D706C652073686F74207265636F7264EA
:100BE000000D0A3137202D2044756D70204E6F6E38
:100BF000566F6C000D0A3136202D2057694669204A
:100C000074657374000D0A3135202D2046616365CB
:100C100020737472696B652074657374000D0A31FA
:100C200034202D204C4544206272696768746E65DB
:100C300073732074657374000D0A3133202D2053B3
:100C4000657269616C20706F7274207465737400D2
:100C50000D0A3132202D205472616E736665722048
:100C60006C6F6F706261636B000D0A3131202D2053
:100C700043616C696272617465000D0A3130202D28
:100C80002041757820706F7274207061737374687E
:100C9000726F756768000D0A2038202D2047726931
:100CA000642063616C6962726174696F6E20706147
:100CB000747465726E000D0A2039202D204F6E6508
:100CC0002074696D652063616C6962726174696F1B
:100CD0006E207061747465726E000D0A2038202DCC
:100CE00020477269642063616C6962726174696F24
:100CF0006E207061747465726E000D0A2037202DAD
:100D00002053706972616C20556E6974205465734C
:100D100074000D0A2036202D20416476616E6365D3
:100D2000207061706572206261636B6572000D0AEC
:100D30002035202D204F7363696C6C6F73636F7067
:100D4000652028504329000D0A2034202D204F73A0
:100D500063696C6C6F73636F7065000D0A203320DC
:100D60002D20436F756E7465722076616C756573A6
:100D70002028696E7465726E616C20747269676791
:100D8000657229000D0A2032202D20436F756E7484
:100D900065722076616C756573202865787465725C
:100DA0006E616C207472696767657229000D0A2094
:100DB00031202D204469676974616C20696E7075FB
:100DC0007473000D0A504F5354204C454473000A6D
:100DD0000D000D0A546573742057694669000D0AA9
:100DE000426C696E6B204D6F746F7220447269762D
:100DF000650D0A000D0A45786974696E67206361A4
:100E00006C6962726174696F6E0D0A000D0A4F752C
:100E100074204F6620537065633A20000D0A5365B5
:100E20007474696E67207472697020706F696E7473
:100E30002E20547970652021206F66206379636CC1
:100E40006520706F77657220746F20657869740D06
:100E50000A0020616E676C653A00207261646975F2
:100E6000733A0020793A00783A000D0A526573759A
:100E70006C742073686F756C642062653A20002082
:100E800050415353004232002D2D002000413100CB
:100E90002D2D0020205377697463683A0020205676
:100EA0005F5265663A002020466163652053747284
:100EB000696B653A002E002E00204C617463683A1D
:100EC0000041540D0A000D0A54657374204F766575
:100ED00072000D0A53656E64696E672041540D0AF5
:100EE000000A0D526573657474696E67204553502E
:100EF0002D3031000A0D535349443A204645542DB4
:100F0000000A0D4553502D3031206E6F74207072E1
:100F10006573656E742E20436F6E74696E75696EAD
:100F200067207465737420616E7977617900204F52
:100F3000666620004F6E20000D0A416476616E6384
:100F4000696E6720706170657220000D0A666163CA
:100F5000655F4953522829002B2B2B000D0A224490
:100F6000454C4159223A00222C200D0A003A2022F9
:100F7000000D0A4E616D65730D0A000D0A000D0A21
:100F800053656C6620546573743A0020536574741D
:100F9000696E672053657269616C204E756D62657C
:100FA0007220746F3A20000D0A53657269616C20DB
:100FB0004E756D6265723F2028657820323233218C
:100FC000206F722078292900205465737420436FA4
:100FD0006D706C6574650D0A002D20002B20000DCE
:100FE0000A2054657374696E67206D6F746F722088
:100FF000647269766520000D0A446F6E650D0A0003
:1010000020000D0A0020000D0A002E000D0A526576
:1010100073657420746F20666163746F72792064E5
:10102000656661756C74732E2054686973206D61F8
:10103000792074616B652061207768696C650D0AA1
:10104000000D0A557365207B22494E4954223A31DE
:101050003233347D0D0A000A0D56657269667920B7
:101060006669726D77617265000D0A446F6E650D79
:101070000A000A0D5570646174696E67206C6567BB
:101080006163792070657273697374656E7420731F
:10109000746F72616765000D0A52656164696E67FD
:1010A000204E4F4E564F4C007D007B22434F4E4EFC
:1010B000454354494F4E5F434C4F5345223A20001D
:1010C0007D007B22434F4E4E454354494F4E5F5364
:1010D00054415254223A20000000210024002700ED
:1010E0002A002D0030003300010100000401070137
:1010F0000A0100002200250028002B002E003100EC
:10110000340002010000050108010B01000020006D
:101110002300260029002C002F00320000010000CF
:10112000030106010901050505050705080808086A
:10113000020202020A0A080804040404010101016F
:10114000010101010303030303030303040707076A
:101150000C0C0C0C0C0C0C0C02020202060606060F
:10116000060606060B0B0B0B0B0B0B0B01021020DC
:1011700020080810204010204080020102010804CD
:101180000201010204081020408080402010080461
:1011900002018004020180402010080402010804BA
:1011A00002010102040810204080010204081020FE
:1011B000408000000A0B02090C0D0E080703040111
:1011C000000000000000000000000000000000001F
:1011D00000000000000000000000000000001211EC
:1011E00010000000000000000000000000000000EF
:1011F00000000000000000000D0A000D0A000D0AAA
:101200000D0A20202A2A2A204750494F202A2A2A1C
:10121000000D0A000D0A007D2E20557365000D0A91
:101220000D0A43616E6E6F74206465636F64653A86
:10123000207B00205665726966793A002069732028
:10124000696E707574206F6E6C79000D0A000D0A5E
:101250004661636520537472696B652E2E2E0D0AEC
:10126000000D0A5265647563696E672E2E2E000D9F
:101270000A547269676765723A20000D0A7B202262
:101280004661756C74223A20225745535422207DC2
:10129000000D0A7B20224661756C74223A2022538D
:1012A0004F55544822207D000D0A7B20224661754F
:1012B0006C74223A20224541535422207D000D0AAD
:1012C0007B20224661756C74223A20224E4F525484
:1012D0004822207D000D0A0A57616974696E672EE5
:1012E0002E2E0020793A000A0D783A002064793ACF
:1012F000002064783A002064697374616E63653A13
:10130000000A0D77686963685F6F6E653A00206454
:10131000793A002064783A002064697374616E63DE
:10132000653A000A0D77686963685F6F6E653A0019
:101330000A0D6E65775F74617267657420783A0094
:101340000D0A53656E64696E672074686520736367
:101350006F7265002079733A00202078733A00207C
:10136000726F746174696F6E3A0020793A002020C0
:10137000783A0020616E676C655F413A00207369BE
:101380006E3A200020636F733A0020633A002020F9
:1013900062653A002061653A002020623A002061CF
:1013A0003A000D0A696E6465783A000A0A556E6B58
:1013B0006E6F776E20526F746174696F6E3A0020A1
:1013C0006E6F2064617461000D0A53656E736F72F5
:1013D0003A2000206572726F723A0020657374695A
:1013E0006D6174653A002020795F6176673A000D7F
:1013F0000A785F6176673A000D0A657374696D61FA
:1014000074653A200020003A000D0A4D6963726F3E
:101410007365636F6E6473200020000D0A436F755F
:101420006E7473202020202020200020206C6F6309
:101430006174696F6E3A000D0A5265666572656E79
:1014400063653A200020000D0A000D0A7A5F6F667E
:10145000667365745F636C6F636B3A000D0A636F4C
:101460006D707574655F68697428290020636F75F5
:101470006E7473002020576F7273742063617365FC
:101480002064656C61793A20006D6D2F7573000DD5
:101490000A5370656564206F6620736F756E643AD9
:1014A0002000CA4A11241FBECFEFD1E2DEBFCDBF5C
:1014B00000E00CBF10E1A0E0B2E0E6E0FCEB00E0F1
:1014C0000BBF02C007900D92A633B107D9F725E1F3
:1014D000A6E3B0E101C01D92A537B207E1F71AE01B
:1014E000C2E5DAE000E006C021970109802FFE0185
:1014F0000E94115BC135D10780E00807A9F70E945F
:101500004F4B0C94015E0C940000FC01A089B18942
:1015100082E08C93A485B5851C92A685B78580E171
:101520008C93108EA489B58986E08C93A289B389A7
:101530008C9180618C93A289B3898C9188608C9303
:10154000A289B3898C9180688C930288F389E02DFD
:1015500080818F7D80830895AF92BF92CF92DF927A
:10156000EF92FF920F931F93CF93DF936C017B0158
:101570008B01040F151FEB015E01AE18BF08C017E9
:10158000D10759F06991D601ED91FC910190F0815C
:10159000E02DC6011995892B79F7C501DF91CF910F
:1015A0001F910F91FF90EF90DF90CF90BF90AF9081
:1015B0000895FC01A089B1898C91A689B78982FD23
:1015C0000FC09C91818D8F5F8F73228D821749F0A0
:1015D000A18DAE0FBF2FB11D5D969C93818F089595
:1015E0008C910895FC01538D448D252F30E0842F7C
:1015F00090E0821B930B541710F0CF96089501973B
:101600000895FC01918D828D981761F0A28DAE0F27
:10161000BF2FB11D5D968C91928D9F5F9F73928FAE
:1016200090E008958FEF9FEF0895FC01918D828DDA
:10163000981731F0828DE80FF11D858D90E00895A7
:101640008FEF9FEF0895FC01918D228D892F90E0FF
:10165000805C9F4F821B91098F739927089580E9C1
:1016600093E10E94230B21E0892B09F420E0822FD3
:1016700008958DE294E10E94230B21E0892B09F467
:1016800020E0822F08958AEC94E10E94230B21E050
:10169000892B09F420E0822F0895FC01A48DA80F66
:1016A000B92FB11DA35ABF4F2C91848D90E00196A4
:1016B0008F739927848FA689B7892C93A089B189C4
:1016C0008C91837080648C93938D848D981306C065
:1016D0000288F389E02D80818F7D80830895EF92C9
:1016E000FF920F931F93CF93DF93EC0181E0888FDC
:1016F0009B8D8C8D98131AC0E889F989808185FFAC
:1017000015C09FB7F894EE89FF896083E889F9894D
:1017100080818370806480839FBF81E090E0DF914F
:10172000CF911F910F91FF90EF900895F62E0B8DA2
:1017300010E00F5F1F4F0F731127E02E8C8D8E115D
:101740000CC00FB607FCFACFE889F989808185FFC4
:10175000F5CFCE010E944D0BF1CFEB8DEC0FFD2F9D
:10176000F11DE35AFF4FF0829FB7F8940B8FEA897F
:10177000FB8980818062CFCFEF92FF920F931F93FE
:10178000CF93DF938C017B01D0E0C0E0F701EC0F39
:10179000FD1F6491662339F0C8010E946F0B892BED
:1017A00011F02196F3CFCE01DF91CF911F910F91D0
:1017B000FF90EF9008950C946F0BCF93DF93EC01A3
:1017C000888D8823B9F0AA89BB89E889F9898C9129
:1017D00085FD03C0808186FD0DC00FB607FCF7CFE5
:1017E0008C9185FFF2CF808185FFEDCFCE010E94E5
:1017F0004D0BE9CFDF91CF91089580E090E0892BE8
:1018000029F00E94430B81110E94000080E090E0CB
:10181000892B49F080E090E0892B29F00E9400009C
:1018200081110E94000080E090E0892B29F00E9445
:10183000390B81110E94000080E090E0892B29F093
:101840000E942F0B81110C94000008958150823169
:1018500008F05AC0E82FF0E08827EE5CF34F8F4F76
:101860000C94115B520C560C440C4A0C4E0C840C1C
:10187000590C5F0C630C690C6D0C710C770C7B0CB4
:10188000840C7F0C850C890C809180008F7780936D
:1018900080000895809180008F7DF9CF8091800035
:1018A000877FF5CF84B58F7784BD089584B58F7D0C
:1018B000FBCF8091B0008F778093B0000895809126
:1018C000B0008F7DF9CF809190008F77809390004A
:1018D0000895809190008F7DF9CF80919000877F4F
:1018E000F5CF8091A0008F778093A000089580911C
:1018F000A0008F7DF9CF8091A000877FF5CF8091E8
:1019000020018F77809320010895809120018F7DA1
:10191000F9CF80912001877FF5CFCF93DF93282FD8
:1019200030E0F901EE54FE4E8491F901E459FE4E87
:10193000D491F901EA5DFE4EC491CC23A1F081114E
:101940000E94260CEC2FF0E0EE0FFF1FE45FFE4E2E
:10195000A591B491EC91ED2381E090E009F480E051
:10196000DF91CF91089580E090E0FACF1F93CF935D
:10197000DF93282F30E0F901EE54FE4E8491F901F7
:10198000E459FE4ED491F901EA5DFE4EC491CC2398
:10199000A9F0162F81110E94260CEC2FF0E0EE0F1B
:1019A000FF1FEE50FF4EA591B4918FB7F894EC91C4
:1019B000111108C0D095DE23DC938FBFDF91CF914A
:1019C0001F910895DE2BF8CFCF93DF9390E0FC01B9
:1019D000E459FE4E24918A5D9E4EFC018491882339
:1019E000C9F090E0880F991FFC01E852FF4EA591C5
:1019F000B491FC01EE50FF4EC591D49161110DC020
:101A00009FB7F8948C91209582238C93888128230A
:101A100028839FBFDF91CF910895623051F49FB723
:101A2000F8943C91822F809583238C93E8812E2B10
:101A3000EFCF8FB7F894EC912E2B2C938FBFEACF7A
:101A40001F93CF93DF93182FEB0161E00E94E40C0A
:101A5000209739F460E0812FDF91CF911F910C9492
:101A6000B60CCF3FD10511F461E0F5CFE12FF0E0E6
:101A7000EE54FE4EE491E150E23108F0B3C0F0E0E4
:101A80008827EA5BF24F8F4F0C94115B580D600D65
:101A9000650D6F0D790DF20D830D8B0D930D9D0D61
:101AA000A70DB10DC00DCA0DF20DD40DDE0DE80D60
:101AB00084B5806884BDC7BDDF91CF911F91089523
:101AC00084B5806284BDC8BDF7CF809180008068F6
:101AD00080938000D0938900C0938800EDCF8091DF
:101AE0008000806280938000D0938B00C0938A0036
:101AF000E3CF80918000886080938000D0938D0038
:101B0000C0938C00D9CF8091B00080688093B000E2
:101B1000C093B300D1CF8091B00080628093B000B9
:101B2000C093B400C9CF80919000806880939000EA
:101B3000D0939900C0939800BFCF809190008062AD
:101B400080939000D0939B00C0939A00B5CF809172
:101B50009000886080939000D0939D00C0939C007B
:101B6000ABCF8091A00080688093A0008091A000FE
:101B70008F7B8093A000D093A900C093A8009CCF36
:101B80008091A00080628093A000D093AB00C093AE
:101B9000AA0092CF8091A00088608093A000D0938B
:101BA000AD00C093AC0088CF809120018068809305
:101BB0002001D0932901C09328017ECF809120017C
:101BC000806280932001D0932B01C0932A0174CFAF
:101BD00080912001886080932001D0932D01C093D3
:101BE0002C016ACFC038D1050CF03ECF33CF8633FD
:101BF00008F0865320917B00982F9870277F922BB6
:101C000090937B008770806480937C0080917A0041
:101C1000806480937A0080917A0086FDFCCF809169
:101C200078009091790008953FB7F89480917D11E4
:101C300090917E11A0917F11B091801126B5A89B43
:101C400005C02F3F19F00196A11DB11D3FBFBA2F4E
:101C5000A92F982F8827BC01CD01620F711D811D0E
:101C6000911D42E0660F771F881F991F4A95D1F793
:101C700008958F929F92AF92BF92CF92DF92EF9290
:101C8000FF926B017C010E94140E4B015C01C11498
:101C9000D104E104F104B9F00E94140E6819790925
:101CA0008A099B09683E73408105910580F321E014
:101CB000C21AD108E108F10888EE880E83E0981E68
:101CC000A11CB11CE4CFFF90EF90DF90CF90BF90AC
:101CD000AF909F908F9008952FB7F89460917911ED
:101CE00070917A1180917B1190917C112FBF089592
:101CF000089520912C11260F3327331F21323105EF
:101D0000ECF420915211FC0190E080E0243069F065
:101D100082E00895A0912C112191AC01465F5E4EA6
:101D2000A40FB52FB11D2C930196861798F38091BF
:101D30002C11680F60932C1180E0089581E00895C4
:101D40001092521181E0809354111092531161E06E
:101D500084E10E94B60C61E085E10E94B60CE9EBDB
:101D6000F0E080818E7F808380818D7F808388E416
:101D70008093B80085E48093BC000895CF93DF93EF
:101D800091E0909309118823B9F0C091B800D091E7
:101D9000BA008091BC008A7B8093BC0060E084E143
:101DA0000E94B60C60E085E10E94B60C0E94A00E75
:101DB000D093BA00C093B800DF91CF9108950895F1
:101DC00008950895E091011180910011E81730F411
:101DD000F0E0E052FF4E808190E008958FEF9FEF9A
:101DE000089590910111809100112FEF3FEF981706
:101DF00048F4E92FF0E0E052FF4E208130E09F5F91
:101E000090930111C90108958091001190910111E1
:101E1000891B990B0895CF92DF92EF92FF920F9357
:101E20001F93CF93DF937C01CB018A012091DF10B8
:101E3000222389F0EB016B01C40ED51ECC15DD0504
:101E400069F06991D701ED91FC910190F081E02D4D
:101E5000C7011995F3CF642F0E94790EC801DF9155
:101E6000CF911F910F91FF90EF90DF90CF90089549
:101E7000CF93DF931F92CDB7DEB769832091DF1038
:101E80002223F9F020910211203258F021E030E0B5
:101E9000FC013383228390E080E00F90DF91CF91AB
:101EA000089580910311E82FF0E0E154FF4E9981ED
:101EB00090838F5F809303118093021181E090E003
:101EC000ECCF61E0CE0101960E94790EF7CF90E051
:101ED00080E00895DC01FB01CF01861B970B3D914B
:101EE0002191332339F0222339F03217A9F38FEFF0
:101EF0009FEF02C02111FBCF089581E08093A612CD
:101F000080918F13882331F06BE47FE08AEC94E1B9
:101F10000E94BC0BF89408950F931F93CF93DF9307
:101F20008B01EA0181309105F1F09CF4892BB1F02D
:101F30000130110529F1CCF4012BE9F0C130D105B4
:101F400071F104F5CD2B19F1DF91CF911F910F9114
:101F500008958A32910539F08E9751F761E084E057
:101F60000E94B60CE5CF60E0FACF0A32110541F0CD
:101F70000E32110519F761E083E00E94B60CDECF46
:101F800060E0FACFCA32D10551F0AE97E9F661E0D0
:101F900082E0DF91CF911F910F910C94B60C60E01D
:101FA000F7CFAF92BF92CF92DF92EF92FF920F9353
:101FB0001F93CF93DF93C3E0D0E07C0121E0E222C6
:101FC000FF248C0102701127809590956C0121E00F
:101FD000C222DD245C0122E0A222BB24A701B801B9
:101FE00090E080E00E948C0F6AEF70E080E090E06B
:101FF0000E94390EA601B50184E090E00E948C0F8A
:102000006AEF70E080E090E00E94390E219731F78E
:10201000DF91CF911F910F91FF90EF90DF90CF90C4
:10202000BF90AF90089560E085E30E94B60C61E038
:1020300085E30E94B60C60E085E30C94B60C60E08A
:1020400084E30E94B60C60E08DE10C94B60C60E075
:1020500085E30E94B60C60E084E30E94B60C60E069
:1020600088E20E94B60C61E08DE10E94B60C60E04F
:1020700087E20E94B60C61E087E20E94B60C61E044
:1020800084E30C94B60CCF93DF9389E10E948D0C0E
:1020900031E020E0019709F030E0C32FD22F8AE130
:1020A0000E948D0C019709F422968BE10E948D0C01
:1020B000019709F424968CE10E948D0C019709F494
:1020C0002896CE01DF91CF9108950F931F93CF9360
:1020D000DF930EEE12E090E080E0EC01CC0FDD1F0C
:1020E000F80180810E5F1F4F0E948D0C817099272F
:1020F0008C2B9D2BF2E00E3F1F0779F79927DF917C
:10210000CF911F910F910895FF920F931F93CF933B
:10211000DF93EC010EEF12E0F80180810E5F1F4F9C
:1021200061E00E94B60CF3E00E301F07A9F761E0F2
:1021300088E20E94B60CCC0FDD1FFE01EE0FFF1FE0
:10214000E250FD4F108160E0812F0E94B60C0E948A
:102150006510F82E61E0812F0E94B60CCC0FDD1FB8
:10216000C050DD4FC88160E08C2F0E94B60C0E94E9
:1021700065108C0161E08C2F0E94B60C80E09F2DD1
:10218000800F911FDF91CF911F910F91FF900895C4
:10219000CF93DF9390E080E00E948410C9E7D3E101
:1021A000B0E0A0E088839983AA83BB8381E090E0BC
:1021B0000E948410B0E0A0E08C839D83AE83BF8337
:1021C00082E090E00E948410B0E0A0E088879987C8
:1021D000AA87BB8783E090E00E948410B0E0A0E073
:1021E0008C879D87AE87BF87DF91CF9108958091BF
:1021F000B410811106C08091B510811102C0809188
:10220000B6100895CF92DF92EF92FF92CF93DF93B3
:102210000E94140E6B017C01D0E0C0E00E94140EFD
:102220006C197D098E099F09603472448F409105B5
:10223000F0F480E993E10E94230B892B79F380E984
:1022400093E10E94010B219741F021E090E08F344F
:1022500009F020E0C22FD92FE1CF8B34E9F681E0DD
:10226000DF91CF91FF90EF90DF90CF90089580E0C5
:10227000F7CF80E993E10E94230B892B29F080E9B5
:1022800093E10E94010BF5CF089580910202811124
:1022900003C080915D1008950E94391161EC7EE0C9
:1022A00080E993E10E94BC0B0E94021180935D10B3
:1022B0001092020208950E944511811104C080E924
:1022C00093E10C94230B20915E1030915F1080916C
:1022D000B0109091B110821793070CF48096821B76
:1022E000930B089580918F13882331F063EC7DE088
:1022F0008AEC94E10E94BC0B4EE250E06EE270E08A
:102300008AE290E00E948C0F6AEF70E080E090E03B
:102310000E94390E4EE250E06AE270E08EE290E0F8
:102320000E948C0F6AEF70E080E090E00E94390E0E
:102330004AE250E06EE270E08EE290E00E948C0F84
:102340006AEF70E080E090E00E94390E4EE250E0CB
:102350006EE270E08EE290E00C948C0F85E00E94BB
:10236000F70D97FDCF96FC0186E0F595E7958A95E8
:10237000E1F7EE0FFF1FEF58FD4F80819181853609
:10238000910510F48CE291E00895882349F00E94B1
:10239000AE118C32914048F460E082E10C94B60CAE
:1023A0000E94AE118C329140B8F761E0F6CF0F93E6
:1023B0001F93CF93DF930E94AE118C32914080F532
:1023C00089E00E948D0C8C018AE00E948D0CEC014A
:1023D000CC0FDD1FC00FD11F8BE00E948D0C880F2A
:1023E000991F880F991FC80FD91F8CE00E948D0C70
:1023F0009C0183E0220F331F8A95E1F72C0F3D1FCC
:10240000209530952F703327809160109091611046
:10241000806F822B932BDF91CF911F910F910895A5
:102420008CE00E948D0C8C018BE00E948D0CEC01E5
:10243000CC0FDD1FC00FD11F8AE00E948D0C880FCA
:10244000991F880F991FC80FD91F89E0CFCF0E940D
:10245000AE118C32914038F0EA9888E79EE0909374
:102460001202809311020895892B99F00E94AE11F7
:102470008C32914080F08DE79FE090931202809320
:102480001102809169008F7C806180936900EA9AD3
:1024900008950C94271208950E941F100E9427107F
:1024A00081E090E00E9434121092A61281E090E048
:1024B0000C9434128AEC94E10E94230B892B29F0AE
:1024C0008AEC94E10E94010B08950E945B11892B14
:1024D000F9F00E944511811103C080E993E1F2CF28
:1024E00020915E1030915F108091B0109091B110EA
:1024F00082179307B1F0F901E057FF4E80812F5FFB
:102500003F4F2F71332730935F1020935E10089553
:102510008DE294E10E94230B892B29F08DE294E156
:10252000D1CF8FEF089580E00895FB010190002046
:10253000E9F73197AF01461B570B0C94AC0A8F9209
:102540009F92AF92BF920F931F93CF93DF93CDB71C
:10255000DEB7A1970FB6F894DEBF0FBECDBF19A2AC
:10256000423008F44AE08E010F5D1F4F842E912CFB
:10257000B12CA12CA50194010E940858E62FB901A5
:10258000CA01EA3004F5E05DD801EE938D01232BFA
:10259000242B252B79F790E080E0109729F0BD01DE
:1025A0008AEC94E10E949512A1960FB6F894DEBFD2
:1025B0000FBECDBFDF91CF911F910F91BF90AF9014
:1025C0009F908F900895E95CDFCF462FBC0190E08B
:1025D00080E00C949F128F929F92AF92BF92EF92E5
:1025E000FF920F931F93CF93DF939091901280915E
:1025F0009112C0918E12D0918F12209711F4C92F91
:10260000D82F00916210109163100115110511F47B
:1026100001E010E0209709F443C080918F138823D4
:1026200031F068E37FE08AEC94E10E94BC0B8AE021
:102630008C9F40018D9F900C1124B12CA12CF12C6A
:10264000E12C81E00E94C51180918F13882359F0FD
:1026500064E37FE08AEC94E10E94BC0B6AE070E0E6
:10266000CE010E94E512C501B4010E94390E80E03E
:102670000E94C51180918F13882331F06EE27FE0B4
:102680008AEC94E10E94BC0B6AE070E080E090E08C
:102690000E94390E8FEFE81AF80AE016F10689F663
:1026A000DF91CF911F910F91FF90EF90BF90AF906E
:1026B0009F908F9008958F929F92AF92BF92CF92EA
:1026C000DF92EF92FF92CF93DF936B017C01AC011D
:1026D0009B010E94BB5A69ED76E0811126C046013C
:1026E0005701E894B7F82FEF3FEF4FE75FE7C501D9
:1026F000B4010E94BB5A81110CC02FEF3FEF4FE78E
:102700005FE7C501B4010E9499566DED76E0181699
:1027100064F02FEF3FEF4FE75FE4C701B6010E947F
:102720005C5A181684F461EE76E08AEC94E1DF914D
:10273000CF91FF90EF90DF90CF90BF90AF909F90A0
:102740008F900C9495122FEF3FEF4FE75FECC7018E
:10275000B6010E94995687FDE6CF20E030E0A9013E
:10276000C701B6010E949956D0E0C0E087FF0AC0B9
:102770006DE28AEC94E10E94DB0BEC01F7FAF09435
:10278000F7F8F0942AE037ED43EA5BE3C701B601BE
:102790000E944B584B015C010E94A7596B017C01C0
:1027A0000E949E569B01AC01C501B4010E944A588B
:1027B0004B015C014AE0C701B6010E949F12C80F9D
:1027C000D91F6EE28AEC94E10E94DB0BC80FD91F7F
:1027D00020E030E040E251E4C501B4010E94FF5620
:1027E0004B015C010E94A7596B016AE070E0C601D1
:1027F0000E94E512C80FD91FB60190E080E00E9448
:102800009E569B01AC01C501B4010E944A5820E0CC
:1028100030E040E251E40E94FF560E94A759CB01EC
:102820006AE070E00E94E5128C0F9D1FDF91CF914E
:10283000FF90EF90DF90CF90BF90AF909F908F90E0
:1028400008956115710511F00C94951290E080E0E7
:102850000895EF92FF920F931F93CF93DF93892BED
:1028600059F561E77FE08AEC94E10E94BC0B88E6B1
:10287000E82E86E0F82ED0E0C0E0F701019111913A
:102880007F0101151105C1F06AE070E0CE010E94E0
:10289000E5126DE67FE08AEC94E10E94BC0BB80182
:1028A0008AEC94E10E94211467E67FE08AEC94E1CF
:1028B0000E94BC0B2196E1CFDF91CF911F910F9128
:1028C000FF90EF900895CF92DF92EF92FF920E94D7
:1028D00039110E944511811106C061E07FE08AEC48
:1028E00094E10E94BC0B64EF7EE08AEC94E10E94CC
:1028F000BC0BE091BB12F091BC12EE0FFF1FE85928
:10290000F94F608171818AEC94E10E94211461EE9B
:102910007EE08AEC94E10E94BC0B65EE76E080E9F3
:1029200093E10E94211468EE73E080E090E00E9441
:10293000390E69EE76E080E993E10E94211462EDA0
:102940007EE08AEC94E10E94BC0B62EF76E080E9C5
:1029500093E10E9421140E94140E6B017C010E94DD
:10296000140E6C197D098E099F0960347B448C44D8
:10297000910580F480E993E10E94230B892B79F380
:1029800080E993E10E94010B682F8AEC94E10E9498
:10299000DB0BE5CF66EC7EE08AEC94E1FF90EF90F4
:1029A000DF90CF900C94BC0BCF92DF92EF92FF920E
:1029B000CF93DF936C01990FEE08FF08F7FE19C063
:1029C0006DE28AEC94E10E94DB0BEC01662777272D
:1029D000CB016C197D098E099F094AE00E949F1264
:1029E0008C0F9D1FDF91CF91FF90EF90DF90CF90E4
:1029F00008954AE0C701B601DF91CF91FF90EF90B3
:102A0000DF90CF900C949F12CF93DF93EC016CE595
:102A10007FE08AEC94E10E94BC0BCE010E94D414AA
:102A200088EE93E0C89FB001C99F700DD89F700DCC
:102A30001124072E000C880B990BDF91CF910C9479
:102A4000390EEF92FF920F931F93CF93DF938C0178
:102A500069EB7EE08AEC94E10E94BC0BD0E0C0E020
:102A6000EE24E394F12CC7010C2E02C0880F991FAD
:102A70000A94E2F780239123892B09F497C0FE0181
:102A8000E855F94F60818AEC94E10E94DB0B2196B6
:102A9000C430D10541F767EF76E08AEC94E10E94FB
:102AA0002114C9E7D3E188EAE82E86E0F82E89915F
:102AB0009991A991B991892B8A2B8B2B09F47DC00F
:102AC000F70160818AEC94E10E94DB0BFFEFEF1AC3
:102AD000FF0A23E1C938D20751F766EA7EE08AECA3
:102AE00094E10E94BC0B8091A61290E00E94D41445
:102AF0006DE97EE08AEC94E10E94BC0B80E00E94CC
:102B0000F70DBC01990F880B990B0E94A05620E08D
:102B100030E040EA50E40E94FF5620E030E040E818
:102B20005AE30E94FF560E945B1363E97EE08AEC41
:102B300094E10E94BC0B8BE00E948D0C60E97EE06A
:102B4000892B11F46DE87EE08AEC94E10E94BC0BC5
:102B50006BE87EE08AEC94E10E94BC0B8AE00E9464
:102B60008D0C68E87EE0892B11F465E87EE08AEC44
:102B700094E10E94BC0B0F7011270F30110521F555
:102B80008091A612882301F16FE77EE08AEC94E140
:102B90000E94BC0B68EE73E080E090E0DF91CF9183
:102BA0001F910F91FF90EF900C94390E67EB7EE030
:102BB0008AEC94E10E94BC0B6ACF65EB7EE08AEC64
:102BC00094E10E94BC0B82CFDF91CF911F910F91B6
:102BD000FF90EF900895EF92FF920F931F93CF9382
:102BE000DF938C0180918F138823B9F062E978E03C
:102BF0008AEC94E10E94BC0BC8010E94D4146FE7D8
:102C000078E08AEC94E10E94BC0B6AE070E080916D
:102C10004610909147100E94E5120B3A110561F49D
:102C200080914610909147100091B3121091B41208
:102C3000892B11F010E000E084E6E82EF12CC09121
:102C40004610D09147100C171D07C9F09C2F80E04B
:102C5000B7010E94E95A85E00E94200D0C171D075C
:102C600060F42197D0934710C093461064E170E060
:102C700080E090E00E94390EE2CF2196F3CF012B45
:102C800051F460E085E0DF91CF911F910F91FF90AB
:102C9000EF900C94B60CDF91CF911F910F91FF90A4
:102CA000EF900895CF93DF93209146103091471015
:102CB0008217930759F1EC0180918F138823B9F0A3
:102CC0006CE678E08AEC94E10E94BC0BCE010E9495
:102CD000D41469E578E08AEC94E10E94BC0B6AE0C8
:102CE00070E080914610909147100E94E512D093B9
:102CF0004710C09346109C2F80E064E670E00E946D
:102D0000E95A85E0DF91CF910C94200DDF91CF91AE
:102D10000895CF92DF92EF92FF920F931F93CF937C
:102D2000DF9381E08093DF108FE48093481010924E
:102D300003111092021160E087E695E10E94380FBE
:102D4000C0910211C13208F091C00E94140E6B01B3
:102D50007C0180915211811164C082E080935211F4
:102D600081E0809354118FEF80935111109276116E
:102D7000C0937511AFEBB0E1E5E5F1E180E0C81378
:102D8000E8C010927711809177118E698093771146
:102D900080915311813009F0E0C0109253110E94CC
:102DA000140E6B017C01809177118093BB008091A0
:102DB000051190910611A0910711B0910811892B6E
:102DC0008A2B8B2B99F00E94140E00910511109103
:102DD000061120910711309108116C197D098E0997
:102DE0009F090617170728073907E0F18091BC00F3
:102DF00083FDD9CF85EC8093BC000E94140E6B013B
:102E00007C0180915211823009F4A9C08091511146
:102E10008F3F61F180915111803241F180915111C8
:102E200025C08091051190910611A0910711B091D4
:102E30000811892B8A2B8B2B09F48BCF0E94140E3F
:102E40000091051110910611209107113091081180
:102E50006C197D098E099F0906171707280739077E
:102E600008F077CF809104110E94BE0E10920311DA
:102E7000109202111092DF100E94140E6B017C015F
:102E80008091521181118DC081E080935211809305
:102E900054119FEF909351111092761180937511F8
:102EA00080937711809177118E698093771180914B
:102EB0005311813009F0C6C0109253110E94140EB4
:102EC0006B017C01809177118093BB00809105118B
:102ED00090910611A0910711B0910811892B8A2BAE
:102EE0008B2BA1F00E94140E009105111091061178
:102EF00020910711309108116C197D098E099F09E5
:102F0000061717072807390708F46CC08091BC0022
:102F100083FDD8CF85EC8093BC000E94140E6B011A
:102F20007C0180915211813009F48EC0809176111C
:102F3000823008F0ABC080917611A5E5B1E1E0EEFA
:102F4000F0E190E0981709F452C02D9121939F5F12
:102F5000F9CF9D9191938F5F12CF85EE4CCF8091E9
:102F6000051190910611A0910711B0910811892BBC
:102F70008A2B8B2B09F445CF0E94140E009105116A
:102F80001091061120910711309108116C197D09DB
:102F90008E099F09061717072807390708F031CF50
:102FA00061CF8091051190910611A0910711B09108
:102FB0000811892B8A2B8B2B09F462CF0E94140EE7
:102FC00000910511109106112091071130910811FF
:102FD0006C197D098E099F090617170728073907FD
:102FE00008F04ECF809104110E94BE0E80E0109236
:102FF00001118093001187E695E10E94F10ED82F10
:1030000080E0C82F87E695E10E94F10EBE01680FAF
:10301000791F660F672F661F770B072E000C880B32
:10302000990B0E94A05620E030E040E05FE30E9450
:10303000FF56DF91CF911F910F91FF90EF90DF909E
:10304000CF90089585EE67CF80910511909106117C
:10305000A0910711B0910811892B8A2B8B2B09F4B1
:1030600060CF0E94140E009105111091061120915D
:103070000711309108116C197D098E099F090617F7
:1030800017072807390708F04CCFACCF82E055CF9F
:103090004F925F926F927F928F929F92AF92BF9268
:1030A000CF92DF92EF92FF926B017C0123E333E931
:1030B00048E853E40E944B5823E333E948E853E4DB
:1030C0000E942E590E94775A4B015C0121ED3BE38F
:1030D00044E459E3C701B6010E94FF569B01AC01CD
:1030E00061EE70E48DE09DE30E944A582B013C01A3
:1030F000A7019601C701B6010E94FF562DEE39EED9
:1031000047E759E30E94FF569B01AC01C301B2019E
:103110000E944B5820E030E040EA50E40E94FF5605
:103120006B017C0126E636EA45EA53E4C501B401A9
:103130000E94FF569B01AC01C701B6010E944B588B
:1031400020E030E04AE754E40E94FF5620E034E2F9
:1031500044E759E40E942E596B017C0180918F1342
:10316000882381F16FE874E18AEC94E10E94BC0B42
:10317000C701B6010E945B1369E874E18AEC94E12F
:103180000E94BC0B64E774E18AEC94E10E94BC0BE2
:10319000A70196016091690270916A0280916B02A9
:1031A00090916C020E942E5920E030E040E051E402
:1031B0000E94FF560E945B136CE674E18AEC94E176
:1031C0000E94BC0BC701B601FF90EF90DF90CF903B
:1031D000BF90AF909F908F907F906F905F904F9037
:1031E00008958F929F92AF92BF92CF92DF92EF920B
:1031F000FF92CF93DF930E9489160E9448186B01BB
:103200007C01C0928913D0928A13E0928B13F092C2
:103210008C13CDECD2E11982188260918E107091DE
:103220008F10072E000C880B990B0E94A056A70147
:1032300096010E942E5920E030E040E051E40E94C7
:10324000FF566B877C878D879E8720E030E040E0CB
:103250005FE36091690270916A0280916B029091C4
:103260006C020E94FF564B015C0160918C107091C2
:103270008D10072E000C880B990B0E94A056A501FB
:1032800094010E944B58A70196010E942E5920E0FC
:1032900030E040E051E40E94FF566F87788B898BC5
:1032A0009A8B81E090E09CA78BA760918A10709127
:1032B0008B10072E000C880B990B0E94A056A501BD
:1032C00094010E944B58A70196010E942E5920E0BC
:1032D00030E040E051E40E94FF566EAB7FAB88AF18
:1032E00099AF6091881070918910072E000C880B9F
:1032F000990B0E94A05620E030E0A9010E944B5893
:10330000A70196010E942E5920E030E040E051E4F0
:103310000E94FF566AAF7BAF8CAF9DAF82E090E01A
:1033200090932413809323136091861070918710DB
:10333000072E000C880B990B0E94A056A70196013E
:103340000E942E5920E030E040E051E40E94FF56F8
:1033500020E030E0A9010E944B5860932E13709337
:103360002F138093301390933113609184107091D8
:103370008510072E000C880B990B0E94A056A50102
:1033800094010E944B589058A70196010E942E5913
:1033900020E030E040E051E40E94FF566093321399
:1033A00070933313809334139093351383E090E03C
:1033B00090934F1380934E136091821070918310FD
:1033C000072E000C880B990B0E94A056A5019401B2
:1033D0000E944B589058A70196010E942E5920E058
:1033E00030E040E051E40E94FF566093591370931F
:1033F0005A1380935B1390935C13609180107091CB
:103400008110072E000C880B990B0E94A056A70173
:1034100096010E942E5920E030E040E051E40E94E5
:10342000FF5660935D1370935E1380935F139093C8
:103430006013DF91CF91FF90EF90DF90CF90BF901E
:10344000AF909F908F9008952F923F924F925F92EE
:103450006F927F928F929F92AF92BF92CF92DF92A4
:10346000EF92FF920F931F93CF93DF93CDB7DEB709
:103470006F970FB6F894DEBF0FBECDBF8D838091DE
:103480008F13882331F06CE574E18AEC94E10E949B
:10349000BC0B0E94F11860918D1370918E13072E52
:1034A000000C880B990B0E94A05620E030E040E011
:1034B00051E40E94FF562091891330918A13409164
:1034C0008B1350918C130E942E596C877D878E87A9
:1034D0009F8780918F13882309F42BC66AE474E1D7
:1034E0008AEC94E10E94BC0B6C857D858E859F855E
:1034F0000E945B1367E474E18AEC94E10E94BC0BC8
:103500002D81211102C00E94C81080918F13882341
:1035100021F14DEA56E05E834D8309E713E1AD8169
:10352000BE816D917D91BE83AD838AEC94E10E9452
:103530002114F80161917191819191918F014AE07B
:103540000E949F1265E474E18AEC94E10E94BC0B36
:103550002D813E81255B364011F760917913709182
:103560007A1380917B1390917C130E949E56162FA4
:10357000072FF82EE92E3DE7C32E33E1D32E1B860D
:103580001A8681E090E09E838D83D6016D917D91B6
:103590008D919D916D010E949E564B015C01212FE2
:1035A000302F4F2D5E2D0E945C5A181644F4ED8189
:1035B000FE81FB87EA87182D092DFA2CEB2C2D8133
:1035C0003E812F5F3F4F3E832D8324303105E9F646
:1035D00080918F138823D9F067E374E18AEC94E13A
:1035E0000E94BC0B612F702F8F2D9E2D0E945B13AC
:1035F0006BE274E18AEC94E10E94BC0BEA85FB85E6
:10360000E855F94F60818AEC94E10E94DB0B29E7D1
:10361000C22E23E1D22E4DEC52E15E834D837724FE
:103620007394D6018D909D90AD90BD906D01C501B4
:10363000B4010E949E569B01AC01612F702F8F2D0B
:103640009E2D0E944A58ED81FE81638B748B858B81
:10365000968B89288A288B2809F4AAC27282ED8168
:10366000FE81BB96FE83ED83F9E8CF16F3E1DF061A
:10367000C1F680918F13882309F465C06BE174E172
:103680008AEC94E10E94BC0B2DEA36E03E832D8348
:103690009DECE92E92E1F92E8901D801ED91FD9181
:1036A0008D0160818AEC94E10E94DB0B6AE77DE08A
:1036B0008AEC94E10E942114F70163897489858959
:1036C00096890E945B1369E174E18AEC94E10E949F
:1036D000BC0BFBE2EF0EF11C26E0053B1207E9F6FE
:1036E00069E074E18AEC94E10E94BC0B0DEC12E1FC
:1036F000AD81BE81ED91FD91BE83AD8360818AEC89
:1037000094E10E94DB0B67E074E18AEC94E10E9493
:10371000BC0B20E030E040E05EE3F801638974898F
:10372000858996890E94FF560E945B1365E074E1CB
:103730008AEC94E10E94BC0B055D1F4F2D813E81F8
:10374000255B3640A9F68DEC92E19E838D83F12CAA
:10375000E12C8BE2D82EED81FE8183899489A589A5
:10376000B689838F948FA58FB68FFFEFEF1AFF0A6C
:10377000C70183709927D89E8001D99E100D11240E
:1037800003531D4ED8011B962D913D914D915C9197
:103790001E97ED81FE8163857485858596850E94DF
:1037A0004A582B013C01D8011F962D913D914D9116
:1037B0005C915297ED81FE8167857089818992893C
:1037C0000E944A584B015C01A3019201C301B2015E
:1037D0000E94FF562B013C01A5019401C501B401D3
:1037E0000E94FF569B01AC01C301B2010E944B58DD
:1037F0000E94775AAD81BE815F966D937D938D93C4
:103800009C9392979B96BE83AD83B4E0EB16F10434
:1038100009F0A1CF8091131390911413A091151367
:10382000B09116138093E4129093E512A093E612E0
:10383000B093E71280913E1390913F13A0914013F3
:10384000B091411380930F1390931013A093111311
:10385000B09312138091691390916A13A0916B1326
:10386000B0916C1380933A1390933B13A0933C1345
:10387000B0933D138091E8129091E912A091EA1261
:10388000B091EB128093651390936613A093671326
:10389000B0936813C090E012D090E112E090E21271
:1038A000F090E31200910B1310910C13E0910D13A3
:1038B000E987F0910E13FD839801AF01B601C701AE
:1038C0000E945C5A18161CF08601E986FD82C090A1
:1038D0003613D0903713E0903813F09039139801D5
:1038E00049855D81B601C7010E94995687FD03C0D5
:1038F0006801E984FD8000916113109162132091A9
:1039000063132987309164133D839601A701B801A1
:1039100089859D810E94995687FD03C08601E986AD
:10392000FD82980149855D816091EC127091ED12E4
:103930008091EE129091EF120E944A5820E030E000
:1039400040E85FE30E944B58362E272E8987092FC7
:1039500080918F13882361F068EF73E18AEC94E122
:103960000E94BC0B632D722D8985902F0E945B13E2
:1039700045E150E0598F488F2BE2AA85BB852A9FED
:10398000C0012B9F900D112483539D4EFC013B964B
:10399000FB8FEA8F9C01215F3F4F3D8F2C8F4DECB9
:1039A00052E15F8F4E8F1C8A1D8A1E8A1F8A188AD9
:1039B000198A1A8A1B8A10918F13AE8DBF8D1296A9
:1039C0008C9181110BC11123A1F068EC73E18AEC99
:1039D00094E10E94BC0B6AE070E0EE8DFF8D808167
:1039E00091810E94E5126FEB73E18AEC94E10E94F1
:1039F000BC0B2E8D3F8D255D3F4F3F8F2E8F29575E
:103A00003341C9F620E030E040E85EE36889798917
:103A10008A899B890E94FF566D837E838F83988756
:103A200020E030E040E85EE36C897D898E899F89E3
:103A30000E94FF562B013C012D813E814F8158850C
:103A4000AA8DBB8D6D917D918D919C910E944A585C
:103A50004B015C01A3019201EC8DFD8D60817181B0
:103A6000828193810E944A586B017C01A5019401D7
:103A7000C501B4010E94FF564B015C01A7019601EC
:103A8000C701B6010E94FF569B01AC01C501B401FC
:103A90000E944B580E94775AB62E788B8C8B192F28
:103AA000262F372F482F592F632D722D8985902F60
:103AB0000E944A586B017C0120E030E0A9010E947D
:103AC0005C5A181624F0F7FAF094F7F8F094809105
:103AD0008F13882391F16FEE73E18AEC94E10E94D9
:103AE000BC0B6D817E818F8198850E945B1366EE91
:103AF00073E18AEC94E10E94BC0BC301B2010E9405
:103B00005B136BED73E18AEC94E10E94BC0B6B2DAF
:103B100078898C89912F0E945B1363ED73E18AECA5
:103B200094E10E94BC0BC701B6010E945B1366E9D9
:103B300078E08AEC94E10E949512288D398D21500D
:103B40003109398F288F232BC1F51092C0121092A2
:103B5000BF128D819E81AF81B8858093C1129093F1
:103B6000C212A093C312B093C4124092C5125092D5
:103B7000C6126092C7127092C8128A859B856F9692
:103B80000FB6F894DEBF0FBECDBFDF91CF911F916E
:103B90000F91FF90EF90DF90CF90BF90AF909F90EC
:103BA0008F907F906F905F904F903F902F900895EF
:103BB000AD81BE8112961C9252CD2FE632E143E8D0
:103BC0005AE3C701B6010E945C5A18160CF0BDCF2B
:103BD0003B2C28883C893987012FE1CEAE8DBF8DE3
:103BE00057962D913D914D915C915A97632D722D71
:103BF0008985902F0E944B584B015C012C853D8597
:103C00004E855F85CA01B9010E94FF566B017C0198
:103C1000A5019401C501B4010E94FF56A7019601B8
:103C20000E944A580E94775A6D837E838F839887BB
:103C3000EE8DFF8D238D348D458D568D632D722D28
:103C40008985902F0E944B589B01AC010E94FF5622
:103C5000A70196010E944A580E94775A6B017C0185
:103C6000AE8DBF8D5F968D909D90AD90BC909297DC
:103C7000AC019B016D817E818F8198850E944B589C
:103C8000A50194010E94995687FF29C0EE8DFF8DF2
:103C90001382148215821682EE8DFF8D80819181B0
:103CA0008130910509F494C108F45CC0823091051B
:103CB00009F4D7C1039709F417C2112309F49CC072
:103CC0006BEA73E18AEC94E10E94BC0B6AE070E05D
:103CD000AE8DBF8D8D919C910E94E5128DC02D817E
:103CE0003E814F815885CA01B9010E94FF562B01C0
:103CF0003C01A7019601C701B6010E94FF569B0136
:103D0000AC01C301B2010E944A582B013C01A5013C
:103D10009401C501B4010E94FF569B01AC01C3018F
:103D2000B2010E944A582B013C0120E030E040E003
:103D300050ECC701B6010E94FF56A50194010E94F4
:103D4000FF569B01AC01C301B2010E942E590E9493
:103D50003958AE8DBF8D13966D937D938D939C9343
:103D600016979ACFAE8DBF8D13962D913D914D91A3
:103D70005C9116976BED7FE089E49FE30E944A58BF
:103D800069837A838B839C830E94695A9B01AC016F
:103D9000C701B6010E94FF569B01AC01EE8DFF8D5D
:103DA00063857485858596850E944B58AE8DBF8D41
:103DB00093966D937D938D939C93969769817A8169
:103DC0008B819C810E9429599B01AC01C701B601DE
:103DD0000E94FF569B01AC01EE8DFF8D67857089B7
:103DE000818992890E944A58AE8DBF8D97966D93B6
:103DF0007D938D939C939A9780918F13882309F4D8
:103E0000C4C062EA73E18AEC94E10E94BC0B6AE0F0
:103E100070E0EE8DFF8D808191810E94E5126EE948
:103E200073E18AEC94E10E94BC0BAE8DBF8D579676
:103E30006D917D918D919C915A970E945B1369E9D8
:103E400073E18AEC94E10E94BC0BEE8DFF8D638DD3
:103E5000748D858D968D0E945B1364E973E18AEC05
:103E600094E10E94BC0B6D817E818F8198850E94B8
:103E70005B136EE873E18AEC94E10E94BC0BC7010E
:103E8000B6010E945B136AE873E18AEC94E10E9438
:103E9000BC0BAE8DBF8D5F966D917D918D919C9188
:103EA00092970E945B1364E873E18AEC94E10E94AC
:103EB000BC0B69817A818B819C810E9429590E9467
:103EC0005B136DE773E18AEC94E10E94BC0B69819E
:103ED0007A818B819C810E94695A0E945B1363E7FF
:103EE00073E18AEC94E10E94BC0BEE8DFF8D63813F
:103EF0007481858196810E945B136EE673E18AEC82
:103F000094E10E94BC0BAE8DBF8D1B966D917D918F
:103F10008D919C911E970E945B136AE673E18AEC77
:103F200094E10E94BC0BEE8DFF8D678570898189BD
:103F300092890E945B136FE573E18AEC94E10E9421
:103F4000BC0B69817A818B819C810E945B1369E53E
:103F500073E18AEC94E10E94BC0BAE8DBF8D939609
:103F60006D917D918D919C9196970E945B1364E574
:103F700073E18AEC94E10E94BC0BEE8DFF8D67A18A
:103F800070A581A592A50E945B13AE8DBF8D9396FF
:103F90002D913D914D915C919697688979898A8997
:103FA0009B890E944B58688B798B8A8B9B8BEE8DFB
:103FB000FF8D27A130A541A552A56C897D898E89E9
:103FC0009F890E944B586C8B7D8B8E8B9F8B11CD64
:103FD0002BED3FE049E45FE3EE8DFF8D638174815B
:103FE000858196810E944A5869837A838B839C835A
:103FF0000E9429599B01AC01C701B6010E94FF56DE
:104000009B01AC01AE8DBF8D1B966D917D918D9105
:104010009C911E970E944A58EE8DFF8D63A374A356
:1040200085A396A369817A818B819C810E94695ABC
:104030009B01AC01C701B6010E94FF569B01AC0178
:10404000AE8DBF8D1F966D917D918D919C915297F4
:104050000E944B58EE8DFF8D67A370A781A792A792
:10406000CBCE2BED3FE049E45FE3AE8DBF8D1396E1
:104070006D917D918D919C9116970E944B5869830B
:104080007A838B839C830E9429599B01AC01C701D1
:10409000B6010E94FF569B01AC01EE8DFF8D63853A
:1040A0007485858596850E944A58AE8DBF8D9396FE
:1040B0006D937D938D939C93969769817A818B8183
:1040C0009C810E94695A9B01AC01C701B6010E9404
:1040D000FF569B01AC01EE8DFF8D6785708981894C
:1040E00092890E944B5880CEEE8DFF8D23813481C2
:1040F000458156816BED7FE089E49FE30E944A5839
:1041000069837A838B839C830E9429599B01AC012C
:10411000C701B6010E94FF569B01AC01AE8DBF8D59
:104120001B966D917D918D919C911E970E944B588D
:1041300073CF9D81911111CAE6C92F923F924F9280
:104140005F926F927F928F929F92AF92BF92CF9227
:10415000DF92EF92FF920F931F93CF93DF93CDB730
:10416000DEB7C656D1090FB6F894DEBF0FBECDBF7D
:104170005C01BC018AEC94E10E9421140E9445116B
:10418000882309F41DC110927B1010927A1022240A
:104190002394312C6E0121E4C20ED11C00917A10BF
:1041A00010917B100330110509F40FC1C8018C5424
:1041B0009F4EA5969FAF8EAFA597FC018081882367
:1041C00009F4F4C083E0882E912CC801880F991F50
:1041D000A3969FAF8EAFA3978D5F9D4FA7969FAF7E
:1041E0008EAFA7977C01A796EEADFFADA797808114
:1041F00091818330910509F4CDC0C0F481309105DF
:1042000009F46BC082309105A1F7B50180E993E113
:104210000E94211465E177E080E993E10E94211476
:1042200083E090E0F70191838083DDCF84309105B6
:1042300009F4A0C085309105E1F6A396EEADFFAD7F
:10424000A397ED5FFD4F318220820E94451165EEFC
:1042500076E080E993E10E94211468EE73E080E04B
:1042600090E00E94390EA596EEADFFADA5971082A5
:104270001F930F9388E197E09F938F93DF92CF92E4
:104280000E942B5BB60180E993E10E9421141F93E9
:104290000F9389E297E09F938F93DF92CF920E94D2
:1042A0002B5BB6018AEC94E10E94211468EE73E066
:1042B00080E090E00E94390E0FB6F894DEBF0FBE8A
:1042C000CDBF80E993E10E94230B892B09F46EC0D6
:1042D00080E993E10E94010BF4CFF8E0FF931F9275
:1042E0001F930F9380E097E09F938F9381E090E07E
:1042F0008C0F9D1F9F938F930E942B5BBE016F5F5E
:104300007F4F80E993E10E9421140E94140E2B013B
:104310003C010FB6F894DEBF0FBECDBF0E94140E55
:104320006419750986099709603472448F409105B4
:1043300088F480E993E10E94230B892B79F380E9CB
:1043400093E10E94010B8E3349F782E090E0F70180
:1043500091838083F70180819181029709F443CF93
:10436000F1E08F1A910884E090E009F05BCF85E0DE
:1043700090E058CF68E57FE080E993E10E94BC0BB4
:104380006CE474E080E090E00E94390EF701318225
:10439000208229CF0E940211882349F3A396EEAD13
:1043A000FFADA397ED5FFD4F3182208280917A109F
:1043B00090917B10019690937B1080937A10EECEB3
:1043C000B50180E993E10E942114B5018DE294E1E9
:1043D0000E942114CA59DF4F0FB6F894DEBF0FBEFA
:1043E000CDBFDF91CF911F910F91FF90EF90DF90A4
:1043F000CF90BF90AF909F908F907F906F905F9085
:104400004F903F902F900895CF92DF92EF92FF92BE
:104410000F931F93CF93DF93CDB7DEB7A0970FB65F
:10442000F894DEBF0FBECDBF082F162F0E946C0E72
:1044300024E630E040E050E00E94085869017A012B
:104440008091781090917910892B09F58091A712AD
:104450009091A812892BD9F4109245101092441013
:104460008FEF9FEF9093010280930002CA01B90180
:10447000A0960FB6F894DEBF0FBECDBFDF91CF91EF
:104480001F910F91FF90EF90DF90CF900895002340
:10449000B9F0C0924010D0924110E0924210F092D8
:1044A000431080917E1090917F10892B09F44FC0AA
:1044B000109245101092441090E080E00E94521635
:1044C000112371F010923F1010923E1080917E10D7
:1044D00090917F10892B21F010924510109244107A
:1044E00080918F138823F1F00091441010914510B2
:1044F00080910002909101028017910799F068E481
:1045000078E08AEC94E10E94BC0B6AE070E0C8019C
:104510000E94E51280914410909145109093010201
:1045200080930002E0914410F0914510E830F105CD
:1045300060F58827E156FD4D8F4F0C94115BB52235
:1045400032235F239A23D523062433249024809199
:104550008A1290918B12892B09F4B2CF86E090E0F9
:104560009093451080934410ABCF80917E10909132
:104570007F10892B19F586E090E090934510809389
:1045800044101092A8121092A7128091441090919A
:1045900045108B7F039709F00FC2809140109091D6
:1045A0004110A0914210B0914310A7019601281B21
:1045B000390B4A0B5B0BCA01B9015ACF80914010ED
:1045C00090914110A0914210B0914310A701960123
:1045D000281B390B4A0B5B0BCA01B9012AE030E0FA
:1045E00040E050E00E94085889019A0180913C10F7
:1045F00090913D1040913A1050913B10840F951FBF
:1046000066EF7FEF0E94FD5A8091761090917710AF
:10461000860F971F092E000CAA0BBB0B8017910762
:10462000A207B30708F0B1CFC0924010D09241105A
:10463000E0924210F092431080913E1090913F1012
:10464000019690933F1080933E1081E090E090930C
:104650004510809344108091B3129091B4120E943F
:10466000521693CF8091401090914110A09142102A
:10467000B0914310B701A601481B590B6A0B7B0B85
:1046800080913C1090913D10092E000CAA0BBB0BA1
:1046900084179507A607B70708F077CF82E090E068
:1046A0009093451080934410C0924010D0924110D6
:1046B000E0924210F092431090E080E0D0CF8091E1
:1046C000401090914110A0914210B0914310B70159
:1046D000A601481B590B6A0B7B0B80913A109091F5
:1046E0003B10092E000CAA0BBB0B84179507A607DD
:1046F000B70708F04ACF83E090E09093451080938D
:104700004410C0924010D0924110E0924210F092BA
:1047100043108091B3129091B4120E94521665E436
:1047200077E0CE0101960E94245BCE0101960E94A3
:104730009D202BCF8091401090914110A09142106C
:10474000B0914310B701A601481B590B6A0B7B0BB4
:1047500080917E1090917F10092E000CAA0BBB0B4C
:1047600084179507A607B70708F00FCF80919C1212
:1047700090919D12009751F020913E1030913F1082
:104780002817390718F084E090E08ACF109245107E
:104790001092441064E577E0CE0101960E94245BFC
:1047A000CE0101960E949D207FCF80914010909174
:1047B0004110A0914210B0914310B701A601481BCF
:1047C000590B6A0B7B0B80913A1090913B10092E8C
:1047D000000CAA0BBB0B84179507A607B70708F0B8
:1047E000D4CE85E090E09093451080934410C09221
:1047F0004010D0924110E0924210F092431080910C
:10480000B3129091B4120E94EB15BFCE809140106C
:1048100090914110A0914210B0914310B701A601B0
:10482000481B590B6A0B7B0B80913C1090913D10FB
:10483000092E000CAA0BBB0B84179507A607B70718
:1048400008F0A3CE84E090E090934510809344104C
:10485000C0924010D0924110E0924210F09243106A
:1048600090E080E0D0CF80918A1290918B12892BBA
:1048700029F4109279101092781087CE8091401010
:1048800090914110A0914210B0914310A701960160
:10489000281B390B4A0B5B0BCA01B9012AE030E037
:1048A00040E050E00E94085889019A0180913C1034
:1048B00090913D1040913A1050913B10840F951FFC
:1048C00066EF7FEF0E94FD5A8091741090917510F1
:1048D000860F971F092E000CAA0BBB0B80179107A0
:1048E000A207B30708F051CEC0924010D0924110F9
:1048F000E0924210F092431087E090E090934510D0
:104900008093441063E677E0CE0101960E94245B19
:10491000CE0101960E949D2081E00E94C5116FCFBB
:104920008091401090914110A0914210B09143109D
:10493000B701A601481B590B6A0B7B0B80918A12A9
:1049400090918B12092E000CAA0BBB0B84179507B4
:10495000A607B70708F019CE80919A1290919B1282
:104960000097C9F020913E1030913F102817390769
:1049700090F088E090E09093451080934410C092AE
:104980004010D0924110E0924210F092431080E02B
:104990000E94C51165CF86E090E09093451080930A
:1049A000441061E777E0CE0101960E94245BCE01BE
:1049B00001960E949D20E3CF60E070E0CB0158CDCE
:1049C0000F931F93CF93DF93CDB7DEB7C054D109B8
:1049D0000FB6F894DEBF0FBECDBF8FE797E09F9371
:1049E0008F9385E997E09F938F938E010F5F1F4F01
:1049F0001F930F930E942B5BC8010E949D200F9074
:104A00000F900F900F900F900F90C05CDF4F0FB67C
:104A1000F894DEBF0FBECDBFDF91CF911F910F91F4
:104A20000895EF92FF920F931F93CF93DF93CDB72B
:104A3000DEB7DA950FB6F894DEBF0FBECDBFF82E05
:104A4000E92E67EA77E08E010F5F1F4FC8010E94D1
:104A5000245BC8010E949D2060919E1270919F125C
:104A60008091A0129091A11224E630E040E050E045
:104A70000E9408585F934F933F932F93E091BB128E
:104A8000F091BC12EE0FFF1FE859F94F81818F930F
:104A900080818F93EF92FF928BEA97E09F938F93A1
:104AA0001F930F930E942B5BC8010E949D2069ED0C
:104AB00077E0C8010E94245BC8010E949D206DEB35
:104AC0007AE0C8010E94245BC8010E949D200FB6B5
:104AD000F894DEBF0FBECDBFD3950FB6F894DEBFFE
:104AE0000FBECDBFDF91CF911F910F91FF90EF903F
:104AF00008952F923F924F925F926F927F928F9282
:104B00009F92AF92BF92CF92DF92EF92FF920F935C
:104B10001F93CF93DF93CDB7DEB7CA52D1400FB604
:104B2000F894DEBF0FBECDBFC15FDE4F998388838F
:104B3000CF50D140C75DDE4F6883C952D140C65DBA
:104B4000DE4F7883CA52D14010918F13112331F078
:104B500060E473E18AEC94E10E94BC0BC15FDE4F1C
:104B6000A881B981CF50D1401296CD90DD90ED90C3
:104B7000FC9015978090891390908A13A0908B13C6
:104B8000B0908C13A5019401C701B6010E94FF5695
:104B900020E030E040E05EE30E94FF562B013C0144
:104BA000C15FDE4FA881B981CF50D14016968D915B
:104BB0009D910D90BC91A02DC55FDE4F8883998398
:104BC000AA83BB83CB50D1409C01AD01C501B40188
:104BD0000E94FF5620E030E040E05EE30E94FF5676
:104BE0004B015C01A3019201C301B2010E94FF5677
:104BF0002B013C01A5019401C501B4010E94FF569F
:104C00009B01AC01C301B2010E944B580E94775A2C
:104C1000C05EDE4F688379838A839B83C052D14014
:104C2000A7019601C55FDE4F688179818A819B81EA
:104C3000CB50D1400E94CA582BED3FE049E450E4EC
:104C40000E942E5920E030E044E353E40E94FF56D6
:104C50006B017C016091BD127091BE12072E000C99
:104C6000880B990B0E94A056A70196010E944B58F1
:104C7000CC5DDE4F688379838A839B83C452D140A5
:104C80002BED3FE049E450E40E94FF5620E030E085
:104C900044E353E40E942E596B017C010E94295980
:104CA0009B01AC01C05EDE4F688179818A819B8166
:104CB000C052D1400E94FF562B013C01C701B601F2
:104CC0000E94695A9B01AC01C05EDE4F6881798108
:104CD0008A819B81C052D1400E94FF564B015C01EA
:104CE0001123A1F060E373E18AEC94E10E94BC0B14
:104CF000C301B2010E945B1366EE77E08AEC94E197
:104D00000E942114C501B4010E945B138091B91265
:104D10009091BA128130910509F454C1029709F4B7
:104D200054C267EA77E0CE0101967C010E94245BC1
:104D3000C7010E949D20E091BB12F091BC12EE0FC2
:104D4000FF1FE859F94F81818F9380818F93C65D52
:104D5000DE4F9881CA52D1409F93C75DDE4FA88134
:104D6000C952D140AF938AEE97E09F938F93FF9201
:104D7000EF920E942B5BC7010E949D20C15FDE4F16
:104D8000E881F981CF50D14085858F9384858F93B9
:104D900083858F9382858F938DE098E09F938F9387
:104DA000FF92EF920E942B5BC7010E949D206E0133
:104DB000F1E0CF0EDF1E860122E044E0C301B20124
:104DC0000E94DD51DF92CF928AE198E09F938F930A
:104DD000FF92EF920E942B5BC7010E949D2022E070
:104DE00044E0C501B4010E94DD51DF92CF9283E21D
:104DF00098E09F938F93FF92EF920E942B5BC701E5
:104E00000E949D2022E044E0C05EDE4F68817981EF
:104E10008A819B81C052D1400E94DD51DF92CF92A6
:104E20008CE298E09F938F93FF92EF920E942B5B0E
:104E30000FB6F894DEBF0FBECDBFC7010E949D2004
:104E400022E044E0CC5DDE4F688179818A819B81DC
:104E5000C452D1400E94DD51DF92CF9286E398E0A8
:104E60009F938F93FF92EF920E942B5BC7010E944A
:104E70009D206091611370916213809163139091F2
:104E800064130E94A0597F936F93609136137091C1
:104E9000371380913813909139130E94A0597F9352
:104EA0006F9360910B1370910C1380910D1390917F
:104EB0000E130E94A0597F936F936091E01270913E
:104EC000E1128091E2129091E3120E94A0597F9327
:104ED0006F938FE398E09F938F93FF92EF920E94DE
:104EE0002B5BC7010E949D2080E00E94F70DBC0152
:104EF00090E080E00E949E5620E030E040EA50E4DE
:104F00000E94FF5620E030E040E85AE30E94FF563E
:104F100022E042E00E94DD51DF92CF9280E698E0ED
:104F20009F938F93FF92EF920E942B5BC7010E9489
:104F30009D200E94891622E042E00E94DD51DF920E
:104F4000CF928DE698E09F938F93FF92EF920E940D
:104F50002B5BC7010E949D208FE797E09F938F9363
:104F600086E798E09F938F93FF92EF920E942B5BCE
:104F70000FB6F894DEBF0FBECDBFC7010E949D20C3
:104F80006FE577E0C7010E94245BC7010E949D2066
:104F9000C65DDE4F0FB6F894DEBF0FBECDBFDF910A
:104FA000CF911F910F91FF90EF90DF90CF90BF9026
:104FB000AF909F908F907F906F905F904F903F90B9
:104FC0002F90089509E112E0312C212CC55FDE4FAE
:104FD0001882CB50D140B0E5C75EDE4FB883C951CF
:104FE000D140E3ECC65EDE4FE883CA51D140F7E41E
:104FF000C55EDE4FF883CB51D140D801CD90DD9016
:10500000ED90FC90B0918F13C85DDE4FB883C8520D
:10501000D14020E030E0A901C701B6010E949956B5
:10502000A3019201882309F4E8C0C701B6010E94D8
:105030004A58C45EDE4F688379838A839B83CC5150
:10504000D140A5019401F801648175818681978121
:105050000E944A586B017C01C45EDE4F2881398171
:105060004A815B81CC51D140CA01B9010E94FF56EF
:10507000C45EDE4F688379838A839B83CC51D140A1
:10508000A7019601C701B6010E94FF569B01AC0122
:10509000C45EDE4F688179818A819B81CC51D14089
:1050A0000E944B580E94775A6B017C01C85DDE4F0D
:1050B000F881C852D140FF2399F063E273E18AEC92
:1050C00094E10E94BC0BC1010E94D41468E173E119
:1050D0008AEC94E10E94BC0BB601C7010E945B13ED
:1050E000C55FDE4F2881CB50D140C75EDE4F38818F
:1050F000C951D140C65EDE4F4881CA51D140C55E1C
:10510000DE4F5881CB51D140B601C7010E9499565C
:1051100087FF5EC0D8018D919D910D90BC91A02D0F
:10512000CF5EDE4F88839983AA83BB83C151D14070
:10513000D80114968D919D910D90BC91A02DCB5EC0
:10514000DE4F88839983AA83BB83C551D140809168
:105150008F13882301F163E173E18AEC94E10E94EB
:10516000BC0BCF5EDE4F688179818A819B81C15102
:10517000D1400E945B136EE073E18AEC94E10E94DF
:10518000BC0BCB5EDE4F688179818A819B81C551E2
:10519000D1400E945B13085F1F4FBFEF2B1A3B0AE1
:1051A000C55FDE4FC882CB50D140C75EDE4FD8828C
:1051B000C951D140C65EDE4FE882CA51D140C55EBA
:1051C000DE4FF882CB51D14018CF01E412E0FCCE83
:1051D000C55FDE4FC880CB50D140C75EDE4FD88060
:1051E000C951D140C65EDE4FE880CA51D140C55E8C
:1051F000DE4FF880CB51D140CECFC301B2010E9427
:10520000FF566B017C01A5019401C501B4010E9408
:10521000FF569B01AC01C701B6010E944B580E948A
:10522000775A6B017C01C85DDE4FE881C852D140DE
:10523000EE2399F061E073E18AEC94E10E94BC0BEB
:10524000C1010E94D41466EF72E18AEC94E10E94DD
:10525000BC0BC701B6010E945B13A7019601C55F95
:10526000DE4F6881CB50D140C75EDE4F7881C95197
:10527000D140C65EDE4F8881CA51D140C55EDE4F47
:105280009881CB51D1400E945C5A181654F58091F8
:105290008F138823B1F061EF72E18AEC94E10E94F0
:1052A000BC0B60E070E0CB010E945B136CEE72E11E
:1052B0008AEC94E10E94BC0B60E070E0CB010E949C
:1052C0005B13CB5EDE4F188219821A821B82C55196
:1052D000D140CF5EDE4F188219821A821B82C151E3
:1052E000D140CF5EDE4F288139814A815B81C15137
:1052F000D140C301B2010E944A582B013C01CB5E50
:10530000DE4F288139814A815B81C551D140C50179
:10531000B4010E944A584B015C0180918F1388238D
:1053200009F4FFCC67EE72E18AEC94E10E94BC0BB9
:10533000C301B2010E945B1363EE72E18AEC94E157
:105340000E94BC0BC501B4010E945B13EACC85ED41
:105350008093BC008091051190910611A0910711D6
:10536000B09108110796A11DB11D23E0B695A79530
:10537000979587952A95D1F72091BC0024FD03C00D
:1053800010925211089540910511509106116091AB
:10539000071170910811452B462B472B69F3009795
:1053A000A105B10541F025E32A95F1F70000019729
:1053B000A109B109E1CF809104110C94BE0E0F93A5
:1053C0001F93CF93DF938C01EB010E94C05788831A
:1053D000C80101960E94C0578983CE01DF91CF9109
:1053E0001F910F9108954F925F926F927F928F92CB
:1053F0009F92AF92BF92CF92DF92EF92FF920F9364
:105400001F93CF93DF93CDB7DEB7CC58D2400FB602
:10541000F894DEBF0FBECDBFE091BB12F091BC127D
:10542000EE0FFF1FE859F94F81818F9380818F9391
:1054300084E898E09F938F93CE0101967C019F931F
:105440008F930E942B5BC7010E949D2081E090E01A
:10545000C557DD4F99838883CB58D240E8EFCE2ED5
:10546000E3E0DE2E0F900F900F900F900F900F90B3
:10547000F9E94F2EF8E05F2E4E019FE7891A9DEF64
:10548000990AA3EA6A2EA8E07A2ED601AD90BC90C4
:105490001197A114B10409F443C01296ED91FC9147
:1054A0001397309729F414968D919C91892B69F06C
:1054B000D60116968C911697843058F48230E8F411
:1054C000813049F0C7010E949D20FDE0CF0ED11C24
:1054D000DCCF8430B9F781818F9380818F93BF9225
:1054E000AF925F924F92FF92EF920E942B5B0FB6AA
:1054F000F894DEBF0FBECDBFE5CF1496ED91FC91C1
:105500006081718182819381840122E044E00E9464
:10551000DD519F928F92BF92AF927F926F92E3CFB5
:1055200062EE79E0C7010E94245BC7010E949D20C2
:10553000C0908111D0908211C60164E670E00E9493
:10554000FD5ACB012AE030E0B9010E94FD5AFC016E
:10555000EE0FFF1FE25FFC4F81818F9380818F935D
:10556000C601B9010E94FD5AFC01CB01B9010E949C
:10557000FD5ADC01AA0FBB1FA25FBC4F11968C9194
:1055800011978F938C918F93EE0FFF1FE25FFC4F6B
:1055900081818F9380818F93C60160E177E20E94C1
:1055A000FD5AFB01EE0FFF1FE25FFC4F81818F93DD
:1055B00080818F93C60168EE73E00E94FD5ACB0193
:1055C000B9010E94FD5AFC01EE0FFF1FE25FFC4F84
:1055D00081818F9380818F938DEA98E09F938F9341
:1055E0006E012FEFC21A2DEFD20ADF92CF920E94E6
:1055F0002B5BC6010E949D2080918F131F928F9379
:1056000081E199E09F938F93FF92EF920E942B5B31
:10561000C7010E949D200E94140E20E037E843E954
:1056200053E00E9408585F934F933F932F9384E277
:1056300099E09F938F93FF92EF920E942B5BC7019B
:105640000E949D200E9489166E01AFE7CA1AADEF35
:10565000DA0A860122E044E00E94DD51DF92CF9217
:105660008FE399E09F938F93FF92EF920E942B5BC1
:105670000FB6F894DEBF0FBECDBFC7010E949D20BC
:105680000E9489160E94481822E044E00E94DD51E1
:10569000DF92CF9285E599E09F938F93FF92EF92EF
:1056A0000E942B5BC7010E949D2080E00E94F70DA5
:1056B000BC01990F880B990B0E94A05620E030E0A6
:1056C00040EA50E40E94FF5620E030E040E85AE310
:1056D0000E94FF5622E044E00E94DD51DF92CF920B
:1056E0008BE699E09F938F93FF92EF920E942B5B42
:1056F000C7010E949D2088E00E94F70DBC01990F10
:10570000880B990B0E94A05620E030E040EA50E45C
:105710000E94FF562DE534E741EB50E40E94FF560E
:1057200020E030EC4FE754E40E942E5922E044E0A0
:105730000E94DD51DF92CF928BE799E09F938F9388
:10574000FF92EF920E942B5BC7010E949D208091E7
:105750007D108F9380917C108F938EE899E09F93BA
:105760008F93FF92EF920E942B5BC7010E949D20B6
:1057700023EC35EF48EA5EE36091690270916A02BA
:1057800080916B0290916C020E942E590E94A05948
:10579000072E000C880B990B0E94A05620E030E0E9
:1057A00040E051E40E94FF560E94A0597F936F93FE
:1057B00081EA99E09F938F93FF92EF920E942B5B77
:1057C000C7010E949D200E9445111F928F9386EB76
:1057D00099E09F938F93FF92EF920E942B5B0FB6FD
:1057E000F894DEBF0FBECDBFC7010E949D208091FF
:1057F000B4101F928F938DEC99E09F938F93FF923B
:10580000EF920E942B5BC7010E949D208091B510F2
:105810001F928F9385EE99E09F938F93FF92EF9263
:105820000E942B5BC7010E949D208091B6101F92A1
:105830008F938DEF99E09F938F93FF92EF920E9449
:105840002B5BC7010E949D208FE797E09F938F936A
:1058500085E19AE09F938F93FF92EF920E942B5BDA
:10586000C7010E949D20BE0165577D4F8AE890E0E8
:105870000E94DF29C457DD4F8881CC58D2408F93D6
:10588000C557DD4F8881CB58D2408F9387E29AE08D
:105890009F938F93FF92EF920E942B5BC7010E9410
:1058A0009D200E94AE11BC0190E080E00E949E56B7
:1058B00020E030E048EC52E40E942E5922E044E01F
:1058C0000E94DD51DF92CF928CE39AE09F938F93F9
:1058D000FF92EF920E942B5B0FB6F894DEBF0FBED3
:1058E000CDBFC7010E949D206FE577E0C7010E94F0
:1058F000245BC7010E949D20C457DD4F0FB6F8946A
:10590000DEBF0FBECDBFDF91CF911F910F91FF90F2
:10591000EF90DF90CF90BF90AF909F908F907F904F
:105920006F905F904F9008958F929F92AF92BF9229
:10593000CF92DF92EF92FF920F931F93CF93DF935B
:10594000C4E0D0E08AE0982E05E010E097E0E92E70
:10595000F12C22E0C22ED12C33E0A32EB12C8824CE
:10596000839480E993E10E94230B892B09F42FC1D2
:1059700080E993E10E94010B2091BD103091BE108F
:105980002330310509F4FCC008F0B3C021153105FE
:1059900009F4D8C02230310521F72091BB10309195
:1059A000BC10F901E05DFC4F9081891749F04091EE
:1059B000B9105091BA104E7F5093BA104093B9105D
:1059C000F901E95DFC4F9081891749F04091B910C8
:1059D0005091BA104D7F5093BA104093B910F9010D
:1059E000EE5DFC4F9081891749F08091B91090913C
:1059F000BA108B7F9093BA108093B9108091B91030
:105A00009091BA10009721F41092BE101092BD1020
:105A10002F5F3F4F3093BC102093BB1080FF2BC0F3
:105A2000205D3C4FF9018081811125C062EC70E15D
:105A30008AEC94E10E94BC0B6AE070E08091B710A0
:105A40009091B8100E94E51260EC70E18AEC94E14C
:105A50000E94BC0BE091B710F091B810EC54FF4ECF
:105A600080820E94E02490E080E00E94F32910925E
:105A7000BE101092BD108091B91081FF28C0E09136
:105A8000BB10F091BC10E95DFC4F808181111FC0FB
:105A90006AEA70E18AEC94E10E94BC0B6AE070E073
:105AA0008091B7109091B8100E94E51268EA70E1F9
:105AB0008AEC94E10E94BC0BE091B710F091B81011
:105AC000EC54FF4E10821092BE101092BD108091C7
:105AD000B91082FF46CFE091BB10F091BC10EE5D93
